:020000040800F2
:1000000070050020C5000008211E00087D1D0008A5
:1000100000000000000000000000000000000000E0
:100020000000000000000000000000006B1E00083F
:100030000000000000000000691E00086D1E00089E
:10004000D700000800000000D7000008D700000813
:10005000D7000008D7000008D7000008D700000824
:1000600000000000D7000008D7000008D7000008F3
:10007000D7000008D7000008D700000800000000E3
:10008000D70000080000000000000000D7000008B2
:10009000000000004D1F0008D7000008D70000082E
:1000A00000000000D70000080000000081220008C6
:1000B0000348854600F03CFC004800479D2C0008A2
:1000C000700500200448804704480047FEE7FEE72B
:1000D000FEE7FEE7FEE7FEE7F11E0008B1000008BC
:1000E00030B50B46014600202022012409E00D46D0
:1000F000D5409D4205D31D469540491B2546954058
:1001000040191546521E002DF1DC30BD10B5202AD5
:1001100004DB0846203AD040002110BD0B46D340F6
:10012000D0402024A21A91400843194610BD02462F
:1001300070B54A40D30FDB0740002DD04A002AD0CB
:10014000010E140E000212020919400A520A841804
:10015000E50104465443000A120A2E045043A41930
:100160004219200CC543AA18120C0125AD03521CDC
:10017000521912047F39240400D0521C104301D4B8
:100180004000491EC2B20C06C0092018401C40089D
:10019000802A02D003E0002070BD40084000002902
:1001A00000DA0020184370BD70B502464A40D50FF2
:1001B00040004A00ED0740085208002814D0002AE9
:1001C00012D0C40DD30D41020120C0055202490ACC
:1001D000520AE41A091812187D34914201D3641CA2
:1001E00000E04900002C01DA002070BD002391429C
:1001F00001D3891A0343400849000028F7D1002998
:100200000AD0914202D10121C90705E0914201D2F1
:10021000012101E00121C943E005C018401900F0A7
:1002200096FA70BD420005D04200120E52428A4238
:1002300001DB00207047C90508187047F0B5074674
:100240000846584087B0C00F049048000E46590039
:1002500040084908BC1A884105D2384631461E4636
:1002600017460B4602465800400810434CD0300D4C
:10027000039040055900400D490D0590401A029029
:10028000402872DA18030121000B09050843019088
:1002900004980092002805D001995242002088411C
:1002A00000920190029840210A1A0199009800F0EA
:1002B0002BFA05460C466B4607CB00F035FAC01901
:1002C0007141039A0E0D0023D71756401A467A4003
:1002D000164344D0049A002A2DD0029A012A039A88
:1002E00015DC1205C01A914101263605001C71412A
:1002F000D20F059ED2070093019202962A4623460A
:1003000000F073FA07B0F0BD38463146FAE716053B
:10031000224A0F46B218C01AB74101210905001C34
:100320004F4100187F41114618187941E20F1043E0
:100330006D19644113E0E2076D0815436408C207B4
:100340001443039A01261205C01A91413605001C78
:100350007141CE07400830434908C01851412A4630
:10036000234600F035FACDE7FFE70498012240006C
:10037000C117121A00238B4104983146C417381A4A
:10038000A141EEE730B40124E407634030BC55E7F7
:1003900030B40124E407614030BC4FE70000E0FFC7
:1003A000F0B51FB488B00B9909980024484009990A
:1003B000C00F490049080991C0070B9900904900F6
:1003C00049080B9109990898A64608431CD00B9937
:1003D0000A98084318D0099801244000420D4800AB
:1003E000410D099824050003000B204309900B9848
:1003F0000003000B20430B9050181C4940180022AA
:1004000001901446104605E0002001460DB0F0BDF5
:10041000032801DA034600E003239C46C11A0AAE12
:100420000AE05F0008ADED5B4F00F75B7D430027FE
:10043000AA187C41491C5B1E6145F2DD410004ABFA
:100440005A522104120C0A43240C401C0828DFDBFA
:10045000019802900099704601910090059B049AC2
:100460000799069800F0C1F9D0E700000DFCFFFFE6
:10047000F0B50C465C4085B0E40FE40703944C00F3
:100480000026640859009446490802460296224311
:1004900021D062460A431ED06200570D4A000E0367
:1004A0002303550D012402462C492405781B1B0B00
:1004B000360B401823432643614600901C46501AD1
:1004C000B44103D30098401C009002E092180098B9
:1004D0005B41002803DA0020014605B0F0BD002092
:1004E000012109050746864611E064461D46141B96
:1004F000B54106D36546521BB341744607430C43CE
:10050000A646CD0740084908284392185B41054696
:100510000D43EAD11046184313D0604619465040A7
:100520007140084306D06046101AB34106D201223A
:10053000002306E000220123DB0702E00122D24370
:100540005310009874460105381C6141029C039DBC
:100550000019694100F03CF9BFE70000FD0300000D
:1005600070B54B005B0803430BD04B005C0D0026BD
:1005700033466542B341D417AD1AA34102DB0020D4
:10058000014670BD12053018514170BD10B50022F2
:100590009623114600F0E3F810BD00000EB5C21717
:1005A000C10F5040CA0740180021054B0293019229
:1005B00000910A460B4600F018F903B000BD000098
:1005C00033040000C20F410040020123400ADB0552
:1005D000D207090EC0187F2901DA0020704796293A
:1005E00003DC9623591AC84001E096398840002A56
:1005F000F4D040427047C20FD207400040080BD0F1
:10060000C10D0723DB01C91840020905400A114347
:10061000C2084007114370470020014670470000A0
:1006200010B5002904DB0124E40740428C41214637
:10063000002B04DB1C460123DB075242A3418B4203
:1006400000D1824210BD000010B5002904DB012456
:10065000E40740428C412146002B04DB1C46012369
:10066000DB075242A341994200D1904210BD0000E5
:10067000CB0FDB07490010B5490802460A4307D0F3
:100680000A0D07240903E401090B121B002A01DCEF
:10069000002010BDC900440F0C43C100E018D20572
:1006A000801800F054F810BDF0B51FB406460020C5
:1006B00082B005464024019100901BE0019922463A
:1006C0000F463046FFF722FD049A059B801A994198
:1006D00010D310461946224600F016F8361A8F41FC
:1006E0000197224601200021009F00F00DF83818E4
:1006F0004D4100902046641E0028DFDC019B0098DD
:100700002946324607B0F0BD10B5202A04DB014669
:10071000203A9140002010BD914020239C1A0346AE
:10072000E3401943904010BD10B5202A06DBCB17DB
:100730000846203A1041C1170B4306E00B4613410F
:10074000D0402024A21A91400843194610BD002928
:1007500004DA401C490001D140084000704770B4E1
:100760000024050C05D11024000402D1002921D059
:100770001124050E01D100020834050F01D100013A
:10078000241D850F01D18000A41C002801DB40003E
:10079000641C002908D020252E1B0D46F540A140E1
:1007A00000D001212943084301061B1B000ADB1D61
:1007B00002D5002070BC7047DB051818801800298E
:1007C000F8DA401C4900F5D170BC40084000704781
:1007D00010B5002B08DA0024401C614192185B41DF
:1007E0001A4301D14008400010BDF0B51FB482B0DB
:1007F00005460C0003D0084601F062FD02E001F05E
:100800005FFD20300246009021462846FFF77CFF1E
:10081000049B059A04460F4618431143084314D01D
:10082000184610431BD0009840210A1A1846059913
:10083000FFF76CFC05460E46009A05990498FFF7F1
:1008400063FF084305D0012004E02046394607B085
:10085000F0BD0020C11705430E432C4337430099D8
:100860000E986305401A7905E40A00220C43FD0A3C
:100870000A3002D500200146E9E701051019694157
:100880000C9C0D9D00196941FFF7A2FFDFE70000F6
:100890004A0009030123090B1B0519430A4B10B534
:1008A000520D9A4202DA0020014610BD064B343345
:1008B0009A4203DC9A1AFFF729FC10BD034BD218A9
:1008C000FFF722FF10BD0000FF030000CDFBFFFF7C
:1008D00030B50446CD0FED070020054304D10D4689
:1008E0000121C9076442A941DD0FED07284304D166
:1008F00018460123DB07524283411846151B8841E5
:1009000001D2094806E00120400762404B401A43EB
:1009100000D10648EFF300810902090A020E12060F
:10092000114381F3008830BD0000008000000060AA
:10093000064C0125064E05E0E36807CC2B430C3C32
:1009400098471034B442F7D3FFF7B6FBC02E000827
:10095000E02E000870B5044600688168490720D57C
:10096000816810264907002905DA8168890702D4C1
:1009700081683143816000F0CFFC05460DE000F056
:10098000CBFC401B022808D9606C30436064A06C2B
:1009900001210843A064084670BD206880684007B4
:1009A000EDD4002070BDF8B5044600688168890761
:1009B000890F012928D10168C90702D1C16809043A
:1009C00022D58168052211401025012601290FD169
:1009D000816802221143816021680320086000F0D1
:1009E0009BFC07460CE000F097FCC01B022807D9CF
:1009F000606C28436064A06C3043A0640120F8BDA3
:100A000020688068C007EED10020F8BDF8B5044624
:100A100000200090206881688907890F012905D18D
:100A20000168C9072CD1C168090429D48168154A15
:100A3000102611400125002915D1816829438160C4
:100A4000124811490068FFF74BFB00E0401E009080
:100A50000028FBD100F060FC07460CE000F05CFCD5
:100A6000C01B022807D9606C30436064A06C284327
:100A7000A0640120F8BD20680068C043C007EDD124
:100A80000020F8BD1700008040420F000000002049
:100A9000F8B500203B4C3A490090616220623A4927
:100AA000E1620746A06202F06FF9FFF777FD0546A5
:100AB0000E4602460B46616A206A02F0B1F8616296
:100AC00020622A463346E16AA06A02F0C7F8E16272
:100AD000A06228463146E368A268FFF753FC4E0047
:100AE000054676080098FFF786FD2A463346FFF74D
:100AF000A5FBFFF7BDFD0090642002F085F80920FA
:100B0000C006416901225203514041617F1CC82F38
:100B1000C9DB1E490098FFF747FB1D49FFF744FB5F
:100B2000FFF769FD1B4A1C4BFFF73AFCFFF7A0FDDE
:100B3000FFF761FD194A1A4BFFF732FCFFF798FDEA
:100B40000546204620300FC8FFF778FB0022D2432D
:100B5000FFF706FDE368A268FFF714FC49004908A7
:100B60000022104BFFF770FD04D2616B206BFFF782
:100B70007FFD05462846FFF73EFD61632063F8BD13
:100B80000040BFC0080000200040BF4000004843B4
:100B900000209B44D7A3703D0AD7F93F52B81E8569
:100BA000EB512E4000005E40F8B50025044640346D
:100BB00000952278012A39D00122227003689E68AC
:100BC000760767D4384F4E68BE424DD09E6A0F7884
:100BD000BA4016439E620123826B1B079A421FD0C4
:100BE000012A1DD0022A1BD0032A19D0042A17D0AB
:100BF000052A15D0062A13D0072A11D002688B685F
:100C000056697607760FB3420AD05369DB08DB00DA
:100C10005361006842690B7A5B075B0F1A434261BC
:100C20000A68102A04D0112A02D038E00220F8BD48
:100C30001E488368102A07D001229205134383605F
:100C40000868102803D02AE00122D205F6E71948E7
:100C500017490068FFF744FA0A21484300E0401EA4
:100C600000900028FBD11AE0986A0E78B2409043B9
:100C700098620968102901D0112910D10B488268A7
:100C8000102904D0012189058A43826007E00121EF
:100C9000C905F9E7416C2022114341640125002078
:100CA00020702846F8BD0000011000000027014018
:100CB00040420F000000002070B504003BD0606C83
:100CC0000221084360642046FFF744FE00260546E3
:100CD000002832D0012D2AD021684A689F20824303
:100CE0004A60216808602068C168184A1140C160E4
:100CF0002068016989008908016120684169C90883
:100D0000C90041612068016A114A114001622068EE
:100D1000816AC90CC90481620E4881680322920568
:100D200091438160204600F0D5F8A66466644034A3
:100D30002670284670BD012070BD2046FFF733FEA7
:100D400005460128F3D001206064C5E700023E8318
:100D500000F000F0002701400068006C70470000C0
:100D6000F8B500250446002803D0606C002802D0A6
:100D700008E00120F8BD0020A0644021085520466D
:100D800000F0BCF8606C1022C006002870DB206800
:100D9000816849076CD4616C13019943022319439C
:100DA000616481688907890F012905D10168C90734
:100DB0000FD1C16809040CD4C16818239943A368F2
:100DC0001943C16020680169636889008908194373
:100DD00001612068C1683D4B1940C160A069E169AB
:100DE0008003C9030843216A4B031843636B012B3B
:100DF00002D001231B0300E000231843E3681843DB
:100E00002369022B09D000231843236B666A5B0019
:100E100018430123012E02D00AE00423F4E700293D
:100E200027D0616C202631436164A16C1943A16411
:100E3000A16A0E46FF3EC23E02D0E66A3143084335
:100E40002168CE680643CE600126A16B3607B14209
:100E500013D0012911D002290FD003290DD0042964
:100E60000BD0052909D0062907D0072905D010E0A5
:100E700028E0012109040843DAE721684E69F608F1
:100E8000F6004E6121684E69278F7F077F0F3E4332
:100E90004E612168C9680E4E3140814207D1002061
:100EA000A064606C80088000401C606408E0606C96
:100EB0000221884310436064A06C1843A06401259C
:100EC0002846F8BD606C10436064F8E71902FEFF25
:100ED000E7FF3F8310B500680649884209D10648FC
:100EE000816942159143816109204021C00600F0CB
:100EF00005F910BD002401400010024000B5006853
:100F00000C4987B0884212D10B48826941150A43C7
:100F10008261806908400590402000900320019084
:100F20000020029009206946C00600F051F907B080
:100F300000BD00000024014000100240F8B5044646
:100F40004069254640350E4608280BD02068C06809
:100F5000C00709D0606C202108436064002028701D
:100F60000120F8BD082700E00C2700F0D5F900901B
:100F700011E0701C0FD0002E05D000F0CDF90099C3
:100F8000401AB04207D9606C042108436064002015
:100F900028700320F8BD206800683842E9D0606CF2
:100FA00001214902084360642068C16809058A0F6D
:100FB0000C21002A1AD1226A002A17D102681207CE
:100FC00014D5826853070122002B08DB43688B434A
:100FD0004360606C130298431043606406E0606CE9
:100FE000202318436064A06C1043A064A06900280B
:100FF00001D1206801600020F8BD000070B50446F2
:10100000216800208968490721D425464035297880
:1010100001291CD001212970E169012904D0204651
:10102000FFF7F4FC002811D1616C0A4A1140FF223D
:101030000132114361640021A164297022681C21DE
:10104000116021688A6804231A438A6070BD0220F7
:1010500070BD0000FEF1FFFF70B505460446403547
:101060002878012807D001262E702046FFF772FC51
:10107000002802D00CE0022070BD2046FFF793FC50
:10108000002805D1616CFF22013291433143616434
:101090000021297070BD70B50024014620314A78C6
:1010A000022A03D004218163012416E00268136838
:1010B0000E25AB431360026813685B085B00136086
:1010C0000122056C1346AB40C56B6B604A70002271
:1010D0000A70416B002900D08847204670BD31B5A9
:1010E00000F01AF9009C0546601C00D0641C00F05A
:1010F00013F9401BA042FAD338BD0000F0B500231D
:1011000058E001229A4014460A4052D006685F0017
:101110000325BD40AE43AC460660DD08AD002D188A
:101120002E6AAE465D07EF0E0F25BD40AE437546F5
:101130002E6286686546AE4386604568A543456075
:10114000C4686546AC43C4609D081C4CAD002D19B5
:10115000AF689C07260F0F24B440A4463C400927E3
:10116000FF06B84201D100270FE0154FB84201D168
:1011700001270AE0134FB84201D1022705E0124FC0
:10118000B84201D1032700E00527B740A74210D19C
:10119000AE686446A643AE600C4C25689543256056
:1011A000656895436560A5689543A560E5689543C6
:1011B000E5605B1C0A46DA40A3D1F0BD00000140A7
:1011C0000004004800080048000C004800040140EA
:1011D000F8B500238DE001249C40A44622407DD038
:1011E0004C68022C01D0122C0CD1DC08A40027186A
:1011F0003C6A5D07ED0E0F26AE40B4430E69AE406B
:1012000026433E6205685E000324B4400F79A5437F
:10121000BF07BF0FB7402F4307604D68012D05D0B2
:10122000022D03D0112D01D0122D0ED18568CF686B
:10123000A543B7402F43876047686546AF430D79A4
:10124000ED06ED0F9D403D434560C568A5438C68A4
:10125000B4402C43C4604C68E40049D5284CA569CF
:1012600001263543A561A4699D0834400094254CAE
:10127000AD002F19BC689D072E0F0F25B540AC435C
:101280000925ED06A84201D100250FE01E4DA84218
:1012900001D101250AE01D4DA84201D1022505E03A
:1012A0001B4DA84201D1032500E00525B54025438B
:1012B000BD60184C25684E689543F60300D515436C
:1012C000256065684E689543B60300D51543656093
:1012D000A5684E689543F60202D500E008E0154384
:1012E000A560E5684E689543B60200D51543E560F4
:1012F0005B1C0A681446DC4000D06CE7F8BD0000B7
:1013000000100240000001400004004800080048AE
:10131000000C0048000401400148006870470000CC
:101320000400002002480168491C01607047000069
:101330000400002010B50648016810221143016026
:10134000002000F007F800F017F8002010BD0000A2
:101350000020024010B5044600F042F97D21C9008A
:10136000FEF7BEFE00F046FB00222146501E00F0B4
:1013700029F8002010BD000008B50C488169012241
:101380001143816180691040002200901146501F76
:1013900000F018F800221146901E00F013F8002209
:1013A0001146501E00F00EF808BD0000001002406B
:1013B000C106C90E0120884001490860704700003D
:1013C00000E100E010B500F02DFD10BDF8B50546B8
:1013D0000068354CC00352D5E0690026C00007D430
:1013E000E16920040143E161E169014001260091C6
:1013F0002E480168C90510D40168821511430160A7
:10140000FFF78AFF074604E0FFF786FFC01B64284A
:1014100024D826480068C005F6D5206A03273F0275
:10142000384020D06968394081421CD0206A226A45
:10143000B843012109040A432262226A8A432262D4
:101440002062C0070FD0FFF767FF009008E0FFF7AA
:1014500063FF0099411A1648814201D90320F8BD63
:10146000206A8007F3D5206A6968B8430843206280
:10147000002E04D0E169012000078143E161287852
:10148000C00705D0206BA96880088000084320634E
:101490002878800605D5206B10218843E968084329
:1014A00020630020F8BD00000010024000700040E2
:1014B00088130000F8B5054644480E460068C0078A
:1014C000C00FB0420AD2414801684908490031437F
:1014D00001600068C007C00FB0425CD128783C4C66
:1014E000800705D56068F0218843A96808436060DB
:1014F0002878C0073FD06868012813D021680228E7
:1015000013D08907002946DA6168890889000143F8
:101510006160FFF701FF6968074601290DD00229C4
:1015200017D024E021688903ECE78901EAE7FFF797
:10153000F3FEC11B2748814217D860680007800F5F
:101540000128F4D117E0FFF7E7FEC11B21488142D3
:101550000BD860680007800F0228F4D10BE0FFF77A
:10156000DBFEC11B1B48814201D90320F8BD606826
:101570000007800FF3D115480168C907C90FB142B0
:101580000BD9016849084900314301600068C00770
:10159000C00FB04201D00120F8BD2878400706D521
:1015A0006068072109028843E9680843606000F029
:1015B0002DF86168084A0906090F515CC8400749BF
:1015C00008600020FFF7C6FE0020F8BD00200240A2
:1015D0000010024088130000A82E00080000002020
:1015E00001480068704700000000002004480549D9
:1015F00000684968044A4905490F515CC840704772
:101600000000002000100240B82E000810B512A300
:101610000FCB88B06C460FC413A30FCB0FC4164971
:101620004A680C20134603401448042B0FD0082BA3
:101630000DD193021B0F6C46E45CC96A04AB090729
:10164000090F595CD20304D5FEF74AFD604308B088
:1016500010BD0B486043FAE70203040506070809BA
:101660000A0B0C0D0E0F10100102030405060708EB
:10167000090A0B0C0D0E0F100010024000127A0028
:1016800000093D00FEB504460078D04DC00747D0A4
:1016900068680007800F012807D068680007800F7E
:1016A000022809D16868C00306D52868800337D5A9
:1016B000606800287ED033E0012062680004012ABF
:1016C00011D08100002A01D0052A10D02A68824357
:1016D0002A602868884328606068002814D0FFF7D3
:1016E0001BFE06460CE0296801432960F4E72A68DE
:1016F0000A432A60F7E7FFF70FFE801B64286FD8C4
:1017000028688003F7D50BE0FFF706FE064604E0E5
:10171000FFF702FE801B6428F1D828688003F7D405
:1017200020780126800700283BDA68680007800FD0
:1017300007D068680007800F022809D16868C003D5
:1017400006D42868800715D5E068012832D111E059
:10175000E0680028286815D030432860FFF7DCFDDA
:10176000074604E0FFF7D8FDC01B0228C7D8286849
:101770008007F7D52868F82188432169C900084304
:1017800028600EE0400840002860FFF7C5FD0746CE
:1017900004E0FFF7C1FDC01B0228B0D8286880070D
:1017A000F7D42078000724D5E0690028686A10D0B3
:1017B000304300E008E16862FFF7AEFD074604E051
:1017C000FFF7AAFDC01B022899D8686A8007F7D5E1
:1017D0000FE0400840006862FFF79EFD074605E005
:1017E0009DE0FFF799FDC01B022888D8686A800732
:1017F000F7D4207804274007002860DA0020019001
:10180000E869C00008D4E969B8060143E961E969FB
:1018100001400120009101906D480168C90511D473
:101820000168821511430160FFF776FD009005E025
:10183000FFF772FD0099401A642870D86448006868
:10184000C005F5D5A06801280AD0002801D00528D8
:1018500010D0286A400840002862286AB84301E096
:10186000286A30432862A068002812D0FFF754FD90
:1018700000900AE0286A38432862F1E7FFF74CFD40
:101880000099411A5348814249D8286A8007F5D502
:101890000DE0FFF741FD009006E0FFF73DFD0099E8
:1018A000411A4C4881423AD8286A8007F5D40198F9
:1018B000002804D0E969012000078143E96120780C
:1018C000C00635D5606901280CD0401D686B23D057
:1018D00038436863686B400840006863FFF71CFD8D
:1018E000064622E0686B38436863686B3043686380
:1018F000FFF712FD064604E0FFF70EFD801B0228ED
:101900005BD8686B8007F7D5686BF8218843A169BD
:10191000C900084368630BE0B8436863F4E74CE030
:10192000FFF7FAFC801B022847D8686B8007F7D4C2
:10193000206A002846D069680907890F022943D028
:10194000012636060228286805D0B0432860FFF734
:10195000E3FC044633E0B0432860FFF7DDFC0746B4
:1019600004E0FFF7D9FCC01B022826D828688001B4
:10197000F7D4E86AE16A000900010843E862616A95
:10198000A06A084369683D221204914308436860D5
:10199000286830432860FFF7BFFC044604E0FFF7E7
:1019A000BBFC001B022808D828688001F7D509E095
:1019B000FFF7B2FC001B022801D90320FEBD2868F6
:1019C0008001F5D40020FEBD0120FEBD00100240C4
:1019D00000700040881300000422044904280869AC
:1019E00002D09043086170471043FBE700E000E03D
:1019F00070470000094910B5401E884201D90120F6
:101A000010BD074C60610321081F00F00BFA002095
:101A1000A06107202061002010BD0000FFFFFF0033
:101A200000E000E010B5FFF7E3FF10BD704770471E
:101A3000704770B50446006801690025C9438907ED
:101A4000002915DBC168C943890711D4E91E01616A
:101A500001202077206880698007204602D0FFF7A8
:101A6000E7FF04E000F096F8204600F094F82577B0
:101A700020680169C943490717D4C168C9434907A8
:101A800013D40421C94301610220207720688069B2
:101A90008005800F204602D0FFF7CAFF04E000F067
:101AA00079F8204600F077F8257720680169C94366
:101AB000090716D4C168C943090712D40821C943CC
:101AC0000161042020772068C0698007204602D089
:101AD000FFF7AEFF04E000F05DF8204600F05BF891
:101AE000257720680169C943C90617D4C168C9436D
:101AF000C90613D41021C94301610820207720684A
:101B0000C0698005800F204602D0FFF791FF04E0F6
:101B100000F040F8204600F03EF825772068016983
:101B2000C943C90708D1C168C943C90704D1891E7F
:101B30000161204600F030F820680169C9430906B8
:101B400009D4C168C943090605D48021C94301618C
:101B50002046FFF76BFF20680169C943490609D495
:101B6000C168C943490605D44021C94301612046E3
:101B700000F013F820680169C943890609D4C168D7
:101B8000C943890605D42021C94301612046FFF7D6
:101B90004EFF70BD70477047704770477047000038
:101BA000F8B503680446D96918680D072D0F07D1E9
:101BB0008A0605D5820603D5204600F065FAF8BDF1
:101BC0009A68002D64D0D507ED0FFF262136064018
:101BD0002E435DD0CE0706D0C60504D501261E6271
:101BE000E36E3343E3668F0702230426002F06DAF1
:101BF000D70704D027683B62E76E3743E7664F0795
:101C000006D5D20704D022681662E26E1A43E26655
:101C10000A0709D5202202402A4305D0236808225A
:101C20001A62E36E1343E366E26E002AC7D08906A8
:101C300004D5800602D5204600F026FAE06E0007A3
:101C400003D42068806840061CD5204600F000FAC6
:101C500020688168490611D58168402291438160DE
:101C6000606E00280AD012494163606EFFF713FAD4
:101C70000028A4D0606E416B8847F8BD2046FFF76E
:101C80008DFFF8BD2046FFF789FF0020E066F8BD14
:101C90000A0605D5020603D5204600F0BDFAF8BDB8
:101CA0004906FCD54006FAD5204600F0E0F9F8BD1B
:101CB0003D20000870B5040005D025466035687ADF
:101CC000002802D006E0012070BD002028722046C6
:101CD00000F026F82420687220680168490849004D
:101CE0000160204600F00EFA0128EDD0606A00285D
:101CF00002D0204600F034F9206841680122D20267
:101D00009143416020688168082291438160206886
:101D10000168012211430160204600F086F970BD80
:101D200000B50068124987B088421FD11148826906
:101D3000012189030A4382618069084005900320DC
:101D400040020090022001900121032003900291A3
:101D5000049109206946C006FFF73AFA00221146AD
:101D60001B20FFF72FFB1B20FFF722FB07B000BD56
:101D7000003801400010024070477047FEE7000045
:101D800030B5184887B04269012189050A4342618C
:101D900042690A400592426949110A434261426917
:101DA0000A400592426949000A4342614069092597
:101DB000084005900720009000200324ED060390C2
:101DC000019469462846FFF703FA0120400300907A
:101DD00001200190694603942846FFF7F9F907B0FE
:101DE00030BD00000010024010B50C480A490160E7
:101DF000E1214902416000218160C160016181618E
:101E0000C1610C22016242614162FFF753FF002869
:101E100000D0FEE710BD000000380140980000200F
:101E2000704700008307FF22DB0E9A408907090EE6
:101E3000994000280BDA0007000F0838830808488B
:101E40009B001818C36993430B43C3617047830811
:101E500004489B001B18186890430843186070479B
:101E600000ED00E000E400E07047704710B5FFF7B8
:101E700059FAFFF7D7FD10BD30B595B001251220F6
:101E8000059500901020049006900520C00403954D
:101E900002240A9008946846FFF7F4FB002800D05B
:101EA000FEE70D94002407200C900E9421460CA808
:101EB0000F94FFF7FFFA002800D0FEE710A8109556
:101EC0001294FFF783FA002800D0FEE7FFF788FBA3
:101ED0007D21C900FEF704F9FFF78CFD0420FFF710
:101EE0007BFD00221146501EFFF76CFA15B030BD85
:101EF000134801680122114301604168114A1140F1
:101F000041600168104A1140016001680122920499
:101F10009143016041683F22120491434160C16ACC
:101F200009090901C162016BFF2214329143016367
:101F3000416B4908490041630021816070470000FE
:101F4000001002400CB8FF08FFFFF6FE10B500F0CD
:101F5000A3FE0248FFF76DFD10BD00003001002018
:101F600010B5818CC90707D001684A6801235B045A
:101F70009A43836A1A434A60818C890707D50168AE
:101F80004A6801231B049A43C36A1A434A60818C3E
:101F9000490707D501684A6801239B049A43036BEC
:101FA0001A434A60818C090707D501684A680123F2
:101FB000DB039A43436B1A434A60818CC90607D5F9
:101FC0000268916801231B039943836B1943916055
:101FD000818C890607D501688A6801235B039A43CF
:101FE000C36B1A438A60818C490612D503685A680C
:101FF00001210905046C8A4322435A60026C8A421B
:1020000007D10268516803235B059943436C194368
:102010005160818C090607D501684A680123DB04F9
:10202000806C9A4302434A6010BD0021C1662022A1
:1020300060304272827201720846704710B5406A81
:102040000022014640314A834A82FFF7A7FD10BDB6
:1020500001680A68FF2321339A430A6001688A688D
:10206000520852008A60202160308172704710B59A
:1020700001680A6840239A430A60202269210A54B1
:10208000FFF77BFE002010BD70B5024640320346CC
:102090006033948B9D7A0168222D05D088690822CF
:1020A00010438861022070BD898C01268568360343
:1020B000B54202D10569002D0BD02140446D651C4D
:1020C00045652170518B491E0904090C518307D0C5
:1020D00015E0456D21402980416D891C4165F1E77E
:1020E00001680A68FF242134A2430A6001688A68F3
:1020F000520852008A6020219972FFF73DFE0020AD
:1021000070BD0000F8B504462369A268E6691A4369
:10211000636910213343002026681A43336805465B
:10212000394F3B401343336023685A680326360314
:10213000B243E66832435A60236AA26926681A43AA
:10214000B3680B273F02BB431343B3602F4A126BA4
:102150009207920F06D0012A08D0022A08D0032A3B
:1021600007D101E0002104E0022102E0042100E0A7
:1021700008210122E369D203934224D100290CD023
:1021800002290DD0042913D0082917D001250109EF
:1021900009010007400F084332E0FFF727FA09E082
:1021A00061681B4A48088018FDF79AFF80B2EEE785
:1021B000FFF72CFA616840004A08F4E761680122E1
:1021C00048081204EFE7002908D0022909D00429A1
:1021D0000BD008290ED001252846F8BDFFF706FAD6
:1021E00005E061680B4A480806E0FFF70FFA6168EE
:1021F0004A0801E0616848088018FDF771FF80B265
:102200002168C860E8E70000F369FFFF00100240A2
:102210000024F40000127A006921095C212901D010
:102220000220704702464032518A002912D0012311
:1022300081681B03994202D10169002915D0C16C44
:102240004B1CC364006809780185508A401E508287
:102250000020704701680A6880239A430A6000687A
:102260000168402211430160F2E7C16C03680988EC
:10227000C905C90D1985C16C891CC164E5E7000059
:1022800010B500F007F80248FFF78AFC10BD000007
:1022900098000020704700000FB410B504A9074B48
:1022A00002AA039800F0ECF8044602A9002000F00E
:1022B00083FC204610BC08BC04B01847B92B0008AA
:1022C0002021020C01D010211046020A01D0104634
:1022D0000839020901D01046091F820801D01046B2
:1022E000891E420801D0881E7047081A704702E014
:1022F00008C8121F08C1002AFAD170477047002091
:1023000001E001C1121F002AFBD17047F0B51FB4D4
:1023100086B00998089A030D0021024314D0514851
:10232000514A1818504305141198012810981AD0D2
:10233000281A401C00264D4F4D49009601910490EB
:10234000002812DA444211E01198012449A301281F
:1023500001D11098C1430698119A84600360C2604D
:1023600041600BB0F0BD4042E4E704462105002087
:102370003F4A001C51410391029012E0E00707D050
:1023800032463B4601990098FEF70AF80191009009
:1023900032463B4610461946FEF702F806460F46FF
:1023A0006410002CEAD10498039B0028029A099932
:1023B000089806DAFDF7F4FF019B009AFDF7F0FF9D
:1023C00005E0FEF755F8019B009AFEF751F8044628
:1023D0000E460022284BFEF737F903D80020C043F1
:1023E000014607E00022254B20463146FDF726FF37
:1023F000FEF74EFA102409E0002C0ADB0A22002323
:10240000FEF752F9079B30321A55641E02460A4302
:10241000F2D11122641C079B121B1C19119B012B6A
:1024200003D0012308430ED10AE0084304D0112051
:1024300010900020119077E71098151A6D1E0BE090
:102440001098824202DD00236D1C03E0824201DA13
:1024500000236D1E002BEED0069811998260C1609A
:1024600030C07EE701FCFFFF104D0000000014406B
:102470000000F03F300000000000F0430000E03FAB
:10248000FFB597B00646002518E2252877D100242D
:102490002746FD49049400E00443761C327801206D
:1024A000203A90400842F7D130782A280ED00222F4
:1024B000307801463039092916D804990A2359433E
:1024C000303940181443761C0490F1E7189802C87C
:1024D00004911890002904DA012040030443484283
:1024E000049002200443761C30782E2814D1042056
:1024F00004437078761C2A2809D11898761C80C865
:10250000189009E00A214F43303FC719761C3078F4
:10251000014630390929F5D930786C2810D006DC0D
:102520004C281AD068280ED06A2817D104E07428E5
:1025300013D07A2812D110E00120400504430CE0AA
:102540000121090501E0032109050C43717881424D
:1025500003D1012000052418761C761C30781190D8
:1025600066280BD013DC58287DD009DC00287BD0EE
:102570004528F6D04628F4D047281AD1A5E118E01E
:10258000632835D0642870D0652812D19DE1702869
:102590006CD008DC6728F1D069287BD06E280DD07C
:1025A0006F2806D1BAE073282ED0752871D078280C
:1025B00059D01A9A199990476D1C7EE16002400F1C
:1025C000022809D003280DD00428189801680DD0DE
:1025D0000D60001D189070E11898EA1701680D60F1
:1025E0004A60F6E7189801680D80F2E70D70F0E791
:1025F00018986A4601781172001D189000205072D8
:1026000002A80090012005E0189802C81890002048
:102610000091C04361070DD5002101E00199491CDB
:102620000191B94212DA8142F8DB009A515C00292B
:10263000F4D10BE0002101E00199491C0191814294
:10264000FADB019A0099895C0029F5D10199049877
:102650001A9B471A21463846199A00F097FA0199B1
:10266000401945180BE04FE02CE113E04EE00098D4
:1026700000990078491C00911A9A1999904701987D
:10268000401E0190401CF2D1214638461A9B199AEF
:1026900010E137E00A200021009001916002410F13
:1026A000022907D0189A01CA1892C2179446032922
:1026B00008D00AE01898C01DC108C90005C91891C2
:1026C000944607E000B2C2179446042902D140B2F2
:1026D000C1178C4600226146944506DA0A4600215D
:1026E000404291418C462D2102E0210504D52B2149
:1026F0006A461173012103E0E10701D02021F7E7C9
:10270000029155E00A200AE0102008E01020009015
:102710000021042004430191082703E00820002140
:10272000019100906002410F022907D0189A01CA56
:10273000189200229446032908D008E01898C01D7A
:10274000C108C90005C91891944603E080B2042964
:1027500000D1C0B200210291210729D51199702919
:1027600006D0009A1021019B4A401A4305D00EE082
:1027700040216A461173012108E06146014306D0F9
:1027800030216A4611731199517302210291009A06
:102790000821019B4A401A430AD16146014301D1F5
:1027A000610705D530216A46117301217F1E029110
:1027B0001199582904D035A10E910DA90D910DE064
:1027C00037A1F9E76146019B009AFDF76DFF0E9B6B
:1027D0008C469B5C0D9A521E0D921370614601430C
:1027E000F0D10D9805A9081A20300190600703D593
:1027F00001200004844300E001270198874201DDA5
:10280000381A00E000200199009041180298091838
:102810000498401A0490E00306D421461A9B199AA2
:10282000049800F0B3F94519002706E003A81A9AA6
:10283000C05D199990476D1C7F1C02988742F5DB9B
:10284000E0030CD521461A9B199A049800F09EF9D2
:10285000451904E01A9A3020199990476D1C009987
:10286000481E00900029F5DC08E00D980D990078CD
:10287000491C0D911A9A199990476D1C0199481E8F
:1028800001900029F1DC63E1092801003031323385
:10289000343536373839616263646566000000009C
:1028A0003031323334353637383941424344454686
:1028B0000000000000F05AF94519761C3078002815
:1028C00000D0E2E528461BB0F0BD600700D4062723
:1028D0001898C01DC108C90048680A680831C30FAC
:1028E000DB071891190001D09CA108E0210501D552
:1028F0009BA104E0E10701D09AA100E09AA1430066
:1029000011985B08109165280CD006DC452809D089
:1029100046281DD0472841D141E0662818D06728B5
:102920003CD13CE00021112F01DB112000E0781C9C
:102930000191009008A911A8FFF7E8FC13990591EF
:102940000021119A15927F1C12980197009150E076
:102950000120C00703900120019008A9009711A849
:10296000FFF7D4FC139A149905920022119B009250
:1029700012981593059A0192002901D0104602E0A1
:10298000791C40180190381A01D5019804E04042A2
:10299000401E0090781C0190C01B029043E0012F64
:1029A00000DA01270021112F01DD112000E0384657
:1029B0000191009008A911A8FFF7A8FC13990591AF
:1029C000119A0021129815920091019721070CD4B9
:1029D0000599B94201DB019900E00191012904DD6B
:1029E000159A491E515C302906D0B84201DA011D02
:1029F00005DA0121029115E00199491EEDE7002851
:102A000005DC0099411800910199091A03E0019A27
:102A1000411C914200DD01910099401A401C029036
:102A20000120C0070390200706D402990198814233
:102A300002DB0020C043029000206946C87707AF40
:102A4000012103980337C907884224D0022011903E
:102A50002B201290039800280CDA404203902D207E
:102A6000129007E00A210398FDF73AFB30317F1EF0
:102A7000039039701199481E11900029F2DC0398D7
:102A80000028EFD1791E1298087030782021084074
:102A90004530BF1E387006A8C01BC01D039010989B
:102AA0000078002800D00120019941180298C01731
:102AB0000918039809180498401A401E0490E0036E
:102AC00006D421461A9B199A049800F05FF845191C
:102AD00010980078002803D01A9A199990476D1C15
:102AE000E00324D521461A9B199A049800F04EF869
:102AF00045191CE00098002807DB009905988842DA
:102B000003DD1598405C199901E0199930201A9A53
:102B1000904700986D1C401C00900298401E029047
:102B2000002804D11A9A2E20199990476D1C0199FA
:102B3000481E01900029DDDC05E038781A9A7F1CD8
:102B4000199990476D1C0399481E03900029F4DCE5
:102B500021461A9B199A0498ACE600002D0000004B
:102B60002B0000002000000000000000F8B5044623
:102B700000251E461746880404D405E03946202067
:102B8000B0476D1C641EF9D52846F8BDFFB5044654
:102B9000002581B01E46C80301D5302700E020275C
:102BA000880404D505E038460399B0476D1C641EBF
:102BB000F9D5284605B0F0BD0A68531C0B601070AB
:102BC0007047000010B50F480D49016000214160B9
:102BD000816002220261C160082281614261C1619B
:102BE00041620122FF23C162C233026283624263F7
:102BF0000163FEF7B5F8034907204C31886010BD2A
:102C00000024014040000020002203E00221491C72
:102C10000329FCD31146521C8142F7D370470000B0
:102C2000F8B515461C4606460F46FDF751FE000F47
:102C300002280BD0002D01D0012000E0002020430D
:102C4000400005494008081AC00F02D030463946F6
:102C5000F8BD28462146F8BD0000F07FF8B51546BE
:102C60001C4606460F46FDF733FE000F08280BD022
:102C7000002D01D0012000E0002020434000054944
:102C80004008081AC00F02D030463946F8BD284621
:102C90002146F8BD0000F07F704700001CB5FEF72C
:102CA00049FBFFF7E9F8FFF76BF8FFF79DF8FFF72F
:102CB00089FF284931200881274D284E284CFDF7EF
:102CC000E7FEE369A269FDF7B9FAE161A061206856
:102CD000401C206000F088F8FDF760FC6161002274
:102CE0002B462061FDF7B0FC03D21B490020616137
:102CF00020610022334661692069FDF791FC0AD208
:102D00000022184B61692069FDF79EFC03D213492C
:102D100000206161206120680A28D0D10022124B76
:102D2000E169A069FDF7A4FB104A114BFDF738FBE0
:102D3000636922690193009202460B460DA1114876
:102D4000FFF7AAFA0F4800F09FF80020A061E061A9
:102D50002060B4E72038014000C06C4000A069400A
:102D6000080000200080664000002440CDCCCCCC80
:102D7000CCCCEC3F25322E3266202025332E336614
:102D80000A0000000801002010B51448002101606D
:102D9000022141604C38FDF78FFF10484C38FDF799
:102DA000DFFF0E4908464C38FDF7FEFE0B484C3855
:102DB000FEF724F909480A494C38FEF7BFF8002805
:102DC000084803D0FEF748F9002010BDFDF7C4FF06
:102DD000FDF7DCFBFDF7F6FB10BD00008C000020CA
:102DE00040420F004000002010B51F49012008603C
:102DF000486008464C38FDF75FFF1B484C38FDF72C
:102E0000AFFF194908464C38FDF7CEFE16484C383E
:102E1000FEF7F4F8144815494C38FEF78FF80028EF
:102E2000134803D0FEF718F9002010BDFDF794FFFA
:102E3000FDF7ACFBFDF7DFFB0E4A0F4BFDF7B0FAD9
:102E4000FDF716FC0D49FDF772F9FDF7D4FB0C4AAE
:102E50000C4BFDF7A5FAFDF70BFC0B21C943FDF761
:102E6000E1F9FDF7AFFB10BD8C00002040420F00E0
:102E700040000020ABAAAAAAAAAA1E400000204136
:102E800052B81E85EB510A4070B50446054D04E06A
:102E900028810220641CFEF722F920780028F7D14F
:102EA00070BD00002038014000000000000000005C
:102EB00001020304060708090000000001020304E0
:102EC000E02E00080000002040000000EE22000874
:102ED000202F00084000002030050000FE220008DE
:102EE00000127A0000000000000000000000000056
:102EF0000000000000289E400000000000000000CC
:102F00000000000000000000000000000040BFC002
:102F1000000000000040BF40000000000000000072
:04000005080000B13E
:00000001FF
