:020000040800F2
:100000001815002021040008250400082704000812
:10001000290400082B0400082D040008000000003B
:100020000000000000000000000000002F04000895
:100030003104000800000000330400083504000803
:1000400037040008370400083704000837040008A4
:100050003704000837040008370400083704000894
:100060003704000837040008370400083704000884
:100070003704000837040008370400083704000874
:100080003704000837040008370400083704000864
:100090003704000837040008370400083704000854
:1000A0003704000837040008370400083704000844
:1000B0003704000837040008370400083704000834
:1000C0003704000837040008370400083704000824
:1000D000370400085D04000837040008AD04000878
:1000E00037040008370400083704000800F002F85D
:1000F00000F055F80AA090E8000C82448344AAF16D
:100100000107DA4501D100F04AF8AFF2090EBAE86A
:100110000F0013F0010F18BFFB1A43F0010318473B
:100120005466000074660000103A24BF78C878C195
:10013000FAD8520724BF30C830C144BF04680C60ED
:10014000704700000023002400250026103A28BF35
:1001500078C1FBD8520728BF30C148BF0B60704739
:10016000662905F01E87642902F03887782902F095
:100170007187002070471FB505F007FF03F064FE8C
:1001800004000020002105F005FC401C60600020F8
:10019000002105F0E9FBE0601FBD10B510BD04F0C3
:1001A0001BF91146FFF7E7FF00F0FAFA04F07AFBBB
:1001B00003B4FFF7F2FF03BC04F0A0FB854880699D
:1001C00040F00100834988618348406820F00400C2
:1001D000814948607F48806940F004007D4988611A
:1001E0007E48006820F47F607C490860084600680B
:1001F00040F0B00008600846006840F48060086085
:100200007448806940F480407249886140F27120EE
:10021000734908804FF0000001F10401088001F1EA
:1002200004010880A1F104000088A1F10401088004
:100230004FF000006B4908806B48008840F00C00CC
:10024000694908800846008840F02000088001F1D4
:100250000400008801F104010880624800886149B7
:1002600008806248006840F020004FF0E021C1F8AB
:1002700004015D48008840F400505B4908805548FF
:10028000806940F00100534988615348406820F07C
:100290003000514948604F48806940F008004D499E
:1002A00088615348006820F47F405149086008463F
:1002B000006840F4306008600846006840F4804000
:1002C00008604448C06940F480204249C8614FF446
:1002D0009C70484908804FF0000001F1040108803B
:1002E00001F104010880A1F104000088A1F10401DA
:1002F00008804FF00000404908804048008840F0E6
:100300000C003E4908800846008840F02000088024
:1003100001F10400008801F10401088036480088DA
:10032000354908804FF0E020D0F8040140F080000B
:100330004FF0E021C1F804013048008840F400503B
:100340002E490880704710B500BF4FF012002C49AD
:10035000086000BF00BF2B481E4948602A4808605B
:1003600000BF00BF1B48006810F4003FFAD000BF78
:100370001848006810F0007FFAD000BF15484068A8
:1003800000F00C000828F9D100BF00BF11488069B7
:1003900040F004000F4988614FF040001B4908609D
:1003A0001B480E4908600B48806940F00800094965
:1003B00088614FF04000174908604FF000000C4979
:1003C000086000BFFFF7FAFE10BD134870471348DE
:1003D0007047000000100240000001400408014086
:1003E00008380140143801400C38014004E100E0B5
:1003F000040C014008480040144800400C480040EC
:100400000020024002841D0082000101000801401A
:1004100004404400000C01400051250200A24A049F
:1004200008480047FEE7FEE7FEE7FEE7FEE7FEE7D7
:10043000FEE7FEE7FEE7FEE703480449044A054BF2
:1004400070470000ED00000818110020181500206A
:1004500018130020181300200020704710B500F07A
:1004600083FCC4B2D348D44909684454D2480068D4
:1004700000F10100D04908604FF00000CD49CE4A9C
:10048000126888540A2C08D1084602F018FD4FF073
:100490000000C9490860C7490870C7480068282893
:1004A00003DD4FF00000C449086010BD70B500F0D6
:1004B00089FCC6B2C148C24909684654C0480068B0
:1004C00000F10100BE4908604FF00000BB49BC4A82
:1004D000126888540A2E1CD1084600F08BFCB94BD8
:1004E000B94ABAA1B54802F06BFEB748006805F0FA
:1004F00059FC0446B74AB84B05F0E4FA03D24FF072
:100500000000B14908604FF00000AC490870AC49E8
:10051000086070BD2DE9F8430646B04801680068E0
:1005200000F10100AD4A1060B14263D9002001F032
:1005300088F8AB4802F002F9A94800780090A84872
:1005400043788278A7A1AC4802F00AFDAB48AC4BD7
:10055000A94A05210090012001F098FD9A48006801
:1005600005F020FC044622460B46A6A1A24802F054
:10057000F7FCA248A24BA04A14210090012001F0F0
:1005800085FD9048006805F00DFC044622460B46A8
:100590009EA1994802F0E4FC9848994B964A232181
:1005A0000090012001F072FD8748016885480068CD
:1005B00005F024FC814605F0F5FB0446954A964B70
:1005C00005F0BCFA07463A460B4694A18A4802F069
:1005D000C7FC8A488A4B884A32210090012001F0EA
:1005E00055FD01F012F84FF000007C4908608DA025
:1005F00000F000FCBDE8F883704770477047704713
:100600007047704710B589480068C0F30800A0F52E
:100610008071FF3905D10846854908708549086011
:1006200010BD8348007820BB4FF00100804908705E
:100630004FF00A0000F0DBFA7C480068C0F3C020ED
:1006400008B9FFF7DCFF79480068C0F3002008B95B
:10065000FFF7D6FF75480068C0F3003008B9FFF710
:10066000D0FF72480068C0F3403008B9FFF7C6FFFA
:10067000D6E77048006800F101006E49086008463E
:100680000068012800DACBE74FF0000068490870E5
:100690006849086000BFC3E710B5044666A000F0D3
:1006A000A9FB10BD10B5044665A000F0A3FB10BD6A
:1006B00010B5044665A000F09DFB10BD10B50446C2
:1006C00068A000F097FB10BD10B5044668A000F0CC
:1006D00091FB10BD10B5044668A000F08BFB10BD67
:1006E00010B5044668A000F085FB10BD10B50446A7
:1006F00068A000F07FFB10BD10B5044669A000F0B3
:1007000079FB10BD10B504466AA000F073FB10BD64
:1007100010B504466CA000F06DFB10BD10B504468A
:100720006EA000F067FB10BD10B5044670A000F08D
:1007300061FB10BDF8B506464FF00000009004467E
:100740004FF0FF356DA000F055FB00BF14E0694687
:10075000A0B202F082FB18B96BA000F04BFBF8BD11
:10076000E9B29DF8000000F081FD05469DF800000B
:1007700000F0EEFA04F10104B4F5805FE7DBB4F5B4
:10078000805F08D12A4663A11B4802F0E9FB1A48A2
:1007900000F030FB02E061A000F02CFB00BFDEE7C0
:1007A000FFF7D1FD02F061F95EA000F023FB00BF6E
:1007B000FEE700004800002000000020700000203C
:1007C000040000200C0000200800002025662025E1
:1007D000660000009A9999999999B93F10000020F4
:1007E000A200002054696D65202532643A253264E8
:1007F0003A2532640000000084000020A860000850
:100800005E640008493D25322E326600563D253390
:100810002E326600CDCCCCCCCCCCEC3F503D253339
:100820002E326600746573740A00000008080140E7
:10083000140000201800002070696E670A00000094
:10084000476574496E666F0A000000004765744F83
:100850006E6C696E65506172616D65746572730A64
:1008600000000000476574446174650A00000000E0
:10087000536574446174650A000000004765745450
:10088000696D650A0000000053657454696D650A5E
:1008900000000000476574506561636B54696D65C5
:1008A0000A0000005365745065616B54696D650AF8
:1008B00000000000476574436F6E73756D6550618D
:1008C000747465726E0A0000536574436F6E7375BD
:1008D0006D655061747465726E0A00004765744CF2
:1008E00065644261724C6576656C730A00000000B5
:1008F000736574206261720A0000000072656164B1
:10090000206D656D0A000000526561644572726F6A
:10091000720A00004F4B2025580000006572726F6C
:100920007200000068656C6C6F0A000008B5012158
:10093000082004F05BFD4FF010008DF803004FF429
:100940000050ADF800004FF003008DF8020069463A
:10095000B54804F0E9FB08BD08B50121082004F002
:1009600045FD4FF010008DF8030044F20300ADF890
:1009700000004FF003008DF802006946AA4804F019
:10098000D3FB08BD10B5A94B1B6823F00103A74C8E
:10099000236023461B6823F00203236023461B6861
:1009A00023F48043236023461B6800F0010443EADC
:1009B00004039E4C236023461B6801F0010443EAB4
:1009C00044039A4C236023461B6802F0010443EA67
:1009D0008433964C236010BDF0B504460D46164690
:1009E0001F4693480168006800F10100904A1060BA
:1009F000B94223D94FF00000114608608D4B1B7897
:100A00009E4201DD012300E000231A46894B1B783A
:100A10009D4201DD012300E000231946854B1B7830
:100A20009C4201DD012300E000231846FFF7AAFFE6
:100A30008048007800F101007E490870F0BD30B5B3
:100A400087B04FF4AF652C464FF001014FF0040022
:100A500004F0B4FC4FF4E150ADF814004FF0000086
:100A6000ADF81000ADF81600ADF8120004A97248F8
:100A700004F076FE4FF06000ADF800004FF001008A
:100A8000ADF80200ADF806504FF00000ADF80800D8
:100A90006946694804F048FD0821674804F074FD80
:100AA0004FF00100ADF80200ADF80640694662481B
:100AB00004F070FD0821604804F0AAFD01215E48A1
:100AC00004F014FD01215C4804F01BFD07B030BDAB
:100AD00010B588B04FF4AF644FF001014FF0020041
:100AE00004F06CFC4FF01D008DF800004FF000008A
:100AF0008DF801004FF001008DF802008DF8030021
:100B0000684604F020FC4FF4E150ADF818004FF0B7
:100B10000000ADF81400ADF81A00ADF81400ADF8FF
:100B2000160005A9454804F01BFE4FF06000ADF823
:100B300004004FF00100ADF80600ADF80A404FF098
:100B40000000ADF80C0001A93C4804F069FD082143
:100B50003A4804F0A1FD0121384804F0D2FC08B065
:100B600010BD1FB50121084604F028FC4FF01C0001
:100B70008DF80C004FF000008DF80D004FF00100D3
:100B80008DF80E008DF80F0003A804F0DCFB4FF089
:100B90000400ADF800004FF00000ADF802004FF087
:100BA0000100ADF804004FF00C00ADF806004FF066
:100BB0000000ADF8080069464FF0804004F072FD77
:100BC00060214FF0804004F0A3FD0421080704F0E9
:100BD000ADFD8021C80504F0A1FD0121880704F0C6
:100BE00090FC01220421080704F096FC1FBD70B59B
:100BF00004460E48006840F400500C490860254641
:100C000004EBD5714FEA610000F0DCF90748006899
:100C100020F400500549086004EBD5714FEA6100EB
:100C200000F0D0F970BD0000000C01400C0C014038
:100C300020000020240000200008004000040040A4
:100C40000146CE480088C2B20A70CC4800884FEAFC
:100C500020224A70CA480088C2B28A70C8480088F8
:100C60004FEA2022CA70C7480068C2B20A71C5485C
:100C70000068C0F307224A71C2480068C0F3074207
:100C80008A71C04800684FEA1062CA71BE480068A5
:100C9000C2B20A72BC480068C0F307224A72BA485E
:100CA0000068C0F307428A72B74800684FEA1060D4
:100CB0000246CA72704730B502460B464FF000013B
:100CC00009E05D5C505C4C1C6040854201D0002016
:100CD00030BD01F101010C29F3DB0120F8E7AB483D
:100CE000806940F00100A9498861A948406820F066
:100CF0004070A74948600846406840F080604860FE
:100D0000704730B5A34A4FF00004002805DAC0F15F
:100D100000004FF02D0501F8015B00BFB0FBF2F5BC
:100D2000EBB213B90CB9012A05D103F1300501F872
:100D3000015B4FF00104B0FBF2F502FB15004FF030
:100D40000A05B2FBF5F2002AE8D115460D7030BD58
:100D5000014600BF9048008810F0800FFAD0C8B25A
:100D60008D4A121D1080704700BF8B48008810F01C
:100D7000200FFAD08848001D0088C0F30800704793
:100D800001460A2909D100BF8448008810F0800F6D
:100D9000FAD04FF00D00824A108000BF7F480088D3
:100DA00010F0800FFAD0C8B27D4A1080704700BFA3
:100DB0007A48008810F0200FFAD079480088C0F3F4
:100DC0000800704700BF7748008810F0200FFAD065
:100DD0007448001D0088C0F30800704710B5034632
:100DE00004E013F8014B2046FFF7B2FF1878002803
:100DF000F7D110BD10B5034604E013F8014B2046AF
:100E0000FFF7A6FF18780028F7D110BD10B50346EC
:100E100004E013F8014B2046FFF7B2FF18780028D2
:100E2000F7D110BD00BF5C49098811F0800FFAD0DE
:100E30005949091D0880704730B502460B464FF0EE
:100E4000000506E012F8014B2046FFF7EBFF05F125
:100E500001059D42F6DB30BD10B5034604E013F8F2
:100E6000014B2046FFF78CFF18780028F7D110BD02
:100E700070B5A0B0064641480088C4B28DF8644001
:100E80003E4800884FEA20248DF865403C480088A1
:100E9000C4B28DF866403A4800884FEA20248DF8A5
:100EA000674038480068C4B28DF86840354800682B
:100EB000C0F307248DF8694032480068C0F3074446
:100EC0008DF86A402F4800684FEA10648DF86B4037
:100ED0002D480068C4B28DF86C402B480068C0F300
:100EE00007248DF86D4028480068C0F307448DF84A
:100EF0006E40254800684FEA10648DF86F404FF04F
:100F000000008DF8700028A0FFF768FF4FF0000583
:100F100017E019A9485D1DA9FFF7F3FE1DA8FFF70B
:100F200069FF1DA9684602F02BFA0B2D06DA23A0F3
:100F3000FFF754FF21A1684602F022FA05F10100F3
:100F4000C5B20C2DE5DB1EA0FFF748FF3146684611
:100F500002F022FA10B9012020B070BD0020FBE79A
:100F600002464FF0000000BF04E04FF000031354AE
:100F700000F101008842F8DB70470000E8F7FF1F2E
:100F8000EAF7FF1FECF7FF1FF0F7FF1F001002400A
:100F90000000014000CA9A3B003801400044004074
:100FA00004440040004800400A556E697175652090
:100FB000646576696365204944203A002C0000008E
:100FC0000A2D3E0010B54FF00002114608E04FF028
:100FD000000101E001F1010142F228339942F9D305
:100FE0001346521C8342F2D310BD10B54FF00002DD
:100FF000114606E04FF0000101E001F1010109296D
:10100000FBD31346521C8342F4D310BD30B54FF0CE
:10101000000023E04FF000014FEA00644FEA144360
:101020000A4614E081EA030414F4004F05D041F2AB
:10103000210484EA4104A1B203E04FEA41444FEAAB
:1010400014414FEA43444FEA144302F10102082AD3
:10105000E8DB914C24F8101000F10100FF28D9DDE5
:101060004FF001048D4D2C6030BD2DE9F041044658
:101070000D462F468948006808B9FFF7C7FF87EA81
:101080002426854830F8160080EA042084B22046E1
:10109000BDE8F08130B50B464FEA022410F4004F52
:1010A00005D048F2050585EA4005A8B203E04FEAFD
:1010B00040454FEA154000BF43EA040585EA0000B9
:1010C00030BD30B54FF000001BE04FF0000183B29F
:1010D0000A460FE081EA030414F0010F04D04AF23B
:1010E000010484EA610101E04FEA61014FEA630310
:1010F00002F10102082AEDDB694C24F8101000F11E
:101100000100FF28E1DD4FF00104664D2C6030BD89
:101110002DE9F04104460D462F466248006808B9A3
:10112000FFF7CFFF84EA0706F0B25D4931F81000FF
:1011300080EA24242046BDE8F08130B54FF000005D
:101140001BE04FF0000183B20A460FE081EA03047E
:1011500014F0010F04D048F2084484EA610101E070
:101160004FEA61014FEA630302F10102082AEDDB55
:101170004D4C24F8101000F10100FF28E1DD4FF084
:1011800001044A4D2C6030BD2DE9F04104460D4666
:101190002F464648006808B9FFF7CFFF84EA0706E4
:1011A000F0B2414931F8100080EA24242046BDE81D
:1011B000F08130B54FF000001BE04FF0000183B22A
:1011C0000A460FE081EA030414F0010F04D04AF24A
:1011D000BC6484EA610101E04FEA61014FEA630304
:1011E00002F10102082AEDDB314C24F8101000F165
:1011F0000100FF28E1DD4FF001042E4D2C6030BDD1
:101200002DE9F04104460D462F462A48006808B9EA
:10121000FFF7CFFF84EA0706F0B2254931F8100046
:1012200080EA24242046BDE8F08110B54FF000008C
:1012300015E001464FF000020AE011F0010F03D063
:101240001D4B83EA510101E04FEA510102F1010215
:10125000082AF2DB194B43F8201000F10100FF28A7
:10126000E7DD4FF00103164C236010BD2DE9F0417E
:1012700004460D462F461248006808B9FFF7D5FF0F
:1012800084EA0706F0B20D4951F8200080EA1424E0
:101290002046BDE8F0810000B806002030000020A4
:1012A000B800002028000020B80A002038000020E4
:1012B000B8080020340000202083B8EDB8020020D8
:1012C0002C00002001464FF000004FF0800013E09A
:1012D000014204D04FF48072FA4B1A6003E04FF0E1
:1012E0008072F84B1A604FF40072F64B1A604FF0A0
:1012F00000721A604FEA60000028E9D1704770B5AB
:1013000005460E464FF0000404E0285DFFF7DAFFC3
:1013100004F10104B442F8DB70BD10B504464FF48B
:101320008010E84908602046FFF7CCFF10BD30B5BB
:1013300005460C464FF48010E24908602846FFF746
:10134000C1FF2046FFF7BEFF30BD08B501210420D4
:1013500004F04CF84FF010008DF803004FF480407B
:10136000ADF800004FF003008DF802006946D64842
:1013700003F0DAFE4FF48040D44908604FF01000CB
:101380008DF80300ADF800004FF003008DF8020067
:101390006946CF4803F0C8FE4FF48010C949086081
:1013A0004FF010008DF803004FF02000ADF8000062
:1013B0004FF003008DF802006946C54803F0B4FE03
:1013C0004FF48010BF4908604FF010008DF8030003
:1013D0004FF48070ADF800004FF003008DF802006C
:1013E0006946BB4803F0A0FE4FF010008DF80300E3
:1013F0004FF40070ADF800004FF003008DF80200CC
:101400006946B34803F090FE08BD00B54FF4804034
:10141000AE4908604FF40010AA4908604FF0200060
:1014200008604FF08040A94908604FF03F014FF03D
:10143000A800FFF77CFF0021D320FFF778FF4020B2
:10144000FFF76BFFA020FFF768FFC020FFF765FFE5
:101450001221DA20FFF76BFF3021DB20FFF767FF57
:101460007F218120FFF763FFA420FFF756FFA6200E
:10147000FFF753FFF021D520FFF759FF14218D20EE
:10148000FFF755FFAF20FFF748FF00212020FFF7AF
:101490004EFF4FF480408D49086000BD10B50446F2
:1014A0004FF080408949086021464FF08100FFF7E6
:1014B0003EFF4FF480408549086010BD10B50446DA
:1014C0004FF08040814908600CB1A52100E0A421C3
:1014D0000846FFF722FF4FF480407C49086010BDAA
:1014E00010B504464FF08040784908600CB1A72140
:1014F00000E0A6210846FFF710FF4FF48040734933
:10150000086010BD10B504464FF080406F49086078
:101510000CB1AF2100E0AE210846FFF7FEFE4FF40C
:1015200080406A49086010BD10B504464FF0804005
:10153000664908600CB1A12100E0A0210846FFF730
:10154000ECFE4FF480406149086010BD10B50446C0
:101550004FF080405D4908600CB1C82100E0C02117
:101560000846FFF7DAFE4FF480405849086010BD86
:1015700010B50446012C04D0022C12D0032C30D11B
:101580001FE04FF04000534908804FF0800052495F
:1015900008804FF00100FFF7C7FF0020FFF7D6FFDC
:1015A0002FE04FF040004B4908804FF080004A493F
:1015B00008804FF00000FFF7B7FF0120FFF7C6FFDC
:1015C0001FE04FF08000434908804FF0400042493F
:1015D00008804FF00000FFF7A7FF0020FFF7B6FFDD
:1015E0000FE04FF080003B4908804FF040003A493F
:1015F00008804FF00100FFF797FF0120FFF7A6FFDB
:1016000000BF00BF3548047010BD00B54FF08040EA
:101610002E4908604FF006013148FFF770FE4FF089
:101620001000284908604FF480612E48FFF767FEDC
:101630004FF48010234908604FF48040234908602C
:1016400000BD4FF4806101E0264A50540A00A1F128
:10165000010399B2F8D17047F0B504460D4616461D
:101660001F464FF08040194908600CB9262100E060
:1016700027210846FFF751FE0020FFF74EFE2846BF
:10168000FFF74BFE3846FFF748FE3046FFF745FEB2
:101690000020FFF742FEFF20FFF73FFE4FF480409F
:1016A0000A490860F0BD2DE9F04104460D46164692
:1016B0001F46DDF818804FF08040044908609CB94F
:1016C000292112E0100C01400008014010080140DF
:1016D000000C01403C0000203E00002041000020A2
:1016E00095640008B80C00202A210846FFF715FE73
:1016F0000020FFF712FE2846FFF70FFE3846FFF7DF
:101700000CFE3046FFF709FE4046FFF706FE4FF499
:101710008040F8490860BDE8F08100B54FF0804096
:10172000F44908604FF02F00FFF7F7FD4FF48040B9
:10173000F049086000BD00B54FF08040ED490860F9
:101740004FF02E00FFF7E9FD4FF48040E9490860B3
:1017500000BD70B503460C46E74D2D78012D03D032
:10176000E54D2D78022D06D14FEAE30504EBC510B7
:1017700003F0070105E04FEAE40503EBC51004F0B0
:101780000701B0F5806F00D970BD012A02D0022A8E
:1017900017D10AE0D94D2D5C4FF0010606FA01F68B
:1017A00025EA0605D54E355416E0D44D2E5C4FF093
:1017B000010505FA01F586EA0506F5B2CF4E355466
:1017C0000AE0CE4D2D5C4FF0010606FA01F645EA1F
:1017D0000605CA4E355400BF00BF00BFD4E770B540
:1017E00004460B464FEAE305C44E06EBC51505EB70
:1017F000040003F007064FF0010505FA06F5E9B20B
:10180000BF4D2D78012D02D0022D1BD10EE06FEAC5
:101810000105E9B204E0057805EA010500F8015B7D
:101820001500A2F10106F2B2F5D117E004E0057847
:1018300085EA010500F8015B1500A2F10106F2B28C
:10184000F5D10BE004E0057845EA010500F8015BFD
:101850001500A2F10106F2B2F5D100BF00BF70BDC4
:10186000F0B505460C464FEAE406A44F07EBC61652
:1018700006EB050004F007036BB3C3F10806F3B2EF
:10188000A04EF15C934207DDA3EB02074FF0FF0689
:1018900046FA07F606EA0101994E3678012E02D083
:1018A000022E0AD104E0067826EA0106067009E055
:1018B000067886EA0106067004E0067846EA010624
:1018C000067000BF00BF934200DDF0BD00F1800054
:1018D000A2EB0306F2B2072A2CDD894E3678012EE0
:1018E00002D0022E19D10BE000BF4FF000060670A7
:1018F00000F18000A2F10806F2B2072AF5DC18E038
:1019000000BF06786FEA0606067000F18000A2F1BB
:101910000806F2B2072AF4DC0BE000BF4FF0FF0626
:10192000067000F18000A2F10806F2B2072AF5DC89
:1019300000BF00BFD2B102F00703734EF15C704EDE
:101940003678012E02D0022E0AD104E0067826EA6B
:101950000106067009E0067886EA0106067004E0D2
:10196000067846EA0106067000BF00BF00BFACE77C
:101970002DE9F04105460E469046B54204DD344659
:10198000A5EB0600C7B203E02C46A6EB0500C7B2E4
:1019900007F10100C7B258480078012803D0564823
:1019A0000078022805D13A4621464046FFF758FF05
:1019B00004E03A4641462046FFF711FFBDE8F081BA
:1019C0002DE9F04180460D461646B54204DD344609
:1019D000A5EB0600C7B203E02C46A6EB0500C7B294
:1019E00007F10100C7B244480078012803D04248FB
:1019F0000078022805D13A4641462046FFF7EFFE1F
:101A000004E03A4621464046FFF72AFFBDE8F08150
:101A10002DE9F05F05460E46174698463648007891
:101A2000012803D034480078022814D1BD4205DDD6
:101A30003C46A5EB040000F0FF0A04E02C46A7EBAF
:101A4000040000F0FF0A464502DDB146C34616E039
:101A5000C146B34613E0464505DD4446A6EB040007
:101A600000F0FF0A04E03446A8EB040000F0FF0A8F
:101A7000BD4202DDA946BB4601E0B946AB460AF1CC
:101A8000010000F0FF0A00BF524621464846FFF71A
:101A9000E7FE4846411E01F0FF095845F4DCBDE869
:101AA000F09F2DE9FF4F83B004460D469346ABEB04
:101AB000040007B20698A0EB05000FFA80F8002F8B
:101AC00002DD4FF0010001E04FF0FF300290B8F16D
:101AD000000F02DD4FF0010001E04FF0FF300190F8
:101AE000A7B90698C2B2E9B2E0B2FFF769FF07B042
:101AF000BDE8F08F1008014041000020B80C002024
:101B0000400000209B640008A3640008B8F1000FA7
:101B100006D1EAB20BF0FF01E0B2FFF729FFE6E7DA
:101B20000298784307B2019808FB00F00FFA80F89A
:101B30004FEA47000FFA80F94FEA48000FFA80FA9F
:101B400047451CDBAAEB070006B215E0F84802780F
:101B5000E9B2E0B2FFF7FDFD0298204404B2002E86
:101B600003DA06EB0A0006B206E0AAEB09003044ED
:101B700006B20198284405B25C45E7D11CE0A9EB08
:101B8000080006B215E0EA480278E9B2E0B2FFF7D1
:101B9000E0FD0198284405B2002E03DA06EB0900A7
:101BA00006B206E0A9EB0A00304406B202982044CF
:101BB00004B206988542E6D1DD480278E9B2E0B287
:101BC000FFF7C7FD00BF92E72DE9FC4F05460C4625
:101BD0009046C8F1010A4FF0000001904FEA48001A
:101BE000C0F1000000904FF000064746D148008841
:101BF000A0F101000FFA80F9CF480088A0F10100A0
:101C00000FFA80FB7BE0BAF1000F0BDB009800F1CC
:101C1000020000B20090009850440FFA80FAA7F139
:101C2000010007B2019800F1020000B20190019892
:101C300000F1010050440FFA80FA06F1010006B2EB
:101C400005EB0600584514DAE019484507DAE219B1
:101C5000D1B2AA19D0B2B64A1278FFF77AFDE01BCA
:101C600007D4E21BD1B2AA19D0B2B14A1278FFF759
:101C700070FDA81B14D4E019484507DAE219D1B267
:101C8000AA1BD0B2AA4A1278FFF763FDE01B07D463
:101C9000E21BD1B2AA1BD0B2A54A1278FFF759FDB8
:101CA000E819584514DAA019484507DAA219D1B243
:101CB000EA19D0B29E4A1278FFF74BFDA01B07D459
:101CC000A21BD1B2EA19D0B2994A1278FFF741FDAE
:101CD000E81B14D4A019484507DAA219D1B2EA1BAF
:101CE000D0B2934A1278FFF734FDA01B07D4A21B91
:101CF000D1B2EA1BD0B28E4A1278FFF72AFDBE425B
:101D000081DB05EB0800584507DA05EB0801C8B28E
:101D100087490A78E1B2FFF71CFDB5EB080007D44C
:101D2000A5EB0801C8B282490A78E1B2FFF711FDBC
:101D300004EB0800484507DA04EB0800C1B27C4810
:101D40000278E8B2FFF705FDB4EB080007D4A4EB76
:101D50000800C1B276480278E8B2FFF7FAFCBDE8A5
:101D6000FC8F2DE9FF4F89B006460F469B464FF08A
:101D700000050FFA8BF40B9800FB00F80BFB0BFA35
:101D80000B9800F0010000EBA8005044C0F10000E7
:101D900008900BF0010000EBAA004044C0F10000E5
:101DA00007900BF0010000EBAA00C0F100000690C4
:101DB000C8F1000000FB04F90AFB05F04FEA4000FF
:101DC0000590C8F1000000FB04F04FEA40000490C9
:101DD0004FEA4A0003904FEA4800029055480088B5
:101DE000A0F1010000B2019053480088A0F1010069
:101DF00000B2009070E07119009881420BDA391935
:101E00000198814207DA3A19D1B27219D0B2484A20
:101E10001278FFF79EFC05B95CB1701B09D4381B22
:101E200007D43A1BD1B2721BD0B2414A1278FFF7E5
:101E300090FCE5B1DCB171190098814209DA381BD8
:101E400007D43A1BD1B27219D0B2394A1278FFF7CF
:101E500080FC701B0BD439190198814207DA3A19BA
:101E6000D1B2721BD0B2324A1278FFF772FC05FB76
:101E70000A910898814204DD04FB0891069881428A
:101E800009DC03990598084405900598814405F1FB
:101E9000010005B220E004FB18910798814209DD9A
:101EA000029904980844049004988144A4F1010024
:101EB00004B211E00399059808440590029904982A
:101EC00008440490059881440498814405F1010078
:101ED00005B2A4F1010004B2002C02DB0B9885428C
:101EE00089DD0DB0BDE8F08F2DE9FF4F81468A46B0
:101EF0001C4621790298814203DC61790298814273
:101F000001DAA079029021790298A0EB0101A27870
:101F10000D9801FB0208E07800285CD16078092860
:101F200024DA4E461DE0574618F8015B14E0000025
:101F3000400000203E0000203C00002015F0010F72
:101F400005D0FE48027839463046FFF702FC4FEADA
:101F5000650507F10100C7B2002DEFD106F10100C0
:101F6000C6B220784844B042DDDC89E04E462DE020
:101F7000574624E04FF0080B18F8015BE5B117E075
:101F800015F0010F05D0ED48027839463046FFF7CD
:101F9000E0FB4FEA65053DB107F10100C7B2ABF1C7
:101FA000010000F0FF0B03E007EB0B00C7B202E0FB
:101FB000BBF1000FE4D102E007EB0B00C7B2607881
:101FC0005044B842D6DC06F10100C6B2207848443D
:101FD000B042CDDC54E0207809281DDA574616E0DF
:101FE0004E4618F8015B0DE015F0010F05D0D348FF
:101FF000027839463046FFF7ACFB4FEA650506F13B
:102000000100C6B2002DEFD107F10100C7B2607820
:102010005044B842E4DC33E057462DE04E4624E01D
:102020004FF0080B18F8015BE5B117E015F0010F50
:1020300005D0C248027839463046FFF78AFB4FEA9E
:1020400065053DB106F10100C6B2ABF1010000F03B
:10205000FF0B03E006EB0B00C6B202E0BBF1000F82
:10206000E4D102E006EB0B00C6B220784844B0424F
:10207000D6DC07F10100C7B260785044B842CDDC2D
:102080002078401CC0B204B0BDE8F08F2DE9F847BD
:102090000646884614461F46DDF8249035463878B3
:1020A000A7490988A1EB0000A0F1010000F0FF0A98
:1020B0000DE0CDF8009014F8012B3B464146284630
:1020C000FFF712FF2844C5B2554500DD02E0207835
:1020D0000028EED100BFA81B80B2BDE8F8872DE92B
:1020E000F84306460F4615461C46DDF820904FF093
:1020F000000829E0CDF8009015F8012B2346394659
:102100003046FFF7F1FE20788D490988081A401EF5
:10211000B04205DD207800F101003044C6B20FE086
:10212000607888490988081A401EB84205DD4FF0DA
:10213000000660783844C7B202E04FF00006374628
:1021400008F1010000F0FF0828780028D2D120789B
:10215000401C00FB08F080B2BDE8F8832DE9F04197
:1021600007460C4616461D46224631463846FFF7BE
:10217000FFFB2A4631463846FFF7FAFB681EC2B21B
:10218000601CC1B23846FFF71BFC681EC2B2601C5F
:10219000C1B23046FFF714FCBDE8F0812DE9FF4FD6
:1021A0000646884615469946DDF834A001AC374608
:1021B0004FF0000B584604F8010B002D03DA4FF0E6
:1021C000010BC5F1000500BF4FF00A0095FBF0F1CF
:1021D00000FB115000F1300004F8010B4FF00A0031
:1021E00095FBF0F00500EFD1BBF1000F03D04FF0ED
:1021F0002D0004F8010B09E0CDF800A022784B4631
:1022000041463846FFF770FE3844C7B2601E0446A8
:1022100000780028F0D1B81BC0B204B0BDE8F08F40
:102220002DE9FF470546884616469946DDF830A059
:1022300001AC2F464FF0000004F8010B00BF4FF037
:102240000A00B6FBF0F100FB116000F1300004F869
:10225000010B4FF00A00B6FBF0F00600EFD109E0E9
:10226000CDF800A022784B4641463846FFF73CFEA9
:102270003844C7B2601E044600780028F0D1781BAD
:10228000C0B204B0BDE8F0872DE9F04F85B08146BB
:102290008A4616461F46DDF838B002ACC8464FF0F5
:1022A00000000190054604F8010B002E04DA4FF0FF
:1022B00001000190C6F1000600BF4FF00A0096FB36
:1022C000F0F100FB116000F1300004F8010B05F1A2
:1022D0000100C5B24FF00A0096FBF0F00600ECD109
:1022E000BD4209DC06E04FF0300004F8010B05F1B7
:1022F0000100C5B2BD42F6DD019830B14FF02D00AE
:1023000004F8010B05F10100C5B22CE00F98009014
:1023100022785B4651464046FFF7E6FD404400F018
:10232000FF0807B3681EC0B20546B8421BD19BF830
:1023300001005044401EC3B206E0000040000020EF
:102340003C0000203E0000209BF801005044801E0D
:10235000C1B208F10100C2B24046FFF7FFFE08F12A
:10236000030000F0FF08601E044600780028CDD16D
:10237000A8EB0900C0B205B0BDE8F08F2DE9FF4F12
:1023800006468A4615461F4601ACB0464FF0000B84
:10239000D946484604F8010B002D03DA4FF0010B33
:1023A000C5F1000500BF4FF00A0095FBF0F100FBFE
:1023B000115000F1300004F8010B09F1010000F0A8
:1023C000FF094FF00A0095FBF0F00500EBD1B9458D
:1023D0000ADA03E04FF0300004F8010B4846411CD4
:1023E00001F0FF09B842F5DBBBF1000F03D04FF05D
:1023F0002D0004F8010B0AE00E9800902278514657
:1024000040460D9BFFF770FD404400F0FF08601E42
:10241000044600780028EFD1A8EB0600C0B204B053
:10242000BDE8F08F2DE9FF470546884616469946D8
:10243000DDF830A001AC2F464FF0000004F8010B8E
:1024400000BF06F00F0000F130002070207839281E
:1024500003DD207800F10700207004F101044FEA49
:1024600016100600EDD109E0CDF800A022784B4609
:1024700041463846FFF738FD3844C7B2601E04466F
:1024800000780028F0D1781BC0B204B0BDE8F08716
:102490002DE9FF4F06460F469246DDF834B0B846A8
:1024A0002DE0344623E04FF000091BF8015BDDB15D
:1024B00016E015F0010F07D008EB0900C1B2134870
:1024C00002782046FFF745F94FEA650525B109F185
:1024D000010000F0FF0903E004F10100C4B202E0D2
:1024E000B9F1080FE5DB02E004F10100C4B206EB2C
:1024F0000A00A042D7DC08F1080000F0FF080398AA
:1025000038444045CDDCBDE8FF8F0000400000208E
:102510002DE9FC41074644F620654FF00101FB48D8
:1025200002F052FE0121F94802F086FE2C4606E038
:102530002000A4F1010402D10120BDE8FC81F4498E
:10254000F24802F04BFE0028F2D00022D021EF48E2
:1025500002F0EFFE2C4605E02000A4F1010401D1B9
:102560000220EAE7EB49E94802F038FE0028F3D000
:102570000021E64802F0E5FE2C4605E02000A4F12B
:10258000010401D10320D8E7E249891CDF4802F0A9
:1025900025FE0028F2D00121DC4802F04DFE2C4639
:1025A00005E02000A4F1010401D10420C5E7D849C9
:1025B000D64802F013FE0028F3D00122D021D348E0
:1025C00002F0B7FE2C4605E02000A4F1010401D181
:1025D0000520B2E7CE49491CCC4802F0FFFD002897
:1025E000F2D04FF0000615E02C4605E02000A4F1E3
:1025F000010401D10620A0E7C5493F31C34802F0DC
:10260000EDFD0028F2D0C14802F090FE0DF8060062
:1026100006F10106062EE7D30021BC4802F0D4FDE6
:102620000121BA4802F012FE2C4605E02000A4F178
:10263000010401D1072080E7B5493F31B34802F0DA
:10264000CDFD0028F2D0B14802F070FE0DF8060072
:1026500000983860BDF80400B8809DF80600B87195
:1026600000206AE72DE9FC41074644F620663868F9
:102670000090B888ADF80400B8798DF806004FF0E6
:102680000101A24802F0A0FD0121A04802F0D4FD02
:10269000354606E02800A5F1010502D10120BDE87C
:1026A000FC819B49994802F099FD0028F2D0002254
:1026B000D021964802F03DFE354605E02800A5F100
:1026C000010501D10220EAE79249904802F086FD17
:1026D0000028F3D000218D4802F033FE354605E096
:1026E0002800A5F1010501D10320D8E78949891CFB
:1026F000864802F073FD0028F2D04FF0000415E088
:102700001DF80410814802F01CFE354605E0280043
:10271000A5F1010501D10420C1E77E49891C7B4850
:1027200002F05CFD0028F2D004F10104072CE7D38D
:102730000121764802F08AFD0020B0E71CB504466E
:102740006846FFF7E5FE9DF8000000F00F009DF8D9
:1027500000104FEA211101EB810100EB41002070D4
:102760009DF8010000F00F009DF801104FEA2111C3
:1027700001EB810100EB410060709DF8020000F068
:102780000F009DF802104FEA211101EB810100EBCF
:102790004100A0709DF8040000F00F009DF80410A7
:1027A0004FEA211101EB810100EB4100E0709DF83F
:1027B000050000F00F009DF805104FEA211101EB14
:1027C000810100EB410020719DF8060000F00F0030
:1027D0009DF806104FEA211101EB810100EB410049
:1027E00000F5FA60E0809DF8030020721CBD82783D
:1027F0004FF0300303EB221201F8012B827802F034
:102800000F0202F1300201F8012B4FF03A0201F8F9
:10281000012B427803EB221201F8012B427802F0DF
:102820000F0202F1300201F8012B4FF03A0201F8D9
:10283000012B027803EB221201F8012B027802F03F
:102840000F0202F1300201F8012B4FF0000201F8F3
:10285000012B704702794FF0300303EB221201F88D
:10286000012B027902F00F0202F1300201F8012B74
:102870004FF02E0201F8012B427903EB221201F8EE
:10288000012B427902F00F0202F1300201F8012B14
:102890004FF02E0201F8012B4FF0320201F8012B0C
:1028A0004FF0300201F8012B827903EB221201F87C
:1028B000012B827902F00F0202F1300201F8012BA4
:1028C0004FF0000201F8012B704770B544F6206507
:1028D0004FF001010D4802F077FC01210B4802F096
:1028E000ABFC2C4605E02000A4F1010401D101203D
:1028F00070BD0749054802F071FC0028F3D00022A2
:10290000D021024802F015FD2C460BE00054004097
:1029100001000300820007002000A4F1010401D19E
:102920000220E5E7FA49FB4802F058FC0028F3D002
:102930001121F84802F005FD2C4605E02000A4F125
:10294000010401D10320D3E7F149891CF14802F0C9
:1029500045FC0028F2D00121EE4802F06DFC2C4627
:1029600005E02000A4F1010401D10420C0E7EA49F8
:10297000E84802F033FC0028F3D00122D021E548DA
:1029800002F0D7FC2C4605E02000A4F1010401D19F
:102990000520ADE7E049491CDE4802F01FFC002895
:1029A000F2D02C4605E02000A4F1010401D106205C
:1029B0009EE7D9493F31D74802F010FC0028F2D0F9
:1029C000D44802F0B3FC06464FF00001D14802F0B3
:1029D000FBFB0121CF4802F039FC2C4605E020002A
:1029E000A4F1010401D1072082E7CB493F31C94856
:1029F00002F0F4FB0028F2D0304679E700B585B04C
:102A00004FF0C000ADF800004FF003008DF8020059
:102A10004FF01C008DF803006946C04802F084FBAB
:102A20000121480502F0CAFC4FF00000ADF8040097
:102A30004BF6FF70ADF806004FF00000ADF808004F
:102A40004FF48060ADF80A004FF48040ADF80C0000
:102A5000B34804904FF00101AE4802F0CBFB01A94E
:102A6000AC4802F009FC05B000BD00B585B00121FD
:102A7000082002F0BBFC4FF0C000ADF810004FF092
:102A80001C008DF813004FF003008DF8120004A90C
:102A9000A24802F049FB0121480502F08FFC012108
:102AA000084602F0A3FC9B4802F0AEFB4FF000008A
:102AB000ADF800004BF6FF70ADF802004FF00100DA
:102AC000ADF804004FF48060ADF806004FF480408C
:102AD000ADF80800934803904FF001018D4802F0D3
:102AE00089FB69468B4802F0C7FB00BF4FF40031F9
:102AF000884802F0B5FB0028F8D10121854802F092
:102B00009BFB00BF8449834802F068FB0028F9D092
:102B10000022D0217F4802F00CFC00BF7C497D4898
:102B200002F05CFB0028F9D001217A4802F08EFB0C
:102B30004FF49670FEF746FA0121764802F07CFBCE
:102B400000BF7549734802F049FB0028F9D0002204
:102B5000D021704802F0EDFB00BF6D496D4802F0D6
:102B60003DFB0028F9D00E216A4802F0EAFB00BFC5
:102B70006749891C674802F031FB0028F8D0002122
:102B8000644802F0DEFB00BF6149891C614802F025
:102B900025FB0028F8D000215E4802F0D2FB00BFE0
:102BA0005B49891C5B4802F019FB0028F8D0012121
:102BB000584802F04BFB05B000BD00B585B00121BF
:102BC000480502F0FBFB0121092002F00FFC4FF049
:102BD000C000ADF800004FF003008DF802004FF088
:102BE0001C008DF8030069464C4802F09DFA4948E4
:102BF00002F00AFB4FF00000ADF804004BF6FF7046
:102C0000ADF806004FF48060ADF80A004FF4804044
:102C1000ADF80C00434804904FF001013D4802F02C
:102C2000E9FA01A93B4802F027FB0121394802F0EB
:102C3000CBFA05B000BD70B505460C464FF001015A
:102C4000344802F0F9FA00BF3349324802F0C6FABC
:102C50000028F9D00022AE212E4802F06AFB00BF06
:102C60002B492C4802F0BAFA0028F9D0210A294849
:102C700002F067FB00BF2649891C264802F0AEFA25
:102C80000028F8D0E1B2234802F05BFB00BF2049E6
:102C9000891C204802F0A2FA0028F8D029461D48D5
:102CA00002F04FFB00BF1A49891C1A4802F096FA3D
:102CB0000028F8D00121174802F0C8FA0520FEF7D5
:102CC00081F970BD2DE9F04106460F4615464FF0DB
:102CD00000044FF001010F4802F0AEFA0AE00120B3
:102CE000FEF770F904F10104B4F5FA7F02DD00206B
:102CF000BDE8F0810849074802F070FA0028EED0DC
:102D00000022AE21034802F014FB4FF0000415E04E
:102D1000820007000054004001000300000C014045
:102D2000A0860100801A06000120FEF74BF904F18D
:102D30000104B4F5FA7F01DD0020D9E74D494E4882
:102D400002F04CFA0028EFD001214B4802F052FA71
:102D5000390A494802F0F5FA4FF0000409E0012071
:102D6000FEF730F904F10104B4F5FA7F01DD00202B
:102D7000BEE74049891C404802F030FA0028EED0F6
:102D8000F9B23D4802F0DDFA4FF0000409E00120FD
:102D9000FEF718F904F10104B4F5FA7F01DD002013
:102DA000A6E73449891C344802F018FA0028EED00E
:102DB0000121314802F040FA4FF0000409E00120FF
:102DC000FEF700F904F10104B4F5FA7F01DD0020FB
:102DD0008EE72A49284802F001FA0028EFD00122A4
:102DE000AE21254802F0A5FA4FF0000409E00120C9
:102DF000FEF7E8F804F10104B4F5FA7F01DD0020E4
:102E000076E71E49491C1C4802F0E8F90028EED07C
:102E100018E0012D07D10021174802F0D5F9012152
:102E2000154802F013FA15493F31134802F0D6F95C
:102E300040B1114802F07AFA307006F10106A5F1AE
:102E4000010085B2002DE4D101210B4802F0BCF94C
:102E50000520FEF7B7F801204AE770B505460C4695
:102E60004FF0FF0020704FF0010229462046FFF787
:102E700029FF70BD820007000054004001000300DC
:102E80002DE9F04106460D464FF00007B8462846AA
:102E900000F057FA0746444607E0305D295D884256
:102EA00001D108F1010804F10104BC42F5DBB84589
:102EB00002D10020BDE8F0814FF0FF30FAE770B595
:102EC0009AB005464FF032010DA8FEF749F83221BD
:102ED0006846FEF745F84FF000001C4908604FF0C7
:102EE0000E066B460DAA1AA1284600F069F969463C
:102EF000284600F0F0F91549086008460168684660
:102F000000F0FBF94FF0000413E004EBC400124A98
:102F100002EB80010DA8FFF7B3FF40B904EBC4003A
:102F20000D4A02EB8000016A6846884703E004F11D
:102F30000104B442E9DB00BF08A000788DF834003A
:102F400006A000788DF800001AB070BD4400002083
:102F50002573202573000000AC6400080000000009
:102F60000FB41CB5074B06AA7B4469460090059830
:102F700000F0C5FC0020694600F0D4FC1CBC5DF8E4
:102F800014FB0000B909000070B5044685690068AB
:102F9000C10601D5302600E02026C00708D070BD4C
:102FA000D4E9012130469047206A00F101002062F7
:102FB0006D1EF5D570BD70B5044685690068C00703
:102FC00008D170BDD4E9012120209047206A00F18A
:102FD000010020626D1EF5D570BD00002DE9F041A5
:102FE0000746002510687529394616A411D0AFF39D
:102FF0000080002803DAC0F1000013A407E039685C
:103000008A0701D511A402E0490704D510A40125BF
:1030100001E0AFF3008000210A2307F1240607E056
:10302000B0FBF3F203FB1200303070541046491C21
:103030000028F5D12B4622463846BDE8F04100F085
:10304000EEB90000000000002D0000002B00000081
:103050002000000070B504460D4621461068AFF30D
:1030600000802168090502D5104A7A4402E00F4A1F
:103070007A440E32002104F1240307E000F00F0629
:103080004FEA1010965D5E5401F101010028F5D160
:1030900020680023000704D5702D02D009B1113239
:1030A00002232046BDE8704000F0B9B94A3600005E
:1030B0002DE9F0474FF0000A04468946C0F820A0E9
:1030C0002046E1688847002876D0252806D0D4E934
:1030D00001219047206A401C2062F1E7E168204608
:1030E00000258847C4F81CA006460027C4F818A08D
:1030F0002A2E09D0304602F0C4FB38B304EB87080F
:10310000303EC8F8186019E059F8041B204604EB5B
:1031100087029161E1688847012F064618D1E0696E
:10312000002820DA25F020051DE0D8F8180000EB73
:10313000800006EB40003038C8F818002046E168EF
:103140008847064602F09DFB0028EED1012F0AD0E9
:103150002E2E08D12046E16888477F1C0646022FA4
:1031600045F02005C4DBA069002803DA404245F0A1
:103170000105A061E80701D025F01005B6B1A6F160
:103180004100192802D8203645F400654A463146E8
:10319000204625604D46FCF7E3FF58B1012806D0D4
:1031A000ED1D25F0070000F1080989E704E005F1AD
:1031B000040985E730468AE7206ABDE8F087000009
:1031C0000FB400B58DB010A9099000910B904FF08D
:1031D000FF300A9000200C9006487844069006487C
:1031E00078446A4607900F9909A800F0FBFD0DB0DE
:1031F0005DF814FB2B0C0000430C00002DE9FF5F71
:103200001446994600273E469169D2E901B8DDF897
:1032100038A001988847054659EA0A0005D009E018
:10322000A1690198761C88470546216A2846884787
:103230000028F5D1681C03D05FEACB7005D015E0FB
:103240004FF0FF3004B0BDE8F09F2068011D216001
:1032500007680BE05FEACB7001D107F8015BA16959
:103260000198761CA8F1010888470546B8F1000FBF
:103270001ADD681C18D0B9F1000F0DD0E81705EB66
:10328000D060421120F01F0059F822102A1A0120A4
:1032900090400142DED107E0BAF1000FDAD12846B2
:1032A000216A88470028D5D0E169019888470BF04A
:1032B000010050EA0A0000D13870A168414505DDDF
:1032C000BAF1000F05D0B8F1000F02D06FF0010085
:1032D000B8E73046B6E730B505460B462A4613F840
:1032E000014B12F8010B08B1A042F8D01CB1002824
:1032F00002D06D1CF1E7284630BD40EA01030246CA
:1033000030B59B0710D14FF0013400E008C208C966
:103310001D1B9D4315EAC41FF8D013F0FF0102F8EE
:10332000011B0DD01B0AF8E711F8013B002B02F836
:10333000013B05D011F8013B002B02F8013BF3D112
:1033400030BD10B5431C02E010F8011B71B18107BC
:10335000FAD14FF0013202C88C1A8C4314EAC21120
:10336000F9D0C01A0A0603D0C01E10BDC01A10BD85
:103370000A0401D0801E10BD0902FCD0401E10BD01
:10338000421E12F8013F002BFBD111F8013B002B2C
:1033900002F8013BF9D170474FF0013C50F8042B83
:1033A00051F8043B9A4221D1A2EB0C03934313EA58
:1033B000CC1317D150F8042B51F8043B9A4215D185
:1033C000A2EB0C03934313EACC130BD150F8042B5C
:1033D00051F8043B9A4209D1A2EB0C03934313EA40
:1033E000CC13DBD04FF00000704700BFD01A01BAF9
:1033F000B1FA81F101F0180122FA01F0CB40C1F1DC
:103400002001DBB2C0B2C01A2CFA01F3D11A9143E9
:1034100011EAC311E6D170477047704770472DE934
:10342000F0470D4604469246994600F1240801688B
:10343000880604D5E06921F01001216000E0012038
:10344000A84202DDA0EB050700E00027A16907EB19
:10345000050202EB0300A1EB0000A0612068C0069A
:1034600002D42046FFF790FD002608E0D4E90121B0
:103470001AF806009047206A401C761C20624E45D0
:10348000F4DB2068C0060AD52046FFF77DFD06E084
:10349000D4E9012130209047206A401C2062381E68
:1034A000A7F10107F4DC07E0D4E9012118F80500D1
:1034B0009047206A401C2062281EA5F10105F3DC1C
:1034C0002046FFF778FD2068000602D50220BDE8FF
:1034D000F0870120FBE770472DE9FF4F0C461E46A1
:1034E0004FF0FF378BB0D2E90001DDF860800A9021
:1034F0008A46C1F30A5505B93D46002108464FF0FA
:103500000000BAF1000F00F4400005DA00EB800083
:103510004FF4400101EA50004FEA9059B9F1010F10
:1035200000DDB9460A9850EA4A000ED044F6105021
:10353000A5F2FF3545432F14B8F1000F1ED0754298
:10354000291E1EDDC9F100021CE0B8F1010F4FF089
:10355000000001D1F24307E0302101E02154401C7A
:10356000B042FBDB30460022002121540B99C1F808
:103570000880C1E900200FB0BDE8F08FBD1B6D1CB5
:10358000DEE74A4600DA694206A800F0AFFE06AB65
:1035900007CB03AB07C350460A9901F0B6F98DE893
:1035A0000700A0F500501F3800900398002D09DD9A
:1035B00042F21F014A46084403A90390684601F0FD
:1035C00040FC08E0A0F500504A461F3803A90390CC
:1035D000684601F05EFC8DE807000004000C03D093
:1035E0004FF0FF30410800E01046B8F1000F03D063
:1035F0000022009215461FE0751E06D400F02CFC38
:1036000002F1300262556D1EF8D5B346012208431F
:1036100002D000227F1C04E02078302801D1002253
:103620007F1E002A099787D01DE0112D07DA00F0D0
:1036300013FC303262556D1C50EA0102F5D108438B
:103640000FD10021681E05E0235C625C6354491CB5
:103650002254401E8142F7DBAB46A81B401E099056
:1036600001E0009848B1002004F80B000B98099A7B
:10367000C0F80880C0E9002B7DE711264FF0000854
:103680005AE72DE9F04F88460446D21D22F0070183
:1036900091B0D1E90001CDE90A0102F07FF80246BC
:1036A0000B98C00F01D02D2007E02068810701D5BD
:1036B0002B2002E0202101EAC000032A099001D05A
:1036C000072A05DB03464146204600F013FC0EE1C5
:1036D0002068800601D5E06900E00620B8F1650F9A
:1036E000814606D0B8F1660F18D0B8F1670F72D1D5
:1036F00032E00020B9F1110F0090484601DB1123A0
:1037000000E0431C0AAA01A90CA8FFF7E5FEDDE9C9
:103710000C70002609F10105834648E001204B4664
:1037200000904FF000470AAA01A90CA8FFF7D4FEA9
:10373000DDE90C050E990026AB4619B909F1010126
:1037400000EB0105B9EB050003D4C0F1FF3609F128
:103750000105A5EB09002BE0B9F1010F01DA4FF0EB
:1037600001090020B9F1110F0090484601DD112335
:1037700000E003460AAA01A90CA8FFF7ADFEDDE9A7
:103780000C704D4600268346206800070AD4AB45DE
:1037900000DA5D4601A8012D04DD411911F8011C74
:1037A000302907D04F4502DA17F1040F04DA01205F
:1037B000824610E06D1EEEE7002F02DCED1B3E445A
:1037C00003E0781CA84200DD0546A7EB060000F1E7
:1037D000010A4FF000472068000703D4AA4501DB27
:1037E0004FF0FF3A0021B7F1004F0DF143088DF87B
:1037F000431022D002202B23002F01DA7F422D23F9
:103800000A22011EA0F1010000DC4FB197FBF2F18A
:1038100002FB117C0F460CF1300C08F801CDF0E7EB
:10382000A8F1010003702168090501D5452100E0D8
:103830006521A0F1010800F8011C09980FA9A1EB6E
:10384000080707F1070700B1012000EB050101EBB4
:10385000EA70A1693844A1EB0000A0F10100A06169
:103860002068C00602D42046FFF78EFB099830B1CD
:10387000D4E901219047206A00F10100206220680C
:10388000C00620D52046FFF77FFB1CE0002E04DB9E
:10389000B34502DD01A8805D00E03020D4E90121BC
:1038A0009047206A761C401CBAF1010A20620AD1B6
:1038B00000F0CAFAC0680168405CD4E90121904771
:1038C000206A401C2062281EA5F10105DEDC07E00D
:1038D000D4E9012118F8010B9047206A401C2062AE
:1038E000381EA7F10107F3DC2046FFF764FB022036
:1038F00011B041E601694A1C02610878704700B5C1
:103900008FB0CDE901310021059105497944CDE918
:10391000031011466846FFF7CBFB0FB000BD000057
:10392000E5FFFFFF0A6802F8010B0A60704700001C
:103930002DE9F04F80469B4689B00878FF2806D0D5
:10394000491C2D2805D000244FF0000908E0002074
:103950000CE00124F8E709EB8903491C00EB43095B
:103960000878FF28F7D114B1C9F10000814610781A
:1039700000242646A2462D2801D02B2813D1521C04
:103980002D2802D0002082460DE00120FBE70A200E
:103990000025A4FB007C521C06FB00C004FB0500B4
:1039A000CC1945EB00061178FF29F0D1002108461B
:1039B0004FF00000BAF1000F02D000EB8000400889
:1039C000C0F38157012F01DD4FF0FF3754EA0600A5
:1039D00009EB0B054FF0000906D14FEACA71C8E99F
:1039E000009109B0BDE8F08F15F5FA7F4FF0020B9A
:1039F00004DA4FEACA71C8E900910AE0B5F5FA7F26
:103A00000CDDF2487844D0E9002141EACA71C8E9E6
:103A1000002100F01DFAC0F800B0E2E7291E02DA2A
:103A2000C7F1000200E03A4600DA694206A800F059
:103A30005DFC06AB07CB03AB07C344F23E0059EA7B
:103A400006010090484604D144F21E0126464C4629
:103A50000091310C0904014306D10099360446EA6D
:103A6000144624041039009106F07F41014306D129
:103A70000099360246EA146624020839009106F0DD
:103A80007041014306D10099360146EA14762401BB
:103A9000091F009106F04041014306D10099B6008C
:103AA00046EA9476A400891E009106F0004108437E
:103AB00004D1009824197641401E00903A46684689
:103AC000CDE90164002D03A902DD01F0F6F901E062
:103AD00001F0CBF9BAF1000F04460D4601D084F095
:103AE000004440F2FF7624F00040284303D0C4F3A2
:103AF0000A50B04214D100F0ABF9C0F800B0C4F3E2
:103B00000A50B0420CD1B2487844D0E90012C8F84B
:103B1000001004F0004142EA0100C8F8040060E728
:103B2000C8E900545DE72DE9FF4F1F464FF0000A3A
:103B30004FF0FF38454691B0D7E90146CDF83CA09B
:103B400000F082F9C0680168405C1090B969129871
:103B50006D1C8847396A814688470028F6D119F1DB
:103B600001000AD0002E24F4D06412DDB9F12B0F2D
:103B700008D0B9F12D0F0CD102E0404615B031E765
:103B800044F48064B96912986D1C88478146A6F197
:103B90000106600504A901D52D2000E02B20002E90
:103BA00001F1010B0DF130088DF810003FDDB9F186
:103BB000690F08D0B9F1490F05D0B9F16E0F02D0E5
:103BC000B9F14E0F1CD13B4601A80095A0E8500268
:103BD000DDE912126FF0020002F049FAC11CCDD1EA
:103BE0000EE0B96912986D1C884781461398761EBD
:103BF00044F4007405600F98401C002E0F9016DDF1
:103C0000B9F1300FEDD0B9F1780F02D0B9F1580FFA
:103C10000DD10F9801280AD13B46CDE90054DDE9CA
:103C20001212001F029602F020FAC11CA6D11099B0
:103C300089453ED144F0800406E01399681CAAF13E
:103C4000010A44F400740860B969761E12986D1C6C
:103C5000884730288146F0D02BE01099894505D15E
:103C6000200603D4761E44F0800418E0484601F094
:103C700008FE08B3761E0DF123018B4544F4007451
:103C800008D2A9F130000BF8010B200607D5AAF1E4
:103C9000010003E0200602D40AF101008246A005DB
:103CA00002D51399681C0860B96912986D1C884781
:103CB0008146002ED1DC56E0002E54DDB9F1650FAF
:103CC00002D0B9F1450F4ED1A0054CD5B969761E89
:103CD00012986D1C24F440748847002E81460DDD37
:103CE0002B2804D0B9F12D0F08D144F48074B969A0
:103CF00012986D1C88478146A6F10106E00501D5A2
:103D00002D2100E02B2108F8011BCDF8008023E0D5
:103D1000761E0DF13901884544F400740ED24146F7
:103D2000A9F1300010F0FF0088F8000003D1084628
:103D30000099884209D908F1010806E0E00501D59B
:103D4000244801E042F20F708246B96912986D1C56
:103D50008847814613980560002E04DD484601F02F
:103D600090FD0028D4D1F96912988847FF20534666
:103D70008BF8000088F8000000200A900B9004AA3D
:103D80000CA90AA8FFF7D4FDA00502D46FF001002A
:103D9000F4E614F0240F0AD0E00714D13868DDE906
:103DA0000A12031D3B600068C0E900120BE00AA97B
:103DB000684601F00FFDE00705D13868009A011D43
:103DC0003960006802602846D8E600008C2D0000AB
:103DD000882C0000F1D8FFFF0268114413780160BD
:103DE000184670470B461146054A7A444A61054A0F
:103DF0007A440A620022C1E9033200F0BBB8000035
:103E0000EBFFFFFFEF000000426842B1016811F8CC
:103E1000013B23B1521EC0E9001218467047012130
:103E2000C160881E7047416859B1C368026843B9D0
:103E30008368934205D0521E491CC0E9002100202E
:103E400070474FF0FF30704700487047D81000208F
:103E500000487047B810002030B5B0F10A024FEAB0
:103E6000900E71F100034EEA817EB0EB0E0061EB23
:103E700091014FEA101E4EEA017E10EB0E0041EB5D
:103E800011114FEA102E4EEA016E10EB0E0041EBBD
:103E900011214FEA104E4EEA014E10EB0E0041EB9D
:103EA0001141401841F100014FEAD00040EA417051
:103EB0004FEAD10110EB80054FEA810444EA907487
:103EC00044EB01046D1944EB0404521BA3414FF071
:103ED000000348BF0A3200D530BD401C41F100014B
:103EE00030BD10B5044600F09DFA0068005D00F09A
:103EF000010010BD2DE9F04104461F46032601686C
:103F0000072A01F4006004DB08B116A505E016A538
:103F100003E008B115A500E015A521F01000206010
:103F2000A069C01EA0610FB1401EA0612046FFF72E
:103F30002BF84FB1D4E9012138469047206A401C44
:103F40002062C01C206206E0206AFAE7D4E9012161
:103F500015F8010B9047761EF8D22046FFF72BF894
:103F6000BDE8F0814E414E006E616E00494E460044
:103F7000696E66002DE9F34F4FF0000A0C46564675
:103F80008FB001200DF1100B0D9001F10C0003908A
:103F9000626903980121904705002DD0252D2CD072
:103FA000216A8847C0B16269039801219047216A5C
:103FB00088470028F7D16269411E0398904700E0C6
:103FC000761CA1690F988847216A88470028F7D195
:103FD000E1690F988847DBE7A1690F988847A842F5
:103FE000074601D1761CD3E7E1690F9888477F1C0B
:103FF00002D1BAF1000F6FD06BE16269039800271C
:104000003D46394690472A2804D162690398012128
:1040100090470125DFF8D08262690398012190471B
:10402000A0F130010A290AD24745E5DC07EB8701F8
:1040300000EB4107303FDFD445F01005ECE7E9061F
:1040400001D46FF000476C280AD04C2814D068289F
:1040500015D06A280DD074281CD07A281AD01DE0FB
:1040600062690398012190476C2802D045F004054D
:1040700014E045F002050DE045F020050AE0626914
:10408000039801219047682802D045F0080505E013
:1040900045F400656269039801219047C4E901571E
:1040A00065283DD019DC582879D00CDC452837D05C
:1040B00004DC252826D041289ED131E046282FD087
:1040C000472899D12CE05B287FD0612828D063282D
:1040D0007BD0642823D159E0F6E06F2847D008DC74
:1040E00066281DD067281BD0692821D06E2816D1DC
:1040F00027E0702844D0732867D0752846D07828E8
:104100000DD14CE0A1690F988847252805463FF45A
:1041100069AFE1690F9888476D1C3FF46AAFD8E03A
:104120000F9923466A466FF0010001F09CFFC5E03D
:1041300045F0400023464FF000026060A80735D4E8
:104140003DE0206800F1040121600068290501D5E7
:1041500006701DE7290701D5068019E7A90704D5D0
:104160004FEAE671C0E9006112E7066010E745F02A
:10417000400023464FF008026060A80716D41EE0F6
:1041800040F60E0125EA0100606016E045F04000AF
:1041900023464FF00A026060A80707D40FE045F0FD
:1041A00040006060A80708D5234610220F996FF0E1
:1041B0000100AFF3008081E007E0102223460F9951
:1041C0006FF00100AFF3008078E04FF00009632842
:1041D0004F46C8464B46CDF8309002D05B2806D0FB
:1041E0002FE0E80601D40120A060012729E06269E0
:1041F0000398012190475E2805D14FF001094946F7
:10420000626903989047216979B3E168891E0C912E
:1042100060B3216959B308F101086269039801216B
:1042200090475D28F4D1B9F1000F09D0594600201C
:1042300051F82020D24341F82020401C0828F7DB09
:1042400004AB2069002860684FEA407027D02246FE
:10425000CDF80080CDE901970C9B0F9900286FF0F5
:10426000010029DAAFF3008028E001E031E007E047
:1042700000235A4642F82130491C0829FADBC7E7D7
:10428000C11700EBD1635A1123F01F030BEB82011E
:10429000C31A0A680120984002430A60BDE70097EC
:1042A00022460F9900286FF0010002DAAFF3008078
:1042B00004E0FEF7A3FF01E0AFF3008000280ADA74
:1042C000401C06D10D9820B14FF0FF3011B0BDE871
:1042D000F08F5046FAE7E90701D10AF1010A0644D6
:1042E00000200D9054E60000CCCCCC0C2DE9F0471A
:1042F000814616468AB035487844D0E90023806864
:104300000092CDE90130314878440C38D0E90223DD
:10431000006903924FF03702CDE9043041F69B303B
:10432000014491FBF2F0A0F1800502FB10141B3C4C
:1043300002D56442012000E00020DFF890A0804612
:104340000027FA44AAF1C60A0DE0E00709D0324678
:10435000684607EB47010AEB810100F09AFD8DE802
:10436000070064107F1C002CEFD1184F7F44B43F2E
:1043700017E0E80713D007EB04100DF1180A90E8D6
:104380000E00AAE80E00C068F04201D1981908900A
:10439000324606A903A800F07CFD03AB07C36D10ED
:1043A000641C002DE5D132466946B8F1000F03A820
:1043B00002D000F046FD01E000F06BFDC9E900010C
:1043C000C9F808200AB0BDE8F087000060240000AA
:1043D00000487047B81000207546FFF7F9FFAE4659
:1043E00005006946534620F00700854618B020B501
:1043F000FCF722F8BDE820404FF000064FF0000720
:104400004FF000084FF0000B21F00701AC46ACE87C
:10441000C009ACE8C009ACE8C009ACE8C0098D46E9
:104420007047000010B5FFF70FFD001D10BD00BF65
:104430006515000010B5FFF70BFD006810BD10B545
:104440000446FFF705FD046010BD00002DE9FF4F95
:104450001F464FF03C0987B04FF00042DDE91410D1
:1044600001F10108DDF858A002EA40500390002055
:1044700005908346054604460490B969461E08988F
:104480008847AAF1010A0290BAF1000F37DD0298BD
:104490002E2815D0102100F01EFA00282ADB4FF03C
:1044A000010B0599014316D0B9F1000F0BDB4A4609
:1044B000C11700F0FDF905430C43A9F1040905E01B
:1044C0000120049007E008B145F0010501200590A6
:1044D000049800B9361DB969089808F101088847A1
:1044E000BBF1000FAAF1010A0290CDD00999C1F8E1
:1044F0000080C9E70298702808D0502806D0F969D2
:1045000008988847BBF1000F14D04FE000200290BC
:104510000120BBF1000F049009D0B969089808F197
:1045200001088847AAF10109B9F1000F07DCF96910
:10453000089888476FF001000BB0BDE8F08F2B287A
:1045400004D02D280CD14FF0FF300490B9690898A1
:1045500008F101088847A9F10109B9F1000FE6DD6A
:10456000411CE4D00A2100F0B6F90028DFDB0299F3
:1045700008F1010801EB810100EB41000290B969EB
:10458000089888470A2100F0A6F9099AA9F10109BB
:10459000B9F1000FC2F8008001DD0028E7DAF969FF
:1045A000089888470499029800FB016655EA0400C0
:1045B00001D103989FE004F04041090004D1A40018
:1045C00044EA9574AD00B61E04F00041080002D123
:1045D0006D196441761E159810F0240F03D04FF02A
:1045E0000B095E4803E04FF028096FF07D0082461A
:1045F000564507DAAAEB06018944B9F1410F01DDFE
:104600004FF0410901200021A9F1010200F050F909
:10461000024628400B462140084301D0012000E01B
:1046200000200290501E43F1FF31284021400843F2
:1046300001D0012000E000200299834651EA0B01DD
:1046400052D0002108464FF00000039900F44000CA
:1046500039B100EB80004FF4400100EBD07001EA6B
:1046600060008015012802DD4FF0FF3000E013D01C
:10467000401C39D0029860B3BBF1000F0CD14A4600
:104680000120002100F014F928402140084301D006
:10469000012000E00020E0B101204A46002100F0A6
:1046A00007F9844640190A4661412B1A8C4111D3FF
:1046B000B9F1400F09DD159810F0240F02D0AAF1CE
:1046C000340603E0AAF1170600E0761C00254FF03F
:1046D000004409E04FF0FF331CEB030342F1FF32CB
:1046E00020EA030521EA0204CAF10100B04206DA19
:1046F0001B49039808430190002000900EE0039AA4
:10470000C4F3D321E80A0A43164940EA44500A4355
:104710003146CDE90002684601F0A8F8159810F07E
:10472000240F0BD01598C00715D13868DDE90012A9
:10473000031D3B600068C0E900120CE002A8694656
:1047400001F048F81598C00705D13868029A011D94
:104750003960006802604046EEE6000002FCFFFFA0
:104760000000F07F0000F03F2DE9FF4F91461D460D
:1047700085B04FF00042DDE9124BDDE914717F1E78
:1047800002EA4B50434A40F0FF4A40EA0208002246
:1047900021F020004928049202D04E282BD04FE06F
:1047A0003DA00126D0E9001280680091CDE90120EA
:1047B000A9690698641C88477F1E014606D41DF827
:1047C000060018B121F0200181420BD0E96906985A
:1047D0008847032E34D0082E32D06FF0010009B084
:1047E000BDE8F08F761C032E01D0082EE0D1601CAE
:1047F000C9F80000DCE7A9690698641C88477F1E99
:104800002AD420F02000412826D1A9690698641CEA
:1048100088477F1E20D420F020004E281CD1A96993
:104820000698641C88477F1E48F400284AF4800AD2
:10483000C9F8004001D4282806D0E96906988847BD
:104840005FEACB7012D022E0A9690698641C884701
:104850007F1E01D4002803DAE96906988847BCE77F
:104860002928F1D1641CC9F80040E9E71BF0240FA6
:1048700007D028680499031D2B600068C0E9001860
:1048800005E02868021D2A600068C0F800A02046E4
:10489000A5E700000000F07F494E46494E495459B3
:1048A000000000000446AFF300802046FBF780FCC8
:1048B000B2F120030AD5C2F1200301FA02F120FA75
:1048C00003F300FA02F041EA0301704700FA03F132
:1048D0004FF0000070473A2800D2303820F0200214
:1048E000412A01D3A2F13700884201D34FF0FF30B3
:1048F0007047000000487047BC1000200149182094
:10490000ABBEFEE72600020070475FEA400C08BF1E
:1049100091F0000F4FEA8C234FEAC12243EA515134
:104920004FEA1C5018BF00F5F0404FEA300018BFA6
:1049300041F000415FEA6C5C00F02980BCF1FF3F70
:1049400008BF40F080407047130C06BF12044FF0C0
:10495000100C4FF0000C130E04BF12020CF1080CE7
:10496000130F04BF12010CF1040C930F04BF92004B
:104970000CF1020CD30F04BF52000CF1010C1146D4
:104980004FF00002A0F11F00A0EB0C00704711F0E7
:10499000004F08BF704731F000413FF4D5AF0B0C1A
:1049A00006BF09044FF0100C4FF0000C0B0E04BFB3
:1049B00009020CF1080C0B0F04BF09010CF1040CE7
:1049C0008B0F04BF89000CF1020CCB0F04BF490010
:1049D0000CF1010CCCF12003A0EB0C0022FA03F344
:1049E00002FA0CF241EA030100F10100704720F0E5
:1049F0007F4C80EA030023F07F47ACEB070303F50D
:104A00007C5300F0004003F1FF032DE980494FEA99
:104A1000154B09B44FEA144325EA0B4E24EA034828
:104A20000FF2042606EB132749083E785FEA3202AC
:104A300003FB0667C7F5000707FB06F64FEA543786
:104A40004FEAD64606F1020607FB066CCCF1005C85
:104A50004FEA1C472CEA074C07FB06F40CFB06F553
:104A600004EB15464FEA961634BF00204FF0004085
:104A70004FEAD13706FB07FC4FEA1C4C0CFB0BF747
:104A8000D21B03FB0CF761EB07010CFB0EF7B0EB3D
:104A9000074072EB17420CFB08F734BFA2EB07424A
:104AA000B2EB074261EB17414FEA0C444FEA910722
:104AB00006FB07FC4FEA1C4C0CFB0BF7B0EBC740A6
:104AC00072EB573203FB0CF734BFA2EBC742B2EBD9
:104AD000C74261EB57310CFB0EF7B0EBC70072EB2E
:104AE00057720CFB08F734BFA2EBC702B2EBC70248
:104AF00061EB5771039F4FEA816141EA921104EB28
:104B0000CC044FEAD1374FEA826206FB07FC42EA47
:104B100090124FEA80604FEA1C4C0CFB0BF7D21B43
:104B200003FB0CF761EB07010CFB0EF7B0EB074042
:104B300072EB17420CFB08F734BFA2EB0742B2EB53
:104B4000074261EB17414FEA8C554FEA910704EB9E
:104B50009C2406FB07FC4FEA1C4C0CFB0BF7B0EB4C
:104B6000C74072EB573203FB0CF734BFA2EBC742CE
:104B7000B2EBC74261EB57310CFB0EF7B0EBC7004D
:104B800072EB57720CFB08F734BFA2EBC702B2EB13
:104B9000C70261EB577115EB4C254FEA816141EA81
:104BA00092114FEA82624FEAD13742EA901206FB35
:104BB00007FC44F100044FEA80604FEA1C4C0CFBF8
:104BC0000BF7D21B03FB0CF761EB07010CFB0EF795
:104BD000B0EB074072EB17420CFB08F734BFA2EBB7
:104BE0000742B2EB074261EB174115EB1C154FEA88
:104BF000813141EA92414FEA823242EA90424FEAE1
:104C000080304FEA0C7644F1000448EA03434EEA50
:104C10000B484FF0000EB2EB080C71EB030724BFFA
:104C2000624639464EEB0E0E4FF0000B0018524113
:104C300049414BEB0B0BB2EB080C71EB03077BF11B
:104C4000000B24BF624639464EEB0E0E4FF0000BB0
:104C50000018524149414BEB0B0BB2EB080C71EBC6
:104C600003077BF1000B24BF624639464EEB0E0E64
:104C700051EA020718BF46F0010616EB0E7655F111
:104C8000000254F1000103D5BDE88901BDE80088A8
:104C9000BDE88901BDE80048B619524141EB010168
:104CA000A3F10103704780807F7E7D7C7B7A7978D9
:104CB000777676757473727171706F6E6E6D6C6CE1
:104CC0006B6A6A6968686766666564646363626183
:104CD0006160605F5F5E5E5D5D5C5C5B5B5A5A5904
:104CE0005958585757565655555554545353525270
:104CF0005251515050504F4F4F4E4E4D4D4D4C4CC8
:104D00004C4B4B4B4A4A4A49494948484847474710
:104D1000474646464545454444444443434343424D
:104D2000424242414141000046EA0646A3F5705323
:104D30004FEA164646EA42564FEAD22242EA41522A
:104D400010B54FEAD121A3F1010300F017F820F0CC
:104D5000004000F1010C00F0004701EB005011464B
:104D6000BCF5006F40EA070000D210BD02484FF0CA
:104D7000000140EA070010BD0000F07F002B26D4A0
:104D8000770021D01CB54FEA370703B44FF010006D
:104D90004FF010014FF000000FBCBDE810400BF1C8
:104DA000010BBBF1010F08BF5FEA170722BF12F129
:104DB000010211F101014FF0004143F1000300F045
:104DC000004043EA00007047F9D35708DAE746EAA3
:104DD000064613F1400F4FEA16461FDD13F1200F70
:104DE000DFBF16430A46002120335B42C8D0C3F11F
:104DF000200746EA064602FA07F74FEA164646EA51
:104E00000706C3F1200722FA03F201FA07F721FA95
:104E100003F14FF0000342EA0702B1E746EA020657
:104E200046EA06464FEA164646EA0106BCBF46EA8F
:104E30000646360C4FF000034FF000024FF0000121
:104E40009EE72DE9C048934630B491E8380007C882
:104E500031EA400C48BF34EA430C03D5FFF7C7FDE5
:104E6000FFF78CFFF0BCBDE800882DE9C0489346F1
:104E700030B491E8380007C831EA400C48BF34EA42
:104E8000430C03D5FFF7B3FDFFF74EFFF0BCBDE8C1
:104E900000882DE9C048934630B491E8380007C82F
:104EA00010F0804F08BF13F0804F03D100F019F8C5
:104EB000FFF764FFF0BCBDE800882DE9C0489346C9
:104EC00030B491E8380007C810F0804F08BF13F0E5
:104ED000804F03D100F005F8FFF726FFF0BCBDE8D6
:104EE000008820F07F4780EA030023F07F4C07EB27
:104EF0000C03A3F57C5300F00040A3F1FE0392F0F5
:104F0000000F00F0B38095F0000F00F077802DE9DE
:104F100001494FEA11404FEA144621EA004800FBDC
:104F200006FC24EA064708FB06F607FB08F800FB28
:104F300007F718EB06484CEB164C4FEA124B18EBF0
:104F400007484FEA15464CEB174022EA0B4E0BFB85
:104F500006FC25EA06470EFB06F607FB0EFE0BFBDA
:104F600007F71EEB064E4CEB164C4FF000061EEBFF
:104F7000074E4CEB174B18EB0B0840F1000018EBF9
:104F80000E0B58EB000840F100008F1A4FF00001A3
:104F90003CBFC943661B14BFB5EB040C00213CBFEA
:104FA000C943F61B4FEA17444EEA8E0E27EA044522
:104FB0004FEA1C4704FB07622CEA074C05FB07F786
:104FC0000CFB05F604FB0CFC16EB074642EB174204
:104FD00016EB0C4642EB1C421BEB060658EB02029A
:104FE000414146EA9E0601D5BDE80189B619524104
:104FF00041EB0101A3F10103BDE801894FEA14452A
:105000004FEA114724EA054621EA074C05FB07F45D
:1050100006FB07F70CFB06F105FB0CFC11EB074147
:1050200044EB17444FEA124711EB0C4144EB1C448C
:1050300022EA074C05FB07F206FB07F70CFB06F616
:1050400005FB0CFC16EB074642EB174216EB0C4631
:1050500042EB1C456A1854F1000148BF7047B6196D
:10506000524141EB0101A3F10103704795F0000F9C
:1050700037D04FEA11424FEA144721EA024624EAA8
:10508000074C02FB07F106FB07F70CFB06F402FBDB
:105090000CFC14EB074441EB17414FEA154714EBA6
:1050A0000C4441EB1C4125EA074C02FB07F506FBCB
:1050B00007F70CFB06F602FB0CFC16EB074645EB6C
:1050C000174516EB0C4645EB1C42121951F1000135
:1050D00048BF7047B619524141EB0101A3F10103EA
:1050E00070474FEA14454FEA114724EA054621EA82
:1050F000074C05FB07F106FB07F70CFB06F24FF028
:10510000000605FB0CFC12EB074241EB174112EBCA
:105110000C4251EB1C4148BF7047921841EB010112
:10512000A3F1010370470000F0B5CB780022DC0644
:1051300003F00F0301D58C7823430C880F2714F05C
:10514000FF0F4FF0010C1CD0D0F800500E880CFA65
:1051500002F42640A64210D1960007FA06FE25EA80
:105160000E0E03FA06F5CE7845EA0E05282E00D17C
:105170004461CE78482E00D10461521C082AE5D340
:1051800005600A88FF2A1ED94568002202F1080638
:105190000CFA06F40E882640A64210D1960007FAB3
:1051A00006FE25EA0E0E03FA06F5CE7845EA0E0550
:1051B000282E00D14461CE78482E00D10461521CC3
:1051C000082AE3D34560F0BD0029018802D041F4EC
:1051D000806101E021F48061018070470246938A7A
:1051E0000020128B43EA024323F07F428A4200D11F
:1051F000012070470029018802D041F0010101E03F
:1052000021F00101018070470A4910B540180DD006
:10521000B0F5806F0DD101218C05204600F0DAF841
:105220002046BDE81040002100F0D4B801214C0513
:10523000F3E710BD00ACFFBF0029018802D041F4A4
:10524000807101E021F4807101807047002901889C
:1052500002D041F4007101E021F400710180704737
:105260000246938A0020128B21F07F4143EA0243D9
:105270000B4200D00120704770B50446808886B08C
:105280000D4620F03F0601A800F0BCF82549039820
:10529000B0FBF1F189B20E43A680228822F0010210
:1052A0002280214BEA689A421CD85200B0FBF2F0EF
:1052B00080B2042800D20420491C2184A0832088C5
:1052C00040F00100208020884FF6F5310840298801
:1052D000EA881143014321802889A9880843208155
:1052E00006B070BD6B88A3F53F46FF3E05D102EBCB
:1052F0004202B0FBF2F080B206E019235A43B0FB41
:10530000F2F080B240F48040020501D140F001008B
:105310004FF4967251434FF47A72B1FBF2F140F4BC
:105320000040C9E740420F00A0860100008AC0B2D9
:10533000704712B141F0010101E001F0FE0101826C
:10534000704701827047F0B50F23C27801784FF0A3
:10535000E024012742B3D4F80C2D467802F4E06231
:10536000C2F5E062120AC2F10405D3408278AE4071
:105370001A40324315018A07D20E954021F00301ED
:105380000B19D3F80064FF2191408E430D402E434A
:10539000C3F800640078410900F01F0004EB8101AC
:1053A0008740C1F80071F0BD01F01F008740480937
:1053B00004EB8000C0F88071F0BD0000044A0029B1
:1053C000D16901D0014300E08143D1617047000001
:1053D00000100240044A0029116901D0014300E095
:1053E000814311617047000000100240044A002907
:1053F000916901D0014300E0814391617047000051
:105400000010024030B5204A5168204B11F00C01C9
:1054100003D0042901D0082901D0036011E05168AC
:10542000022401F4701104EB91415468184D14F4F6
:10543000803F02D05468A40301D5694300E059437A
:1054400001605168134B01F0F00109095C5C0168CF
:10545000E1404160546804F4E064240A1C5D21FAD0
:1054600004F48460546804F46054E40A1B5DD94079
:10547000C1605268074B02F44042920B1B1F9A5CBA
:10548000B1FBF2F1016130BD0010024000127A0060
:1054900000093D00A866000830B5048C24F0010422
:1054A0000484058B048C42EA031325F0F3052B4397
:1054B00024F002020A4342F001010383018430BD5B
:1054C00030B5048C24F010040484058B048C25F47E
:1054D000734545EA033343EA022224F0200343EAFA
:1054E000011343F010010283018430BD00290188BB
:1054F00002D041F0800102E040F27F321140018091
:1055000070470029018802D041F0010102E040F219
:10551000FE32114001807047002A828901D00A437F
:1055200000E08A4382817047F0B5028C22F00102CC
:105530000284058C8288038B0C8823F070030E890B
:1055400025F002051C434B882E43CF880C4D334376
:105550008786A84202D00B4DA8420DD14D8923F079
:1055600008031D4325F004068B8822F403453343CA
:105570008E89CA892E433243828004830384F0BD1E
:10558000002C014000340140028B22F008020A4343
:105590000283704770B5028C22F010020284028CE4
:1055A0008388048B22F0200224F4E0450C88164EF8
:1055B000240645EA14440D892D0542EA15454A881A
:1055C000120545EA1242CD88B042058702D00F4D40
:1055D000A84215D14D8922F080022D0542EA1545D9
:1055E0008A8825F04005120545EA12428D89C9894D
:1055F000AD0423F40C4343EA1545890445EA1143FD
:1056000083800483028470BD002C0140003401407B
:10561000028B22F4006242EA0121018370470000FC
:1056200070B5028C22F480720284058C8388828B90
:105630000C8822F070020E89144325F4007532069E
:1056400045EA12464A88CD88120646EA1242104EB2
:105650008587B04202D00F4DA84215D122F40065D3
:105660004A8923F43043120645EA124222F4806547
:105670008A88120645EA12428D89C9892D0543EAB6
:105680001545090545EA114383808483028470BD72
:10569000002C014000340140828B22F008020A43B2
:1056A000828370472DE9F0410C4600254988074662
:1056B000012601B90225A288012A00D102262088EC
:1056C00023890028384611D1FFF7E6FEE1883846E5
:1056D00000F034F82389324629463846FFF7F0FEB9
:1056E000E1883846BDE8F04100F030B8FFF7E8FE49
:1056F000E188384600F02AF82389324629463846A0
:10570000FFF7CAFEE1883846BDE8F04100F016B860
:10571000028922F070020A4302817047028922F056
:105720008002028102890A4302817047028922F0C5
:105730000702028102890A4302817047028B22F02C
:105740000C020283028B0A4302837047028B22F40D
:1057500040620283028B42EA01220283704700000A
:1057600010B5028802F08F020280CA884B88048834
:105770001A43224302808A88064C012382850A88C4
:10578000A0420285838202D0034A904201D1097A65
:10579000018610BD002C014000340140490050EA50
:1057A000C12018BF04204A0D18BF40F0010040F28C
:1057B000FF72B2EB515F08BF40F00200012808BF42
:1057C00005207047024A0020110700F01EBC0000AF
:1057D00001FDFFFF10B50446D1E9000100F002F819
:1057E000206010BD38B504460D466A4600F050F8FA
:1057F00000987E30009000281FDC002213462046CF
:10580000294600F023F918D02046294600F0D8F8A0
:105810000446002140F608004FF0000040F6080161
:10582000014040F608004FF0000034F0004004BF93
:105830000220FEF704FE204638BD0098FF280DDB4D
:105840000220FEF7FCFD002213462046294600F008
:1058500073FA8CBF04484FF0FF4038BD20462946FC
:10586000BDE8384000F0ACB8000080FF10B5044639
:105870000A46D4E90003194600F036F8C4E90001ED
:1058800010BD30380A2801D201207047002070472F
:1058900010B5144600222260114A21F000439342C1
:1058A000A8BF10BD53EA000208BF10BDB3F5801FAA
:1058B000A8BF226807DA362200F0A7FB6FF0350296
:1058C00021F000432260DFF81CC06FF31E510CEB87
:1058D00023531A4441F0FF5141F00051226010BDA2
:1058E0000000F07F02FCFFFF2DE9F04106460C4668
:1058F00040F2FF75174635EA145030D000221346A7
:10590000304600F0A3F82AD03A463046214600F04F
:105910007CFB06460C4635EA145010D00022134694
:10592000304600F093F81AD10220FEF788FDFFF709
:1059300049FF0A46214662F31E01BDE8F0810220BC
:10594000FEF77DFD40F2013200204FF0E04100F013
:105950005CFB0A46214662F31E01BDE8F081304639
:105960002146BDE8F081000010B500290AD0087872
:10597000002807D005487844FDF70EFD002801D027
:10598000002010BD0248784410BD0000260E000023
:105990001E0E000010B500290AD00878002807D094
:1059A00005487844FDF7F8FC002801D0002010BD20
:1059B0000248784410BD0000160E00000E0E0000D4
:1059C00021F00042A2F16052B2F5801F01F00043C5
:1059D00028BFD2F17F6C0BD95FEA001C43EAC202F8
:1059E00042EB507018BF704728BF20F0010070478D
:1059F000B2F5801FBCBF184670474FEA410C1CF53A
:105A0000001F02D2084600F0C7BA70B500F040F996
:105A100000000089FFF7F6BF4FF00040A0F58000BE
:105A20007047000002494FF0000000F0BCBA00BF10
:105A30000000F87F491058BFC1F140415B1058BFCA
:105A4000C3F140438B42EFF30080704751EA030CEF
:105A500017D41CF5801F58BFBCF5801F00F10680CD
:105A6000994218BF704708BF9042704707D711F599
:105A7000801F58BF13F5801F19D49942704789427F
:105A800070471CF5801F08D5BCF5801FF7D58B42E9
:105A900018BF704708BF824270474FF4001C1CEBD0
:105AA000410F38BF1CEB430F01D28B42704770B5DA
:105AB00000F0EEF8922449004FF000514FF080536F
:105AC000FFF7B8BF51EA030C17D41CF5801F58BF6D
:105AD000BCF5801F00F10680994218BF704708BFCF
