:020000040800F2
:1000000078080020E9020008ED020008EF0200086D
:10001000F1020008F3020008F502000800000000E9
:10002000000000000000000000000000F7020008CF
:10003000F902000800000000FB020008FD020008B1
:10004000FF020008FF020008FF020008FF0200088C
:10005000FF020008FF020008FF020008FF0200087C
:10006000FF020008FF020008FF020008FF0200086C
:10007000FF020008FF020008FF020008FF0200085C
:10008000FF020008FF020008FF020008FF0200084C
:10009000FF020008FF020008FF020008FF0200083C
:1000A000FF020008FF020008FF020008FF0200082C
:1000B000FF020008FF020008FF020008FF0200081C
:1000C000FF020008FF020008FF020008FF0200080C
:1000D000FF020008FF020008FF020008FF020008FC
:1000E000FF020008FF020008FF02000800F002F80B
:1000F00000F03CF80AA090E8000C82448344AAF186
:100100000107DA4501D100F031F8AFF2090EBAE883
:100110000F0013F0010F18BFFB1A43F0010318473B
:100120007C2700009C270000103A24BF78C878C1C3
:10013000FAD8520724BF30C830C144BF04680C60ED
:10014000704700000023002400250026103A28BF35
:1001500078C1FBD8520728BF30C148BF0B60704739
:100160001FB502F093F91FBD10B510BD01F02FFFB0
:100170001146FFF7F5FF00F0D3F801F04DFF03B48F
:10018000FFF7F2FF03BC01F055FF000010B500BF00
:100190004FF012004749086000BF00BF464847497A
:1001A00048604748086000BF00BF4448006810F43A
:1001B000003FFAD000BF4148006810F0007FFAD03D
:1001C00000BF3E48406800F00C000828F9D100BF8D
:1001D00000BF3A48806940F00400384988614FF018
:1001E0004000384908604FF4802001F104010860A4
:1001F0003248806940F00800304988614FF0400083
:10020000314908604FF0000001F10401086000BFAF
:1002100000F005F810BD2D4870472D48704727485D
:10022000806940F00100254988612A48406820F033
:100230000400284948602148806940F004001F49B3
:1002400088612548006820F47F60234908600846DB
:10025000006840F0B00008600846006840F4806024
:1002600008601648806940F480401449886140F273
:1002700071201A4908804FF0000001F10401088044
:1002800001F104010880A1F104000088A1F104013A
:1002900008804FF00000124908801248008840F0A2
:1002A0000C00104908800846008840F4005008807F
:1002B000704700000020024002841D000010024030
:1002C0008200010100080140000C0140005125029C
:1002D00000A24A040000014004080140083801401F
:1002E000143801400C38014008480047FEE7FEE79B
:1002F000FEE7FEE7FEE7FEE7FEE7FEE7FEE7FEE7D6
:1003000003480449044A054B70470000ED0000080B
:100310007804002078080020780600207806002065
:1003200008B5FFF733FF00F04AFB00F085F9B9A0EC
:1003300000F0CEFB00F019FD00F017FD00F075FD98
:10034000002000F025FE7F2000F0B8FD002000F026
:1003500088FE4FF00000B14908600FE0B04811235B
:10036000102217210090AD480068C0B201F0A0FD36
:10037000AA48006800F11000A8490860A948008850
:10038000401EA64909688842E8DC00F04EFE0623BC
:1003900005220221002000F06FFE00F0CEFE4FF497
:1003A0007A7000F07BFC33E132239F4802789F484B
:1003B00001789F48007800F07FF99848016800684C
:1003C000401C964A106043F698208142EBDD994824
:1003D000006828B99448007800F10100924908703B
:1003E00091480078FF2808D19248006828B99148C0
:1003F000006800F101008F4908608E4800680128FC
:1004000005D189480078A0F1010087490870864825
:10041000007848B987480068012805D185480068F8
:1004200000F101008349086082480068022805D174
:100430007F48007800F101007D4908707C48007811
:10044000FF2809D17B480068022805D17948006857
:1004500000F101007749086076480068032805D15B
:1004600073480078A0F10100714908707048007865
:1004700048B970480068032805D16E48006800F14B
:1004800001006C4908606B480068042805D1674882
:10049000007800F101006549087064480078FF2881
:1004A00009D164480068042805D16248006800F159
:1004B0000100604908605F480068052805D15B4875
:1004C0000078A0F10100594908705848007848B9EF
:1004D00058480068052805D15648006800F1010019
:1004E0005449086053480068062805D150480078F0
:1004F00000F101004E4908704D480078FF2809D1ED
:100500004C480068062805D14A48006800F10100FF
:100510004849086047480068072805D143480078E3
:1005200000F101004149087040480078FF2809D1D6
:1005300040480068072805D13E48006800F10100E6
:100540003C4908603B480068082805D138480078D5
:10055000A0F10100364908703548007848B935489F
:100560000068082805D13348006800F101003149CE
:10057000086030480068092805D12B48007800F150
:1005800001002949087028480078FF2809D1294826
:100590000068092805D12748006800F101002549B5
:1005A0000860244800680A2805D12148007800F135
:1005B00001001F4908701E480078FF2809D11D4816
:1005C00000680A2805D11B48006800F1010019499C
:1005D0000860184800680B2805D114480078A0F17D
:1005E0000100124908701148007868B91148006884
:1005F0000B2809D14FF000000E4908600C49087023
:100600000A490870084908704FF000000349086063
:10061000CAE6000068656C6C6F0A000008000020E4
:1006200056280008120000200200002001000020CF
:10063000000000200400002008B50121082001F07E
:1006400097FD4FF010008DF8030044F20300ADF861
:1006500000004FF003008DF802006946AA4801F03F
:10066000F1FC08BD10B5A94B1B6823F00103A74C92
:10067000236023461B6823F00203236023461B6884
:1006800023F48043236023461B6800F0010443EAFF
:1006900004039E4C236023461B6801F0010443EAD7
:1006A00044039A4C236023461B6802F0010443EA8A
:1006B0008433964C236010BDF0B504460D461646B3
:1006C0001F4693480168006800F10100904A1060DD
:1006D000B94223D94FF00000114608608D4B1B78BA
:1006E0009E4201DD012300E000231A46894B1B785E
:1006F0009D4201DD012300E000231946854B1B7854
:100700009C4201DD012300E000231846FFF7AAFF09
:100710008048007800F101007E490870F0BD30B5D6
:1007200087B04FF4AF652C464FF001014FF0040045
:1007300001F012FD4FF4E150ADF814004FF000004D
:10074000ADF81000ADF81600ADF8120004A972481B
:1007500001F07EFE4FF06000ADF800004FF00100A8
:10076000ADF80200ADF806504FF00000ADF80800FB
:100770006946694801F050FD0821674801F07CFD99
:100780004FF00100ADF80200ADF80640694662483E
:1007900001F078FD0821604801F0B2FD01215E48BA
:1007A00001F01CFD01215C4801F023FD07B030BDC4
:1007B00010B588B04FF4AF644FF001014FF0020064
:1007C00001F0CAFC4FF01D008DF800004FF0000052
:1007D0008DF801004FF001008DF802008DF8030044
:1007E000684601F07FFC4FF4E150ADF818004FF07F
:1007F0000000ADF81400ADF81A00ADF81400ADF823
:10080000160005A9454801F023FE4FF06000ADF841
:1008100004004FF00100ADF80600ADF80A404FF0BB
:100820000000ADF80C0001A93C4801F071FD082161
:100830003A4801F0A9FD0121384801F0DAFC08B07E
:1008400010BD1FB50121084601F086FC4FF01C00C9
:100850008DF80C004FF000008DF80D004FF00100F6
:100860008DF80E008DF80F0003A801F03BFC4FF04F
:100870000400ADF800004FF00000ADF802004FF0AA
:100880000100ADF804004FF00C00ADF806004FF089
:100890000000ADF8080069464FF0804001F07AFD95
:1008A00060214FF0804001F0ABFD0421080701F00A
:1008B000B5FD8021C80501F0A9FD0121880701F0DF
:1008C00098FC01220421080701F09EFC1FBD70B5B1
:1008D00004460E48006840F400500C490860254664
:1008E00004EBD5714FEA610000F0D8F907480068C1
:1008F00020F400500549086004EBD5714FEA61000F
:1009000000F0CCF970BD0000000C01400C0C01405F
:100910000C000020100000200008004000040040EF
:100920000146CC480088C2B20A70CA4800884FEA23
:1009300020224A70C8480088C2B28A70C64800881F
:100940004FEA2022CA70C5480068C2B20A71C34883
:100950000068C0F307224A71C0480068C0F307422C
:100960008A71BE4800684FEA1062CA71BC480068CC
:10097000C2B20A72BA480068C0F307224A72B84885
:100980000068C0F307428A72B54800684FEA1060F9
:100990000246CA72704730B502460B464FF000015E
:1009A00009E05D5C505C4C1C6040854201D0002039
:1009B00030BD01F101010C29F3DB0120F8E7A94862
:1009C000806940F00100A7498861A748406820F08D
:1009D0004070A54948600846406840F08060486023
:1009E000704730B5A14A4FF00004002805DAC0F185
:1009F00000004FF02D0501F8015B00BFB0FBF2F5E0
:100A0000EBB213B90CB9012A05D103F1300501F895
:100A1000015B4FF00104B0FBF2F502FB15004FF053
:100A20000A05B2FBF5F2002AE8D115460D7030BD7B
:100A300001460A2909D100BF8D48008810F0800FB7
:100A4000FAD04FF00D008B4A108000BF8848008814
:100A500010F0800FFAD0C8B2864A1080704700BFED
:100A60008348008810F0200FFAD082480088C0F335
:100A70000800704701460A2909D100BF7E48008856
:100A800010F0800FFAD04FF00D007C4A108000BFAC
:100A90007948008810F0800FFAD0C8B2774A1080E9
:100AA000704700BF7448008810F0200FFAD07348D8
:100AB0000088C0F30800704710B5034604E013F83F
:100AC000014B2046FFF7B4FF18780028F7D110BD7E
:100AD00010B5034604E013F8014B2046FFF7A8FFCA
:100AE00018780028F7D110BD10B5034604E013F8BC
:100AF000014B2046FFF7BEFF18780028F7D110BD44
:100B000000BF5B49098811F0800FFAD0594908806D
:100B1000704730B502460B464FF0000506E012F86C
:100B2000014B2046FFF7ECFF05F101059D42F6DB86
:100B300030BD10B5034604E013F8014B2046FFF723
:100B400099FF18780028F7D110BD70B5A0B00646FF
:100B500040480088C4B28DF864403E4800884FEA9F
:100B600020248DF865403C480088C4B28DF866406A
:100B7000394800884FEA20248DF8674037480068DC
:100B8000C4B28DF8684035480068C0F307248DF87A
:100B9000694032480068C0F307448DF86A402F4826
:100BA00000684FEA10648DF86B402D480068C4B2AD
:100BB0008DF86C402A480068C0F307248DF86D401A
:100BC00027480068C0F307448DF86E402448006849
:100BD0004FEA10648DF86F404FF000008DF8700000
:100BE00027A0FFF769FF4FF0000517E019A9485D3E
:100BF0001DA9FFF7F6FE1DA8FFF76AFF1DA96846AD
:100C000001F096F90B2D06DA22A0FFF755FF21A17E
:100C1000684601F08DF905F10100C5B20C2DE5DB48
:100C20001DA0FFF749FF3146684601F08DF910B964
:100C3000012020B070BD0020FBE702464FF000000D
:100C400000BF04E04FF00003135400F1010088429C
:100C5000F8DB7047E8F7FF1FEAF7FF1FECF7FF1F0D
:100C6000F0F7FF1F001002400000014000CA9A3B4D
:100C70000038014004380140004400400444004072
:100C80000A556E69717565206465766963652049EA
:100C900044203A002C0000000A2D3E0010B54FF011
:100CA0000002114608E04FF0000101E001F10101EE
:100CB00042F228339942F9D31346521C8342F2D3AD
:100CC00010BD10B54FF00002114606E04FF00001D4
:100CD00001E001F101010929FBD31346521C8342B3
:100CE000F4D310BD01464FF000004FF0800013E038
:100CF000014204D04FF48072FA4B1A6003E04FF0C7
:100D00008072F84B1A604FF40072F64B1A604FF085
:100D100000721A604FEA60000028E9D1704770B590
:100D200005460E464FF0000404E0285DFFF7DAFFA9
:100D300004F10104B442F8DB70BD10B504464FF471
:100D40008010E84908602046FFF7CCFF10BD30B5A1
:100D500005460C464FF48010E24908602846FFF72C
:100D6000C1FF2046FFF7BEFF30BD08B501210420BA
:100D700001F0FEF94FF010008DF803004FF48040B1
:100D8000ADF800004FF003008DF802006946D64828
:100D900001F058F94FF48040D44908604FF010003A
:100DA0008DF80300ADF800004FF003008DF802004D
:100DB0006946CF4801F046F94FF48010C9490860F0
:100DC0004FF010008DF803004FF02000ADF8000048
:100DD0004FF003008DF802006946C54801F032F972
:100DE0004FF48010BF4908604FF010008DF80300E9
:100DF0004FF48070ADF800004FF003008DF8020052
:100E00006946BB4801F01EF94FF010008DF8030051
:100E10004FF40070ADF800004FF003008DF80200B1
:100E20006946B34801F00EF908BD00B54FF48040A3
:100E3000AE4908604FF40010AA4908604FF0200046
:100E400008604FF08040A94908604FF03F014FF023
:100E5000A800FFF77CFF0021D320FFF778FF402098
:100E6000FFF76BFFA020FFF768FFC020FFF765FFCB
:100E70001221DA20FFF76BFF3021DB20FFF767FF3D
:100E80007F218120FFF763FFA420FFF756FFA620F4
:100E9000FFF753FFF021D520FFF759FF14218D20D4
:100EA000FFF755FFAF20FFF748FF00212020FFF795
:100EB0004EFF4FF480408D49086000BD10B50446D8
:100EC0004FF080408949086021464FF08100FFF7CC
:100ED0003EFF4FF480408549086010BD10B50446C0
:100EE0004FF08040814908600CB1A52100E0A421A9
:100EF0000846FFF722FF4FF480407C49086010BD90
:100F000010B504464FF08040784908600CB1A72125
:100F100000E0A6210846FFF710FF4FF48040734918
:100F2000086010BD10B504464FF080406F4908605E
:100F30000CB1AF2100E0AE210846FFF7FEFE4FF4F2
:100F400080406A49086010BD10B504464FF08040EB
:100F5000664908600CB1A12100E0A0210846FFF716
:100F6000ECFE4FF480406149086010BD10B50446A6
:100F70004FF080405D4908600CB1C82100E0C021FD
:100F80000846FFF7DAFE4FF480405849086010BD6C
:100F900010B50446012C04D0022C12D0032C30D101
:100FA0001FE04FF04000534908804FF08000524945
:100FB00008804FF00100FFF7C7FF0020FFF7D6FFC2
:100FC0002FE04FF040004B4908804FF080004A4925
:100FD00008804FF00000FFF7B7FF0120FFF7C6FFC2
:100FE0001FE04FF08000434908804FF04000424925
:100FF00008804FF00000FFF7A7FF0020FFF7B6FFC3
:101000000FE04FF080003B4908804FF040003A4924
:1010100008804FF00100FFF797FF0120FFF7A6FFC0
:1010200000BF00BF3548047010BD00B54FF08040D0
:101030002E4908604FF006013148FFF770FE4FF06F
:101040001000284908604FF480612E48FFF767FEC2
:101050004FF48010234908604FF480402349086012
:1010600000BD4FF4806101E0264A50540A00A1F10E
:10107000010399B2F8D17047F0B504460D46164603
:101080001F464FF08040194908600CB9262100E046
:1010900027210846FFF751FE0020FFF74EFE2846A5
:1010A000FFF74BFE3846FFF748FE3046FFF745FE98
:1010B0000020FFF742FEFF20FFF73FFE4FF4804085
:1010C0000A490860F0BD2DE9F04104460D46164678
:1010D0001F46DDF818804FF08040044908609CB935
:1010E000292112E0100C01400008014010080140C5
:1010F000000C014012000020140000201700002006
:1011000086280008180000202A210846FFF715FE4F
:101110000020FFF712FE2846FFF70FFE3846FFF7C4
:101120000CFE3046FFF709FE4046FFF706FE4FF47F
:101130008040F8490860BDE8F08100B54FF080407C
:10114000F44908604FF02F00FFF7F7FD4FF480409F
:10115000F049086000BD00B54FF08040ED490860DF
:101160004FF02E00FFF7E9FD4FF48040E949086099
:1011700000BD70B503460C46E74D2D78012D03D018
:10118000E54D2D78022D06D14FEAE30504EBC5109D
:1011900003F0070105E04FEAE40503EBC51004F096
:1011A0000701B0F5806F00D970BD012A02D0022A74
:1011B00017D10AE0D94D2D5C4FF0010606FA01F671
:1011C00025EA0605D54E355416E0D44D2E5C4FF079
:1011D000010505FA01F586EA0506F5B2CF4E35544C
:1011E0000AE0CE4D2D5C4FF0010606FA01F645EA05
:1011F0000605CA4E355400BF00BF00BFD4E770B526
:1012000004460B464FEAE305C44E06EBC51505EB55
:10121000040003F007064FF0010505FA06F5E9B2F0
:10122000BF4D2D78012D02D0022D1BD10EE06FEAAB
:101230000105E9B204E0057805EA010500F8015B63
:101240001500A2F10106F2B2F5D117E004E005782D
:1012500085EA010500F8015B1500A2F10106F2B272
:10126000F5D10BE004E0057845EA010500F8015BE3
:101270001500A2F10106F2B2F5D100BF00BF70BDAA
:10128000F0B505460C464FEAE406A44F07EBC61638
:1012900006EB050004F007036BB3C3F10806F3B2D5
:1012A000A04EF15C934207DDA3EB02074FF0FF066F
:1012B00046FA07F606EA0101994E3678012E02D069
:1012C000022E0AD104E0067826EA0106067009E03B
:1012D000067886EA0106067004E0067846EA01060A
:1012E000067000BF00BF934200DDF0BD00F180003A
:1012F000A2EB0306F2B2072A2CDD894E3678012EC6
:1013000002D0022E19D10BE000BF4FF0000606708C
:1013100000F18000A2F10806F2B2072AF5DC18E01D
:1013200000BF06786FEA0606067000F18000A2F1A1
:101330000806F2B2072AF4DC0BE000BF4FF0FF060C
:10134000067000F18000A2F10806F2B2072AF5DC6F
:1013500000BF00BFD2B102F00703734EF15C704EC4
:101360003678012E02D0022E0AD104E0067826EA51
:101370000106067009E0067886EA0106067004E0B8
:10138000067846EA0106067000BF00BF00BFACE762
:101390002DE9F04105460E469046B54204DD34463F
:1013A000A5EB0600C7B203E02C46A6EB0500C7B2CA
:1013B00007F10100C7B258480078012803D0564809
:1013C0000078022805D13A4621464046FFF758FFEB
:1013D00004E03A4641462046FFF711FFBDE8F081A0
:1013E0002DE9F04180460D461646B54204DD3446EF
:1013F000A5EB0600C7B203E02C46A6EB0500C7B27A
:1014000007F10100C7B244480078012803D04248E0
:101410000078022805D13A4641462046FFF7EFFE04
:1014200004E03A4621464046FFF72AFFBDE8F08136
:101430002DE9F05F05460E46174698463648007877
:10144000012803D034480078022814D1BD4205DDBC
:101450003C46A5EB040000F0FF0A04E02C46A7EB95
:10146000040000F0FF0A464502DDB146C34616E01F
:10147000C146B34613E0464505DD4446A6EB0400ED
:1014800000F0FF0A04E03446A8EB040000F0FF0A75
:10149000BD4202DDA946BB4601E0B946AB460AF1B2
:1014A000010000F0FF0A00BF524621464846FFF700
:1014B000E7FE4846411E01F0FF095845F4DCBDE84F
:1014C000F09F2DE9FF4F83B004460D469346ABEBEA
:1014D000040007B20698A0EB05000FFA80F8002F71
:1014E00002DD4FF0010001E04FF0FF300290B8F153
:1014F000000F02DD4FF0010001E04FF0FF300190DE
:10150000A7B90698C2B2E9B2E0B2FFF769FF07B027
:10151000BDE8F08F100801401700002018000020DF
:10152000160000208C28000894280008B8F1000F4D
:1015300006D1EAB20BF0FF01E0B2FFF729FFE6E7C0
:101540000298784307B2019808FB00F00FFA80F880
:101550004FEA47000FFA80F94FEA48000FFA80FA85
:1015600047451CDBAAEB070006B215E0F8480278F5
:10157000E9B2E0B2FFF7FDFD0298204404B2002E6C
:1015800003DA06EB0A0006B206E0AAEB09003044D3
:1015900006B20198284405B25C45E7D11CE0A9EBEE
:1015A000080006B215E0EA480278E9B2E0B2FFF7B7
:1015B000E0FD0198284405B2002E03DA06EB09008D
:1015C00006B206E0A9EB0A00304406B202982044B5
:1015D00004B206988542E6D1DD480278E9B2E0B26D
:1015E000FFF7C7FD00BF92E72DE9FC4F05460C460B
:1015F0009046C8F1010A4FF0000001904FEA480000
:10160000C0F1000000904FF000064746D148008826
:10161000A0F101000FFA80F9CF480088A0F1010085
:101620000FFA80FB7BE0BAF1000F0BDB009800F1B2
:10163000020000B20090009850440FFA80FAA7F11F
:10164000010007B2019800F1020000B20190019878
:1016500000F1010050440FFA80FA06F1010006B2D1
:1016600005EB0600584514DAE019484507DAE21997
:10167000D1B2AA19D0B2B64A1278FFF77AFDE01BB0
:1016800007D4E21BD1B2AA19D0B2B14A1278FFF73F
:1016900070FDA81B14D4E019484507DAE219D1B24D
:1016A000AA1BD0B2AA4A1278FFF763FDE01B07D449
:1016B000E21BD1B2AA1BD0B2A54A1278FFF759FD9E
:1016C000E819584514DAA019484507DAA219D1B229
:1016D000EA19D0B29E4A1278FFF74BFDA01B07D43F
:1016E000A21BD1B2EA19D0B2994A1278FFF741FD94
:1016F000E81B14D4A019484507DAA219D1B2EA1B95
:10170000D0B2934A1278FFF734FDA01B07D4A21B76
:10171000D1B2EA1BD0B28E4A1278FFF72AFDBE4240
:1017200081DB05EB0800584507DA05EB0801C8B274
:1017300087490A78E1B2FFF71CFDB5EB080007D432
:10174000A5EB0801C8B282490A78E1B2FFF711FDA2
:1017500004EB0800484507DA04EB0800C1B27C48F6
:101760000278E8B2FFF705FDB4EB080007D4A4EB5C
:101770000800C1B276480278E8B2FFF7FAFCBDE88B
:10178000FC8F2DE9FF4F89B006460F469B464FF070
:1017900000050FFA8BF40B9800FB00F80BFB0BFA1B
:1017A0000B9800F0010000EBA8005044C0F10000CD
:1017B00008900BF0010000EBAA004044C0F10000CB
:1017C00007900BF0010000EBAA00C0F100000690AA
:1017D000C8F1000000FB04F90AFB05F04FEA4000E5
:1017E0000590C8F1000000FB04F04FEA40000490AF
:1017F0004FEA4A0003904FEA48000290554800889B
:10180000A0F1010000B2019053480088A0F101004E
:1018100000B2009070E07119009881420BDA39191A
:101820000198814207DA3A19D1B27219D0B2484A06
:101830001278FFF79EFC05B95CB1701B09D4381B08
:1018400007D43A1BD1B2721BD0B2414A1278FFF7CB
:1018500090FCE5B1DCB171190098814209DA381BBE
:1018600007D43A1BD1B27219D0B2394A1278FFF7B5
:1018700080FC701B0BD439190198814207DA3A19A0
:10188000D1B2721BD0B2324A1278FFF772FC05FB5C
:101890000A910898814204DD04FB08910698814270
:1018A00009DC03990598084405900598814405F1E1
:1018B000010005B220E004FB18910798814209DD80
:1018C000029904980844049004988144A4F101000A
:1018D00004B211E003990598084405900299049810
:1018E00008440490059881440498814405F101005E
:1018F00005B2A4F1010004B2002C02DB0B98854272
:1019000089DD0DB0BDE8F08F2DE9FF4F81468A4695
:101910001C4621790298814203DC61790298814258
:1019200001DAA079029021790298A0EB0101A27856
:101930000D9801FB0208E07800285CD16078092846
:1019400024DA4E461DE0574618F8015B14E000000B
:1019500016000020140000201200002015F0010FD6
:1019600005D0FE48027839463046FFF702FC4FEAC0
:10197000650507F10100C7B2002DEFD106F10100A6
:10198000C6B220784844B042DDDC89E04E462DE006
:10199000574624E04FF0080B18F8015BE5B117E05B
:1019A00015F0010F05D0ED48027839463046FFF7B3
:1019B000E0FB4FEA65053DB107F10100C7B2ABF1AD
:1019C000010000F0FF0B03E007EB0B00C7B202E0E1
:1019D000BBF1000FE4D102E007EB0B00C7B2607867
:1019E0005044B842D6DC06F10100C6B22078484423
:1019F000B042CDDC54E0207809281DDA574616E0C5
:101A00004E4618F8015B0DE015F0010F05D0D348E4
:101A1000027839463046FFF7ACFB4FEA650506F120
:101A20000100C6B2002DEFD107F10100C7B2607806
:101A30005044B842E4DC33E057462DE04E4624E003
:101A40004FF0080B18F8015BE5B117E015F0010F36
:101A500005D0C248027839463046FFF78AFB4FEA84
:101A600065053DB106F10100C6B2ABF1010000F021
:101A7000FF0B03E006EB0B00C6B202E0BBF1000F68
:101A8000E4D102E006EB0B00C6B220784844B04235
:101A9000D6DC07F10100C7B260785044B842CDDC13
:101AA0002078401CC0B204B0BDE8F08F2DE9F847A3
:101AB0000646884614461F46DDF824903546387899
:101AC000A7490988A1EB0000A0F1010000F0FF0A7E
:101AD0000DE0CDF8009014F8012B3B464146284616
:101AE000FFF712FF2844C5B2554500DD02E020781B
:101AF0000028EED100BFA81B80B2BDE8F8872DE911
:101B0000F84306460F4615461C46DDF820904FF078
:101B1000000829E0CDF8009015F8012B234639463E
:101B20003046FFF7F1FE20788D490988081A401EDB
:101B3000B04205DD207800F101003044C6B20FE06C
:101B4000607888490988081A401EB84205DD4FF0C0
:101B5000000660783844C7B202E04FF0000637460E
:101B600008F1010000F0FF0828780028D2D1207881
:101B7000401C00FB08F080B2BDE8F8832DE9F0417D
:101B800007460C4616461D46224631463846FFF7A4
:101B9000FFFB2A4631463846FFF7FAFB681EC2B201
:101BA000601CC1B23846FFF71BFC681EC2B2601C45
:101BB000C1B23046FFF714FCBDE8F0812DE9FF4FBC
:101BC0000646884615469946DDF834A001AC3746EE
:101BD0004FF0000B584604F8010B002D03DA4FF0CC
:101BE000010BC5F1000500BF4FF00A0095FBF0F1B5
:101BF00000FB115000F1300004F8010B4FF00A0017
:101C000095FBF0F00500EFD1BBF1000F03D04FF0D2
:101C10002D0004F8010B09E0CDF800A022784B4616
:101C200041463846FFF770FE3844C7B2601E04468E
:101C300000780028F0D1B81BC0B204B0BDE8F08F26
:101C40002DE9FF470546884616469946DDF830A03F
:101C500001AC2F464FF0000004F8010B00BF4FF01D
:101C60000A00B6FBF0F100FB116000F1300004F84F
:101C7000010B4FF00A00B6FBF0F00600EFD109E0CF
:101C8000CDF800A022784B4641463846FFF73CFE8F
:101C90003844C7B2601E044600780028F0D1781B93
:101CA000C0B204B0BDE8F0872DE9F04F85B08146A1
:101CB0008A4616461F46DDF838B002ACC8464FF0DB
:101CC00000000190054604F8010B002E04DA4FF0E5
:101CD00001000190C6F1000600BF4FF00A0096FB1C
:101CE000F0F100FB116000F1300004F8010B05F188
:101CF0000100C5B24FF00A0096FBF0F00600ECD1EF
:101D0000BD4209DC06E04FF0300004F8010B05F19C
:101D10000100C5B2BD42F6DD019830B14FF02D0093
:101D200004F8010B05F10100C5B22CE00F980090FA
:101D300022785B4651464046FFF7E6FD404400F0FE
:101D4000FF0807B3681EC0B20546B8421BD19BF816
:101D500001005044401EC3B206E0000016000020FF
:101D600012000020140000209BF801005044801E47
:101D7000C1B208F10100C2B24046FFF7FFFE08F110
:101D8000030000F0FF08601E044600780028CDD153
:101D9000A8EB0900C0B205B0BDE8F08F2DE9FF4FF8
:101DA00006468A4615461F4601ACB0464FF0000B6A
:101DB000D946484604F8010B002D03DA4FF0010B19
:101DC000C5F1000500BF4FF00A0095FBF0F100FBE4
:101DD000115000F1300004F8010B09F1010000F08E
:101DE000FF094FF00A0095FBF0F00500EBD1B94573
:101DF0000ADA03E04FF0300004F8010B4846411CBA
:101E000001F0FF09B842F5DBBBF1000F03D04FF042
:101E10002D0004F8010B0AE00E980090227851463C
:101E200040460D9BFFF770FD404400F0FF08601E28
:101E3000044600780028EFD1A8EB0600C0B204B039
:101E4000BDE8F08F2DE9FF470546884616469946BE
:101E5000DDF830A001AC2F464FF0000004F8010B74
:101E600000BF06F00F0000F1300020702078392804
:101E700003DD207800F10700207004F101044FEA2F
:101E800016100600EDD109E0CDF800A022784B46EF
:101E900041463846FFF738FD3844C7B2601E044655
:101EA00000780028F0D1781BC0B204B0BDE8F087FC
:101EB0002DE9FF4F06460F469246DDF834B0B8468E
:101EC0002DE0344623E04FF000091BF8015BDDB143
:101ED00016E015F0010F07D008EB0900C1B2134856
:101EE00002782046FFF745F94FEA650525B109F16B
:101EF000010000F0FF0903E004F10100C4B202E0B8
:101F0000B9F1080FE5DB02E004F10100C4B206EB11
:101F10000A00A042D7DC08F1080000F0FF0803988F
:101F200038444045CDDCBDE8FF8F0000160000209E
:101F3000421E12F8013F002BFBD111F8013B002B90
:101F400002F8013BF9D170474FF0013C50F8042BE7
:101F500051F8043B9A4221D1A2EB0C03934313EABC
:101F6000CC1317D150F8042B51F8043B9A4215D1E9
:101F7000A2EB0C03934313EACC130BD150F8042BC0
:101F800051F8043B9A4209D1A2EB0C03934313EAA4
:101F9000CC13DBD04FF00000704700BFD01A01BA5D
:101FA000B1FA81F101F0180122FA01F0CB40C1F140
:101FB0002001DBB2C0B2C01A2CFA01F3D11A91434E
:101FC00011EAC311E6D170477047704770477546F4
:101FD00000F028F8AE4605006946534620F0070099
:101FE000854618B020B5FEF78BF9BDE820404FF0CC
:101FF00000064FF000074FF000084FF0000B21F0F3
:102000000701AC46ACE8C009ACE8C009ACE8C009BF
:10201000ACE8C0098D4670470446AFF30080204607
:10202000FEF7ADF8004870471804002000487047DC
:102030001C04002001491820ABBEFEE72600020068
:1020400070470000F0B5CB780022DC0603F00F03E8
:1020500001D58C7823430C880F2714F0FF0F4FF025
:10206000010C1CD0D0F800500E880CFA02F4264067
:10207000A64210D1960007FA06FE25EA0E0E03FAD4
:1020800006F5CE7845EA0E05282E00D14461CE78BB
:10209000482E00D10461521C082AE5D305600A8845
:1020A000FF2A1ED94568002202F108060CFA06F440
:1020B0000E882640A64210D1960007FA06FE25EAB1
:1020C0000E0E03FA06F5CE7845EA0E05282E00D14D
:1020D0004461CE78482E00D10461521C082AE3D313
:1020E0004560F0BDF0B50F23C27801784FF0E024D1
:1020F000012742B3D4F80C2D467802F4E062C2F511
:10210000E062120AC2F10405D3408278AE401A4060
:10211000324315018A07D20E954021F003010B19B5
:10212000D3F80064FF2191408E430D402E43C3F845
:1021300000640078410900F01F0004EB8101874032
:10214000C1F80071F0BD01F01F008740480904EBA1
:102150008000C0F88071F0BD044A0029D16901D027
:10216000014300E08143D16170470000001002404C
:10217000044A0029916901D0014300E08143916143
:10218000704700000010024030B5048C24F00104B8
:102190000484058B048C42EA031325F0F3052B43DA
:1021A00024F002020A4342F001010383018430BD9E
:1021B00030B5048C24F010040484058B048C25F4C1
:1021C000734545EA033343EA022224F0200343EA3D
:1021D000011343F010010283018430BD00290188FE
:1021E00002D041F0800102E040F27F3211400180D4
:1021F00070470029018802D041F0010102E040F25D
:10220000FE32114001807047002A828901D00A43C2
:1022100000E08A4382817047F0B5028C22F001020F
:102220000284058C8288038B0C8823F070030E894E
:1022300025F002051C434B882E43CF880C4D3343B9
:102240008786A84202D00B4DA8420DD14D8923F0BC
:1022500008031D4325F004068B8822F4034533430D
:102260008E89CA892E433243828004830384F0BD61
:10227000002C014000340140028B22F008020A4386
:102280000283704770B5028C22F010020284028C27
:102290008388048B22F0200224F4E0450C88164E3B
:1022A000240645EA14440D892D0542EA15454A885D
:1022B000120545EA1242CD88B042058702D00F4D83
:1022C000A84215D14D8922F080022D0542EA15451C
:1022D0008A8825F04005120545EA12428D89C98990
:1022E000AD0423F40C4343EA1545890445EA114340
:1022F00083800483028470BD002C014000340140BF
:10230000028B22F4006242EA01210183704700003F
:1023100070B5028C22F480720284058C8388828BD3
:102320000C8822F070020E89144325F400753206E1
:1023300045EA12464A88CD88120646EA1242104EF5
:102340008587B04202D00F4DA84215D122F4006516
:102350004A8923F43043120645EA124222F480658A
:102360008A88120645EA12428D89C9892D0543EAF9
:102370001545090545EA114383808483028470BDB5
:10238000002C014000340140828B22F008020A43F5
:10239000828370472DE9F0410C46002549880746A5
:1023A000012601B90225A288012A00D1022620882F
:1023B00023890028384611D1FFF7E6FEE188384628
:1023C00000F034F82389324629463846FFF7F0FEFC
:1023D000E1883846BDE8F04100F030B8FFF7E8FE8C
:1023E000E188384600F02AF82389324629463846E3
:1023F000FFF7CAFEE1883846BDE8F04100F016B8A4
:10240000028922F070020A4302817047028922F099
:102410008002028102890A4302817047028922F008
:102420000702028102890A4302817047028B22F06F
:102430000C020283028B0A4302837047028B22F450
:1024400040620283028B42EA01220283704700004D
:1024500010B5028802F08F020280CA884B88048877
:102460001A43224302808A88064C012382850A8807
:10247000A0420285838202D0034A904201D1097AA8
:10248000018610BD002C01400034014010B5FFF75B
:10249000CDFD4FF00001016010BD21007F2200073B
:1024A000000000000000000000001818181818189C
:1024B00018001818363636360000000000000036C6
:1024C000367F7F367F7F3636083E6B0B0E38686B63
:1024D0003E0867653718180C0C7653730000001E11
:1024E00033331E73337E18181818000000000000E4
:1024F00030180C0C06060C0C1830060C181830306E
:1025000018180C06000008087F1C1C36220000006A
:1025100018187E7E1818000000000000003C3838B3
:10252000180C000000007F7F000000000000000089
:10253000000000183C1840606030180C06030301CE
:102540001C36636363636363361C181C1E181818FB
:102550001818187E3E63636030180C06037F7F6096
:1025600030183C606060633E30383C3633337F3037
:1025700030307F03033F67606060633E3C060303C7
:102580003F676363673E7F60603018180C0C0C0C6B
:102590003E6363633E636363633E3E736363737E64
:1025A0006060301E001C1C1C00001C1C1C0000185D
:1025B0003C18003C3838180C006030180C060C1819
:1025C0003060000000007E00007E000000060C1855
:1025D000306030180C063E6363603018180018181D
:1025E000003E7F737B4B4B7B077E1C3E6363637FA8
:1025F000636363633F6666663E666666663F3E6724
:10260000630303030363673E3F666666666666664A
:10261000663F7F0303031F030303037F7F0303035B
:102620001F03030303033E63630303037363633EF8
:10263000636363637F63636363633C1818181818EC
:102640001818183C7060606060606063633E63638C
:10265000331B0F0F1B3363630303030303030303E2
:10266000437F6363777F6B636363636363636767FE
:102670006F7B737363633E63636363636363633E30
:102680003F636363633F030303033E636363636307
:10269000637B3E603F6363633F1F333363633E632B
:1026A00063033E606063633E7E181818181818189C
:1026B00018186363636363636363633E63636363A5
:1026C0002236361C1C086363636363636B6B7F365F
:1026D000636336361C1C363663636666663C3C189C
:1026E000181818187F606030180C0603037F3E0628
:1026F000060606060606063E010303060C183060B1
:1027000060403E30303030303030303E081C366370
:102710000000000000000000000000000000007F3A
:102720000C1830000000000000000000003E607E39
:102730006363736E0303033B67636363673B00007C
:10274000003E67030303673E6060606E736363630C
:10275000736E0000003E63637F03633E3C660606C3
:10276000063F060606060000007E331E0F3E633E4F
:102770000303033B676363636363001818001C185B
:102780001818183C0060600070606063633E0303CB
:1027900003331B0F0F1B33631C1818181818181855
:1027A000183C000000367F6B6B6363630000003BE6
:1027B0006763636363630000003E63636363633E58
:1027C0000000003B6763673B03030000006E736318
:1027D000736E60600000003B6703030303030000A7
:1027E000003E63061C30633E060606063F060606EC
:1027F000663C0000006363636363736E0000006304
:1028000063636336361C0000006363636B6B7F3663
:102810000000006363361C3663630000006363736B
:102820006E60633E0000007F30180C06037F007866
:102830000C0C180E180C0C781818181818181818F2
:102840001818001E303018701830301E004E7F39B6
:1028500000000000000038448229112982443844D5
:10286000821129118244384482112911824438444A
:1028700082291129824400000001010100000000AA
:1028800000010101000021007F2200070080C0E05C
:10289000F0F8FCFE000103070F1F3F7FBC28000873
:1028A000000000201800000028010008D4280008BB
:1028B000180000206008000044010008000000002B
:1028C0000000000000000000000000000000800088
:0428D00040000000C4
:04000005080000ED02
:00000001FF
