:020000040800F2
:10000000601500208D040008910400089304000886
:1000100095040008970400089904000800000000F7
:100020000000000000000000000000009B04000829
:100030009D040008000000009F040008A1040008BF
:10004000A3040008A3040008A3040008A3040008F4
:10005000A3040008A3040008A3040008A3040008E4
:10006000A3040008A3040008A3040008A3040008D4
:10007000A3040008A3040008A3040008A3040008C4
:10008000A3040008A3040008A3040008A3040008B4
:10009000A3040008A3040008A3040008A3040008A4
:1000A000A3040008010D0008A3040008A30400082D
:1000B000A3040008A3040008A3040008A304000884
:1000C000A3040008A3040008A3040008A304000874
:1000D000A3040008ED050008A30400083D0600087D
:1000E000A3040008A3040008A304000800F002F819
:1000F00000F055F80AA090E8000C82448344AAF16D
:100100000107DA4501D100F04AF8AFF2090EBAE86A
:100110000F0013F0010F18BFFB1A43F0010318473B
:100120003C7F00005C7F0000103A24BF78C878C193
:10013000FAD8520724BF30C830C144BF04680C60ED
:10014000704700000023002400250026103A28BF35
:1001500078C1FBD8520728BF30C148BF0B60704739
:10016000662907F07C83642903F03686782903F03A
:100170006F86002070471FB507F0EFFA04F02EFEDF
:1001800004000020002106F089FC401C6060002073
:10019000002106F06DFCE0601FBD10B510BD05F03C
:1001A000E5F81146FFF7E7FF00F0C6FE05F044FB57
:1001B00003B4FFF7F2FF03BC05F05CFB9B488069CA
:1001C00040F00100994988619948406820F0040096
:1001D000974948609548806940F0040093498861D8
:1001E0009448006820F47F609249086008460068DF
:1001F00040F0B00008600846006840F48060086085
:100200008A48806940F480408849886140F27120C2
:10021000894908804FF0000001F10401088001F1D4
:1002200004010880A1F104000088A1F10401088004
:100230004FF00000814908808148008840F00C00A0
:100240007F4908800846008840F02000088001F1BE
:100250000400008801F1040108807848008877498B
:1002600008807848006840F020004FF0E021C1F895
:1002700004017348008840F40050714908806B48BD
:10028000806940F00100694988616948406820F050
:100290003000674948606548806940F0080063495C
:1002A00088616948006820F47F4067490860084613
:1002B000006840F4306008600846006840F4804000
:1002C00008605A48C06940F480205849C8614FF41A
:1002D0009C705E4908804FF0000001F10401088025
:1002E00001F104010880A1F104000088A1F10401DA
:1002F00008804FF00000564908805648008840F0BA
:100300000C00544908800846008840F0200008800E
:1003100001F10400008801F1040108804C480088C4
:100320004B4908804FF0E020D0F8040140F08000F5
:100330004FF0E021C1F804014648008840F4005025
:1003400044490880704710B500BF4FF01200424981
:10035000086000BF00BF4148344948604048086019
:1003600000BF00BF3148006810F4003FFAD000BF62
:100370002E48006810F0007FFAD000BF2B4840687C
:1003800000F00C000828F9D100BF00BF27488069A1
:1003900040F400602549886140F29F50314908804F
:1003A0004CF24F3001F1040108804FF0000001F1E0
:1003B000040108802C49088001F1040108804FF0F5
:1003C00001002A4908802A48006840F000704FF078
:1003D000E021C1F800012448008840F001002249D2
:1003E000088000BF00BF1148806940F004000F4939
:1003F000886120482049086020480E4908600B4861
:10040000806940F00800094988614FF011001C49DB
:1004100008604FF400100C49086000BFFFF7CEFEE3
:1004200010BD18487047184870470000001002407F
:100430000000014004080140083801401438014020
:100440000C38014004E100E0040C01400848004081
:10045000144800400C4800400020024002841D0067
:1004600082000101282C0140002C01400C2C01408D
:1004700000E100E03033333300080140083043002E
:10048000000C01400051250200A24A040848004720
:10049000FEE7FEE7FEE7FEE7FEE7FEE7FEE7FEE734
:1004A000FEE7FEE703480449044A054B7047000095
:1004B000ED0000086011002060150020601300208E
:1004C00060130020F849096841F6FE0221EA0201A2
:1004D000F54A1160002804DD1146096841F0020167
:1004E0001160012805DDF049096841F00401EE4A78
:1004F0001160022805DDEC49096841F00801EA4A6B
:100500001160032805DDE849096841F01001E64A59
:100510001160042805DDE449096841F02001E24A40
:100520001160052805DDE049096841F04001DE4A17
:100530001160062805DDDC49096841F08001DA4ACE
:100540001160072805DDD849096841F40061D64AE1
:100550001160082805DDD449096841F48051D24A68
:10056000116070472DE9F0414FF000010C460D4637
:100570000846CE49086012E0002001F0D1FA80461A
:1005800006F024FD064622462B4606F0CFFA044626
:100590000D46C648006800F10100C4490860C34820
:1005A00000683228E8DB0022C14B2046294606F0CD
:1005B00079FB04460D464FF00002BE4B204629460B
:1005C00006F058FD06460022BB4B06F06BFB0446C6
:1005D0000D464FF00002B94B2046294606F07EFE3C
:1005E00004460D4620462946BDE8F08110B500F0CE
:1005F0003FFFC4B2B248B34909684454B1480068E7
:1006000000F10100AF4908604FF00000AC49AD4A6D
:10061000126888540A2C08D1084603F0D2F94FF02A
:100620000000A8490860A6490870A6480068282864
:1006300003DD4FF00000A349086010BD70B500F065
:1006400045FFC6B2A048A149096846549F480068C2
:1006500000F101009D49086008460068142802DB8B
:100660004FF0000008604FF000019748974A126869
:1006700081540A2E18D1964B964A97A103F0B4FCE8
:100680009448006806F014FF0446954A954B06F01E
:10069000B5FC03D24FF000008E4908604FF0000017
:1006A000894908708949086070BD0EB58EA000F0B8
:1006B00025FF9148C088C0B28DF800008E480079AF
:1006C0008DF801008C48C0788DF802008A48807847
:1006D0008DF803004FF000008DF804004FF0190072
:1006E0008DF809004FF4A160CDF805009DE80700E2
:1006F00003F0EBFA10B981A000F000FF0EBD2DE968
:10070000F843064680480168006800F101007E4A0F
:100710001060B14260D9002001F0E1FB764800781A
:10072000009075484378827878A17D4803F016FBE5
:100730007C487D4B7A4A05210090012002F0F4F8B4
:100740006448006806F0B4FE044622460B4677A1D2
:10075000734803F003FB7348734B714A14210090F4
:10076000012002F0E1F85A48006806F0A1FE0446B4
:1007700022460B466FA16A4803F0F0FA69486A4BBB
:10078000674A23210090012002F0CEF85148016809
:100790004F48006806F01AFF814606F089FE0446BD
:1007A000664A674B06F066FC07463A460B4665A16B
:1007B0005B4803F0D3FA5B485B4B594A3221009007
:1007C000012002F0B1F801F06EFB4FF000004E493D
:1007D00008605EA000F092FEBDE8F88370477047A5
:1007E000704770477047704710B52F48001F00686A
:1007F000C0F30800A0F58071FF3905D108465549BE
:1008000008705549086010BD5248007840BB4FF051
:100810000100504908704FF00A0000F06CFD2248BA
:10082000001F0068C0F3C02008B9FFF7DAFF1E48B8
:10083000001F0068C0F3002008B9FFF7D3FF1A4873
:10084000001F0068C0F3003008B9FFF7CCFF16485E
:10085000001F0068C0F3403008B9FFF7C1FFD2E7BE
:100860003D48006800F101003B4908600846006807
:10087000012800DAC7E74FF0000036490870364912
:10088000086000BFBFE710B50446FFF70EFF10BDBC
:1008900010B5044631A000F031FE10BD10B504467D
:1008A00031A000F02BFE10BD0C08014038000020E4
:1008B0000000494000A0744000FEAF4000107140AD
:1008C00068000020000000209000002004000020AC
:1008D0000C0000200800002025662025660000008E
:1008E0009A9999999999B93F5374617274204C6F90
:1008F000672E2E2E0A000000EA0000204C6F6720B1
:100900006572726F72210A002800002054696D65BB
:10091000202532643A2532643A2532640000000012
:10092000A4000020647900081A7D0008493D2532A2
:100930002E326600563D25332E326600CDCCCCCC0F
:10094000CCCCEC3F503D25332E3266007465737479
:100950000A0000002C000020300000204572617366
:1009600065204D656D0A0000476574496E666F0A23
:10097000000000002DE9F04786B08246FE4800687E
:1009800006F096FD04460D46FC48006806F090FD12
:1009900006460F46FA48006806F08AFD8046F94888
:1009A000006842460B46F8A1CDE90067CDE9024553
:1009B0000490FB4803F0D2F9F94800F09FFD06B01F
:1009C000BDE8F08710B58AB004464FF000000690ED
:1009D00006AAF4A1204603F007FB07A9069803F036
:1009E0009AF8D8B19DF82500DDF821109DF8202057
:1009F0009DF81F30CDE90132CDE903109DF81E00AE
:100A000000909DF81D309DF81C20E7A1E44803F0FC
:100A1000A5F9E34800F072FD0AB010BDE8A1E04876
:100A2000069A03F09BF9DE4800F068FD00BFF3E78B
:100A30001FB504464FF0000000906A46D9A1204639
:100A400003F0D2FA4FF012008DF804004FF00B00C3
:100A50008DF805004FF010008DF806004FF00100F2
:100A60008DF807004FF03B008DF8080040F6291084
:100A7000CDF809004FF019008DF80D009DE80F002A
:100A800003F0DDF818B1D3A000F038FD1FBDD5A1EB
:100A9000C348009A03F062F9C14800F02FFD00BF7F
:100AA000F4E71FB50446D4480078D3494978D24AC0
:100AB0009278D14BDB78CDE90032CDE90210CE48F7
:100AC0000379C288CDA1B64803F048F9B44800F0D4
:100AD00015FD1FBD10B590B004464FF000000C90FE
:100AE0000B900A9009900890079006900AA80BA90D
:100AF0000CAA06ABCDE90132CDE9031009A808AB79
:100B000007AAC6A10090204603F06EFA0798632852
:100B100002DC0798002802DA4FF0000007900898DE
:100B20000C2802DC0898012802DA4FF00100089036
:100B300009981E2802DC0998012802DA4FF001000A
:100B400009900698072802DC0698012802DA4FF07F
:100B5000010006900C98172802DC0C98002802DA95
:100B60004FF000000C900B983B2802DC0B980028FB
:100B700002DA4FF000000B900A983B2802DC0A983A
:100B8000002802DA4FF000000A90079880B2ADF812
:100B90003A000898C0B28DF838000998C0B28DF8B4
:100BA00037000698C0B28DF83C000C98C0B28DF8A2
:100BB00036000B98C0B28DF835000A98C0B28DF897
:100BC00034000DA802F0A0FA18B19AA000F096FC2B
:100BD00002E099A000F092FC10B010BD10B50446E0
:100BE00097A000F08BFC10BD10B5044698A000F053
:100BF00085FC10BD10B5044699A000F07FFC10BD27
:100C000010B504469BA000F079FC10BD10B5044659
:100C10009DA000F073FC10BD10B504469FA000F02D
:100C20006DFC10BD10B58AB004464FF0000009906D
:100C300009AA5CA1204603F0D7F906A9099802F099
:100C40006AFF48B998A15648099A03F087F85448B2
:100C500000F054FC0AB010BD9DF82100DDF81D1015
:100C60009DF81C209DF81B30CDE90132CDE9031021
:100C70009DF81A0000909DF819309DF8180000F5B5
:100C8000FA6249A1464803F069F8454800F036FC8D
:100C900000BFDFE7F8B506464FF0000000900446BD
:100CA0004FF0FF3583A000F029FC00BF14E0694637
:100CB000A0B202F04FFE18B981A000F01FFCF8BDF1
:100CC000E9B29DF8000000F055FE05469DF80000D1
:100CD00000F0C2FB04F10104B4F5805FE7DBB4F57A
:100CE000805F08D12A4679A12D4803F037F82C48B7
:100CF00000F004FC02E077A000F000FC00BFDEE79B
:100D000070B57648008820F0010074490880744866
:100D1000007800B970BD7348006800280FDA3648C3
:100D2000807800F101006F490860084600681828C3
:100D300002D14FF0000008606BA000F0DFFB10480C
:100D400001680E48006806F041FC05464FF07E51F0
:100D500006F03CFC044608480168204606F0D4FB37
:100D600005490860244880785E490968884201D1B5
:100D70002148C9E0DEE00000140000200800002047
:100D80000C0000202000002025332E31662C253356
:100D90002E31662C25362E31662C25640A00000083
:100DA000A40000202564000025642025642025641B
:100DB0002025642025642025642025640A00000085
:100DC00072656164206261642063726320402564FF
:100DD0000A200000777269746520637263206F6B6C
:100DE0000A0000007772697465206572726F722064
:100DF0004025640A20000000EA00002025642D251B
:100E00003032642D2530326420253032643A25306A
:100E100032643A253032640A00000000256420253F
:100E20006420256420256420256420256420256411
:100E3000000000004F4B00004572726F720000000E
:100E4000476574506561636B54696D650A00000005
:100E50005365745065616B54696D650A000000004C
:100E6000476574436F6E73756D6550617474657218
:100E70006E0A0000536574436F6E73756D65506143
:100E8000747465726E0A00004765744C6564426153
:100E9000724C6576656C730A0000000073657420FF
:100EA0006261720A000000006572726F723D256413
:100EB0000A00000072656164206D656D0A00000023
:100EC000526561644572726F720A00004F4B2025B3
:100ED000580000006572726F72000000102C014013
:100EE0001000002034000020646566696E65206C87
:100EF0006173742075706461746520666F7220661A
:100F0000697273740A000000407898B932A000F04A
:100F1000F5FA3548807800F1010034490860084648
:100F20000068182802D14FF0000008604FF0000060
:100F30002F49086000BFEDE608B5FFF704FA02F09C
:100F400070FA012000F042FD2AA000F0D7FA00F06C
:100F50004AFE00F0A8FE002000F058FF7F2000F0BD
:100F6000EBFE002000F0BBFF4FF0000023490870AB
:100F70002348244B24A24FF00B0100904FF0230094
:100F800001F0D2FC00F08FFF25E0174802F054F882
:100F900010B91FA000F0B2FA20480068C0F300208A
:100FA00028B11F48006840F001001D490860FFF7A4
:100FB000D9FA044622460B461AA11C4802F0CEFE7E
:100FC0001A4800F09BFA1A480068FFF77BFA4FF4C2
:100FD0007A7000F07BFBD8E76C6F6720746F206637
:100FE000696C650A00000000EA000020340000205F
:100FF0001400002068656C6C6F0A00005C00002023
:10100000647900081A7D00085353443133303600A8
:10101000727463206572726F720A000008080140E2
:101020000C0C014025322E33660A0000A40000207B
:101030002400002008B50121082005F04FFA4FF0E8
:1010400010008DF803004FF40050ADF800004FF091
:1010500003008DF802006946B54805F0D3F808BDD5
:1010600008B50121082005F039FA4FF010008DF87D
:10107000030044F20300ADF800004FF003008DF8C8
:1010800002006946AA4805F0BDF808BD10B5A94B95
:101090001B6823F00103A74C236023461B6823F041
:1010A0000203236023461B6823F480432360234606
:1010B0001B6800F0010443EA04039E4C23602346AE
:1010C0001B6801F0010443EA44039A4C2360234661
:1010D0001B6802F0010443EA8433964C236010BD80
:1010E000F0B504460D4616461F4693480168006851
:1010F00000F10100904A1060B94223D94FF000007E
:10110000114608608D4B1B789E4201DD012300E0F3
:1011100000231A46894B1B789D4201DD012300E024
:1011200000231946854B1B789C4201DD012300E01A
:1011300000231846FFF7AAFF8048007800F101005D
:101140007E490870F0BD30B587B04FF4AF652C46CE
:101150004FF001014FF0040005F0A8F94FF4E15001
:10116000ADF814004FF00000ADF81000ADF8160017
:10117000ADF8120004A9724805F076FB4FF060004C
:10118000ADF800004FF00100ADF80200ADF80650D8
:101190004FF00000ADF808006946694805F048FACC
:1011A0000821674805F074FA4FF00100ADF802001D
:1011B000ADF806406946624805F070FA08216048BB
:1011C00005F0AAFA01215E4805F014FA01215C48F5
:1011D00005F01BFA07B030BD10B588B04FF4AF640E
:1011E0004FF001014FF0020005F060F94FF01D00D3
:1011F0008DF800004FF000008DF801004FF0010065
:101200008DF802008DF80300684605F00AF94FF4E6
:10121000E150ADF818004FF00000ADF81400ADF843
:101220001A00ADF81400ADF8160005A9454805F000
:101230001BFB4FF06000ADF804004FF00100ADF86B
:101240000600ADF80A404FF00000ADF80C0001A90F
:101250003C4805F069FA08213A4805F0A1FA012155
:10126000384805F0D2F908B010BD1FB50121084675
:1012700005F01CF94FF01C008DF80C004FF0000039
:101280008DF80D004FF001008DF80E008DF80F0065
:1012900003A805F0C6F84FF00400ADF800004FF0C9
:1012A0000000ADF802004FF00100ADF804004FF06F
:1012B0000C00ADF806004FF00000ADF808006946DC
:1012C0004FF0804005F072FA60214FF0804005F049
:1012D000A3FA0421080705F0ADFA8021C80505F03E
:1012E000A1FA0121880705F090F9012204210807DD
:1012F00005F096F91FBD70B504460E48006840F42D
:1013000000500C490860254604EBD5714FEA610096
:1013100000F0DCF90748006820F400500549086037
:1013200004EBD5714FEA610000F0D0F970BD000008
:10133000000C01400C0C01403C000020400000204B
:1013400000080040000400400146CE480088C2B2B8
:101350000A70CC4800884FEA20224A70CA480088A8
:10136000C2B28A70C84800884FEA2022CA70C748B3
:101370000068C2B20A71C5480068C0F307224A710A
:10138000C2480068C0F307428A71C04800684FEA4B
:101390001062CA71BE480068C2B20A72BC480068D6
:1013A000C0F307224A72BA480068C0F307428A7243
:1013B000B74800684FEA10600246CA72704730B5FD
:1013C00002460B464FF0000109E05D5C505C4C1C8E
:1013D0006040854201D0002030BD01F101010C299F
:1013E000F3DB0120F8E7AB48806940F00100A94930
:1013F0008861A948406820F04070A74948600846C5
:10140000406840F080604860704730B5A34A4FF0B4
:101410000004002805DAC0F100004FF02D0501F8A6
:10142000015B00BFB0FBF2F5EBB213B90CB9012AB6
:1014300005D103F1300501F8015B4FF00104B0FB69
:10144000F2F502FB15004FF00A05B2FBF5F2002A97
:10145000E8D115460D7030BD014600BF90480088A8
:1014600010F0800FFAD0C8B28D4A121D108070475C
:1014700000BF8B48008810F0200FFAD08848001D6C
:101480000088C0F30800704701460A2909D100BF4F
:101490008448008810F0800FFAD04FF00D00824A87
:1014A000108000BF7F48008810F0800FFAD0C8B2CB
:1014B0007D4A1080704700BF7A48008810F0200FE6
:1014C000FAD079480088C0F30800704700BF774819
:1014D000008810F0200FFAD07448001D0088C0F377
:1014E0000800704710B5034604E013F8014B20468E
:1014F000FFF7B2FF18780028F7D110BD10B50346EA
:1015000004E013F8014B2046FFF7A6FF18780028E7
:10151000F7D110BD10B5034604E013F8014B204687
:10152000FFF7B2FF18780028F7D110BD00BF5C4963
:10153000098811F0800FFAD05949091D08807047B9
:1015400030B502460B464FF0000506E012F8014B9D
:101550002046FFF7EBFF05F101059D42F6DB30BDAC
:1015600010B5034604E013F8014B2046FFF78CFF4B
:1015700018780028F7D110BD70B5A0B006464148D4
:101580000088C4B28DF864403E4800884FEA2024A9
:101590008DF865403C480088C4B28DF866403A48F2
:1015A00000884FEA20248DF8674038480068C4B2AC
:1015B0008DF8684035480068C0F307248DF869400D
:1015C00032480068C0F307448DF86A402F4800682D
:1015D0004FEA10648DF86B402D480068C4B28DF856
:1015E0006C402B480068C0F307248DF86D402848F4
:1015F0000068C0F307448DF86E40254800684FEA44
:1016000010648DF86F404FF000008DF8700028A036
:10161000FFF768FF4FF0000517E019A9485D1DA905
:10162000FFF7F3FE1DA8FFF769FF1DA9684602F04A
:1016300063FE0B2D06DA23A0FFF754FF21A16846B5
:1016400002F05AFE05F10100C5B20C2DE5DB1EA02B
:10165000FFF748FF3146684602F05AFE10B90120F4
:1016600020B070BD0020FBE702464FF0000000BF35
:1016700004E04FF00003135400F101008842F8DB4E
:1016800070470000E8F7FF1FEAF7FF1FECF7FF1FA6
:10169000F0F7FF1F001002400000014000CA9A3B13
:1016A000003801400044004004440040004800402D
:1016B0000A556E69717565206465766963652049B0
:1016C00044203A002C0000000A2D3E0010B54FF0D7
:1016D0000002114608E04FF0000101E001F10101B4
:1016E00042F228339942F9D31346521C8342F2D373
:1016F00010BD10B54FF00002114606E04FF000019A
:1017000001E001F101010929FBD31346521C834278
:10171000F4D310BD30B54FF0000023E04FF00001CE
:101720004FEA00644FEA14430A4614E081EA0304D6
:1017300014F4004F05D041F2210484EA4104A1B21F
:1017400003E04FEA41444FEA14414FEA43444FEA71
:10175000144302F10102082AE8DB914C24F810102E
:1017600000F10100FF28D9DD4FF001048D4D2C6000
:1017700030BD2DE9F04104460D462F4689480068EA
:1017800008B9FFF7C7FF87EA2426854830F8160016
:1017900080EA042084B22046BDE8F08130B50B46D3
:1017A0004FEA022410F4004F05D048F2050585EAFF
:1017B0004005A8B203E04FEA40454FEA154000BF9C
:1017C00043EA040585EA000030BD30B54FF0000063
:1017D0001BE04FF0000183B20A460FE081EA0304E8
:1017E00014F0010F04D04AF2010484EA610101E01F
:1017F0004FEA61014FEA630302F10102082AEDDBBF
:10180000694C24F8101000F10100FF28E1DD4FF0D1
:101810000104664D2C6030BD2DE9F04104460D46B3
:101820002F466248006808B9FFF7CFFF84EA070631
:10183000F0B25D4931F8100080EA24242046BDE86A
:10184000F08130B54FF000001BE04FF0000183B293
:101850000A460FE081EA030414F0010F04D048F2B5
:10186000084484EA610101E04FEA61014FEA630341
:1018700002F10102082AEDDB4D4C24F8101000F1B2
:101880000100FF28E1DD4FF001044A4D2C6030BD1E
:101890002DE9F04104460D462F464648006808B938
:1018A000FFF7CFFF84EA0706F0B2414931F8100094
:1018B00080EA24242046BDE8F08130B54FF00000D6
:1018C0001BE04FF0000183B20A460FE081EA0304F7
:1018D00014F0010F04D04AF2BC6484EA610101E013
:1018E0004FEA61014FEA630302F10102082AEDDBCE
:1018F000314C24F8101000F10100FF28E1DD4FF019
:1019000001042E4D2C6030BD2DE9F04104460D46FA
:101910002F462A48006808B9FFF7CFFF84EA070678
:10192000F0B2254931F8100080EA24242046BDE8B1
:10193000F08110B54FF0000015E001464FF00002B5
:101940000AE011F0010F03D01D4B83EA510101E0C1
:101950004FEA510102F10102082AF2DB194B43F868
:10196000201000F10100FF28E7DD4FF00103164CC5
:10197000236010BD2DE9F04104460D462F46124864
:10198000006808B9FFF7D5FF84EA0706F0B20D49F1
:1019900051F8200080EA14242046BDE8F0810000C0
:1019A000000700204C00002000010020440000201F
:1019B000000B0020540000200009002050000020EF
:1019C0002083B8ED000300204800002010B586B049
:1019D00004464FF4004004F05FFD0121480204F08A
:1019E0007DFD5E4804F066FB4FF0000001908DF82D
:1019F00008008DF809004FF4602003904FF00000BC
:101A00000490E0B28DF8140001A9544804F088FB5A
:101A1000022301220021514804F0A6FB07230222E1
:101A200001214E4804F0A0FB0723032202214B486A
:101A300004F09AFB072304220321484804F094FB96
:101A4000022305220421454804F08EFB07230622C9
:101A50000521424804F088FB07231A4606213F4827
:101A600004F082FB0723082219463C4804F07CFB63
:101A7000022309220821394804F076FB07230A22B1
:101A80000921364804F070FB07230B220A21334852
:101A900004F06AFB07230C220B21304804F064FB9E
:101AA00002230D220C212D4804F05EFB07230E2299
:101AB0000D212A4804F058FB07230F220E21274846
:101AC00004F052FB072310220F21244804F04CFBA2
:101AD0000121224804F0E3FA204804F07FFB00BF14
:101AE0001E4804F016FB0028FAD11C4804F085FBC0
:101AF00000BF1A4804F0FCFA0028FAD106B010BD65
:101B000010B50121154804F06EFB00BF02211348F7
:101B100004F0F8FA0028F9D0104804F0F0FA10BDEB
:101B20002DE9F04104464FF000052F460F2C02D15D
:101B30004FF0000401E004F101044FF0000507E05C
:101B4000FFF7DEFF0646AC4200D1374605F101053E
:101B5000102DF5DB3846BDE8F0810000002401407F
:101B600001464FF000004FF0800013E0014204D026
:101B70004FF48072FA4B1A6003E04FF08072F84B1A
:101B80001A604FF40072F64B1A604FF000721A6040
:101B90004FEA60000028E9D1704770B505460E464F
:101BA0004FF0000404E0285DFFF7DAFF04F10104C0
:101BB000B442F8DB70BD10B504464FF48010E8491C
:101BC00008602046FFF7CCFF10BD30B505460C4637
:101BD0004FF48010E24908602846FFF7C1FF204615
:101BE000FFF7BEFF30BD08B50121042004F076FCEC
:101BF0004FF010008DF803004FF48040ADF8000066
:101C00004FF003008DF802006946D64804F0FAFA56
:101C10004FF48040D44908604FF010008DF8030065
:101C2000ADF800004FF003008DF802006946CF4880
:101C300004F0E8FA4FF48010C94908604FF0100032
:101C40008DF803004FF02000ADF800004FF00300C6
:101C50008DF802006946C54804F0D4FA4FF48010AC
:101C6000BF4908604FF010008DF803004FF48070FA
:101C7000ADF800004FF003008DF802006946BB4844
:101C800004F0C0FA4FF010008DF803004FF400701C
:101C9000ADF800004FF003008DF802006946B3482C
:101CA00004F0B0FA08BD00B54FF48040AE490860BA
:101CB0004FF40010AA4908604FF0200008604FF070
:101CC0008040A94908604FF03F014FF0A800FFF79E
:101CD0007CFF0021D320FFF778FF4020FFF76BFF48
:101CE000A020FFF768FFC020FFF765FF1221DA2070
:101CF000FFF76BFF3021DB20FFF767FF7F2181209B
:101D0000FFF763FFA420FFF756FFA620FFF753FF5E
:101D1000F021D520FFF759FF14218D20FFF755FF43
:101D2000AF20FFF748FF00212020FFF74EFF4FF4C0
:101D300080408D49086000BD10B504464FF08040DA
:101D40008949086021464FF08100FFF73EFF4FF4BC
:101D500080408549086010BD10B504464FF08040B2
:101D6000814908600CB1A52100E0A4210846FFF7D5
:101D700022FF4FF480407C49086010BD10B5044636
:101D80004FF08040784908600CB1A72100E0A621FF
:101D90000846FFF710FF4FF480407349086010BDFC
:101DA00010B504464FF080406F4908600CB1AF2178
:101DB00000E0AE210846FFF7FEFE4FF480406A497E
:101DC000086010BD10B504464FF0804066490860B9
:101DD0000CB1A12100E0A0210846FFF7ECFE4FF472
:101DE00080406149086010BD10B504464FF0804046
:101DF0005D4908600CB1C82100E0C0210846FFF72A
:101E0000DAFE4FF480405849086010BD10B5044612
:101E1000012C04D0022C12D0032C30D11FE04FF043
:101E20004000534908804FF08000524908804FF02D
:101E30000100FFF7C7FF0020FFF7D6FF2FE04FF0AC
:101E400040004B4908804FF080004A4908804FF01D
:101E50000000FFF7B7FF0120FFF7C6FF1FE04FF0BC
:101E60008000434908804FF04000424908804FF00D
:101E70000000FFF7A7FF0020FFF7B6FF0FE04FF0CD
:101E800080003B4908804FF040003A4908804FF0FD
:101E90000100FFF797FF0120FFF7A6FF00BF00BF7B
:101EA0003548047010BD00B54FF080402E490860E1
:101EB0004FF006013148FFF770FE4FF0100028493F
:101EC00008604FF480612E48FFF767FE4FF48010E2
:101ED000234908604FF480402349086000BD4FF457
:101EE000806101E0264A50540A00A1F1010399B231
:101EF000F8D17047F0B504460D4616461F464FF020
:101F00008040194908600CB9262100E027210846C5
:101F1000FFF751FE0020FFF74EFE2846FFF74BFE6D
:101F20003846FFF748FE3046FFF745FE0020FFF732
:101F300042FEFF20FFF73FFE4FF480400A49086051
:101F4000F0BD2DE9F04104460D4616461F46DDF86A
:101F500018804FF08040044908609CB9292112E0A4
:101F6000100C01400008014010080140000C014025
:101F7000580000205A0000205D000020217D00084C
:101F8000000D00202A210846FFF715FE0020FFF76C
:101F900012FE2846FFF70FFE3846FFF70CFE3046CC
:101FA000FFF709FE4046FFF706FE4FF48040F84970
:101FB0000860BDE8F08100B54FF08040F44908604A
:101FC0004FF02F00FFF7F7FD4FF48040F049086015
:101FD00000BD00B54FF08040ED4908604FF02E0085
:101FE000FFF7E9FD4FF48040E949086000BD70B596
:101FF00003460C46E74D2D78012D03D0E54D2D7895
:10200000022D06D14FEAE30504EBC51003F00701EA
:1020100005E04FEAE40503EBC51004F00701B0F555
:10202000806F00D970BD012A02D0022A17D10AE0C0
:10203000D94D2D5C4FF0010606FA01F625EA06059A
:10204000D54E355416E0D44D2E5C4FF0010505FAFF
:1020500001F586EA0506F5B2CF4E35540AE0CE4DBD
:102060002D5C4FF0010606FA01F645EA0605CA4E58
:10207000355400BF00BF00BFD4E770B504460B461F
:102080004FEAE305C44E06EBC51505EB040003F06B
:1020900007064FF0010505FA06F5E9B2BF4D2D78A8
:1020A000012D02D0022D1BD10EE06FEA0105E9B22D
:1020B00004E0057805EA010500F8015B1500A2F1CE
:1020C0000106F2B2F5D117E004E0057885EA0105D2
:1020D00000F8015B1500A2F10106F2B2F5D10BE0A8
:1020E00004E0057845EA010500F8015B1500A2F15E
:1020F0000106F2B2F5D100BF00BF70BDF0B50546D4
:102100000C464FEAE406A44F07EBC61606EB0500A3
:1021100004F007036BB3C3F10806F3B2A04EF15C01
:10212000934207DDA3EB02074FF0FF0646FA07F6DE
:1021300006EA0101994E3678012E02D0022E0AD10C
:1021400004E0067826EA0106067009E0067886EAC9
:102150000106067004E0067846EA0106067000BF34
:1021600000BF934200DDF0BD00F18000A2EB03064A
:10217000F2B2072A2CDD894E3678012E02D0022ECB
:1021800019D10BE000BF4FF00006067000F180008F
:10219000A2F10806F2B2072AF5DC18E000BF0678C3
:1021A0006FEA0606067000F18000A2F10806F2B29E
:1021B000072AF4DC0BE000BF4FF0FF06067000F1C9
:1021C0008000A2F10806F2B2072AF5DC00BF00BFCA
:1021D000D2B102F00703734EF15C704E3678012ED7
:1021E00002D0022E0AD104E0067826EA0106067023
:1021F00009E0067886EA0106067004E0067846EAF9
:102200000106067000BF00BF00BFACE72DE9F0413A
:1022100005460E469046B54204DD3446A5EB060061
:10222000C7B203E02C46A6EB0500C7B207F10100D8
:10223000C7B258480078012803D0564800780228D1
:1022400005D13A4621464046FFF758FF04E03A469A
:1022500041462046FFF711FFBDE8F0812DE9F0412E
:1022600080460D461646B54204DD3446A5EB060011
:10227000C7B203E02C46A6EB0500C7B207F1010088
:10228000C7B244480078012803D0424800780228A9
:1022900005D13A4641462046FFF7EFFE04E03A46B4
:1022A00021464046FFF72AFFBDE8F0812DE9F05FA7
:1022B00005460E461746984636480078012803D052
:1022C00034480078022814D1BD4205DD3C46A5EB18
:1022D000040000F0FF0A04E02C46A7EB040000F025
:1022E000FF0A464502DDB146C34616E0C146B34685
:1022F00013E0464505DD4446A6EB040000F0FF0A66
:1023000004E03446A8EB040000F0FF0ABD4202DD01
:10231000A946BB4601E0B946AB460AF1010000F010
:10232000FF0A00BF524621464846FFF7E7FE4846EF
:10233000411E01F0FF095845F4DCBDE8F09F2DE98E
:10234000FF4F83B004460D469346ABEB040007B243
:102350000698A0EB05000FFA80F8002F02DD4FF081
:10236000010001E04FF0FF300290B8F1000F02DDF4
:102370004FF0010001E04FF0FF300190A7B906983F
:10238000C2B2E9B2E0B2FFF769FF07B0BDE8F08F73
:10239000100801405D000020000D00205C000020BE
:1023A000277D00082F7D0008B8F1000F06D1EAB2A2
:1023B0000BF0FF01E0B2FFF729FFE6E70298784350
:1023C00007B2019808FB00F00FFA80F84FEA4700C7
:1023D0000FFA80F94FEA48000FFA80FA47451CDBF4
:1023E000AAEB070006B215E0F8480278E9B2E0B2BD
:1023F000FFF7FDFD0298204404B2002E03DA06EB3D
:102400000A0006B206E0AAEB0900304406B20198C1
:10241000284405B25C45E7D11CE0A9EB080006B2F0
:1024200015E0EA480278E9B2E0B2FFF7E0FD019872
:10243000284405B2002E03DA06EB090006B206E0D6
:10244000A9EB0A00304406B20298204404B2069870
:102450008542E6D1DD480278E9B2E0B2FFF7C7FD78
:1024600000BF92E72DE9FC4F05460C469046C8F1A7
:10247000010A4FF0000001904FEA4800C0F100004F
:1024800000904FF000064746D1480088A0F10100B7
:102490000FFA80F9CF480088A0F101000FFA80FB05
:1024A0007BE0BAF1000F0BDB009800F1020000B2F4
:1024B0000090009850440FFA80FAA7F1010007B28B
:1024C000019800F1020000B20190019800F10100B2
:1024D00050440FFA80FA06F1010006B205EB06003F
:1024E000584514DAE019484507DAE219D1B2AA19B9
:1024F000D0B2B64A1278FFF77AFDE01B07D4E21B90
:10250000D1B2AA19D0B2B14A1278FFF770FDA81B58
:1025100014D4E019484507DAE219D1B2AA1BD0B2A7
:10252000AA4A1278FFF763FDE01B07D4E21BD1B281
:10253000AA1BD0B2A54A1278FFF759FDE8195845F1
:1025400014DAA019484507DAA219D1B2EA19D0B2B3
:102550009E4A1278FFF74BFDA01B07D4A21BD1B2F5
:10256000EA19D0B2994A1278FFF741FDE81B14D45A
:10257000A019484507DAA219D1B2EA1BD0B2934A92
:102580001278FFF734FDA01B07D4A21BD1B2EA1BBF
:10259000D0B28E4A1278FFF72AFDBE4281DB05EBEE
:1025A0000800584507DA05EB0801C8B287490A78E0
:1025B000E1B2FFF71CFDB5EB080007D4A5EB08015D
:1025C000C8B282490A78E1B2FFF711FD04EB0800B6
:1025D000484507DA04EB0800C1B27C480278E8B24B
:1025E000FFF705FDB4EB080007D4A4EB0800C1B267
:1025F00076480278E8B2FFF7FAFCBDE8FC8F2DE9D7
:10260000FF4F89B006460F469B464FF000050FFA74
:102610008BF40B9800FB00F80BFB0BFA0B9800F007
:10262000010000EBA8005044C0F1000008900BF03E
:10263000010000EBAA004044C0F1000007900BF03D
:10264000010000EBAA00C0F100000690C8F10000F4
:1026500000FB04F90AFB05F04FEA40000590C8F1C1
:10266000000000FB04F04FEA400004904FEA4A00EB
:1026700003904FEA4800029055480088A0F10100FD
:1026800000B2019053480088A0F1010000B2009010
:1026900070E07119009881420BDA39190198814272
:1026A00007DA3A19D1B27219D0B2484A1278FFF754
:1026B0009EFC05B95CB1701B09D4381B07D43A1BCA
:1026C000D1B2721BD0B2414A1278FFF790FCE5B14B
:1026D000DCB171190098814209DA381B07D43A1B22
:1026E000D1B27219D0B2394A1278FFF780FC701B50
:1026F0000BD439190198814207DA3A19D1B2721B09
:10270000D0B2324A1278FFF772FC05FB0A910898A2
:10271000814204DD04FB08910698814209DC03999B
:102720000598084405900598814405F1010005B21B
:1027300020E004FB18910798814209DD0299049872
:102740000844049004988144A4F1010004B211E00B
:102750000399059808440590029904980844049048
:10276000059881440498814405F1010005B2A4F163
:10277000010004B2002C02DB0B98854289DD0DB00C
:10278000BDE8F08F2DE9FF4F81468A461C4621792E
:102790000298814203DC61790298814201DAA079D2
:1027A000029021790298A0EB0101A2780D9801FB1B
:1027B0000208E07800285CD16078092824DA4E46C7
:1027C0001DE0574618F8015B14E000005C00002093
:1027D0005A0000205800002015F0010F05D0FE48D7
:1027E000027839463046FFF702FC4FEA650507F1EB
:1027F0000100C7B2002DEFD106F10100C6B220786A
:102800004844B042DDDC89E04E462DE0574624E0E6
:102810004FF0080B18F8015BE5B117E015F0010F58
:1028200005D0ED48027839463046FFF7E0FB4FEA25
:1028300065053DB107F10100C7B2ABF1010000F041
:10284000FF0B03E007EB0B00C7B202E0BBF1000F88
:10285000E4D102E007EB0B00C7B260785044B84205
:10286000D6DC06F10100C6B220784844B042CDDC87
:1028700054E0207809281DDA574616E04E4618F82D
:10288000015B0DE015F0010F05D0D3480278394601
:102890003046FFF7ACFB4FEA650506F10100C6B212
:1028A000002DEFD107F10100C7B260785044B84263
:1028B000E4DC33E057462DE04E4624E04FF0080BB1
:1028C00018F8015BE5B117E015F0010F05D0C2481B
:1028D000027839463046FFF78AFB4FEA65053DB17D
:1028E00006F10100C6B2ABF1010000F0FF0B03E0FE
:1028F00006EB0B00C6B202E0BBF1000FE4D102E030
:1029000006EB0B00C6B220784844B042D6DC07F193
:102910000100C7B260785044B842CDDC2078401C3A
:10292000C0B204B0BDE8F08F2DE9F84706468846EE
:1029300014461F46DDF8249035463878A7490988A3
:10294000A1EB0000A0F1010000F0FF0A0DE0CDF8BE
:10295000009014F8012B3B4641462846FFF712FF32
:102960002844C5B2554500DD02E020780028EED1AC
:1029700000BFA81B80B2BDE8F8872DE9F8430646E2
:102980000F4615461C46DDF820904FF0000829E060
:10299000CDF8009015F8012B234639463046FFF755
:1029A000F1FE20788D490988081A401EB04205DDE5
:1029B000207800F101003044C6B20FE06078884909
:1029C0000988081A401EB84205DD4FF000066078FD
:1029D0003844C7B202E04FF00006374608F1010064
:1029E00000F0FF0828780028D2D12078401C00FB96
:1029F00008F080B2BDE8F8832DE9F04107460C46A7
:102A000016461D46224631463846FFF7FFFB2A464A
:102A100031463846FFF7FAFB681EC2B2601CC1B2ED
:102A20003846FFF71BFC681EC2B2601CC1B23046BC
:102A3000FFF714FCBDE8F0812DE9FF4F06468846FC
:102A400015469946DDF834A001AC37464FF0000B2F
:102A5000584604F8010B002D03DA4FF0010BC5F1C5
:102A6000000500BF4FF00A0095FBF0F100FB11508C
:102A700000F1300004F8010B4FF00A0095FBF0F074
:102A80000500EFD1BBF1000F03D04FF02D0004F88B
:102A9000010B09E0CDF800A022784B4641463846AC
:102AA000FFF770FE3844C7B2601E04460078002865
:102AB000F0D1B81BC0B204B0BDE8F08F2DE9FF47DC
:102AC0000546884616469946DDF830A001AC2F46EB
:102AD0004FF0000004F8010B00BF4FF00A00B6FBF6
:102AE000F0F100FB116000F1300004F8010B4FF031
:102AF0000A00B6FBF0F00600EFD109E0CDF800A027
:102B000022784B4641463846FFF73CFE3844C7B270
:102B1000601E044600780028F0D1781BC0B204B0D3
:102B2000BDE8F0872DE9F04F85B081468A4616460C
:102B30001F46DDF838B002ACC8464FF000000190E7
:102B4000054604F8010B002E04DA4FF00100019055
:102B5000C6F1000600BF4FF00A0096FBF0F100FB43
:102B6000116000F1300004F8010B05F10100C5B25D
:102B70004FF00A0096FBF0F00600ECD1BD4209DCF4
:102B800006E04FF0300004F8010B05F10100C5B27A
:102B9000BD42F6DD019830B14FF02D0004F8010B75
:102BA00005F10100C5B22CE00F98009022785B4639
:102BB00051464046FFF7E6FD404400F0FF0807B3EA
:102BC000681EC0B20546B8421BD19BF801005044B4
:102BD000401EC3B206E000005C0000205800002048
:102BE0005A0000209BF801005044801EC1B208F139
:102BF0000100C2B24046FFF7FFFE08F1030000F0FB
:102C0000FF08601E044600780028CDD1A8EB09001B
:102C1000C0B205B0BDE8F08F2DE9FF4F06468A46E9
:102C200015461F4601ACB0464FF0000BD94648464A
:102C300004F8010B002D03DA4FF0010BC5F100057C
:102C400000BF4FF00A0095FBF0F100FB115000F1BE
:102C5000300004F8010B09F1010000F0FF094FF00A
:102C60000A0095FBF0F00500EBD1B9450ADA03E064
:102C70004FF0300004F8010B4846411C01F0FF09F9
:102C8000B842F5DBBBF1000F03D04FF02D0004F884
:102C9000010B0AE00E9800902278514640460D9BA9
:102CA000FFF770FD404400F0FF08601E0446007806
:102CB0000028EFD1A8EB0600C0B204B0BDE8F08F49
:102CC0002DE9FF470546884616469946DDF830A0AF
:102CD00001AC2F464FF0000004F8010B00BF06F0D6
:102CE0000F0000F1300020702078392803DD2078B3
:102CF00000F10700207004F101044FEA16100600ED
:102D0000EDD109E0CDF800A022784B464146384687
:102D1000FFF738FD3844C7B2601E0446007800282B
:102D2000F0D1781BC0B204B0BDE8F0872DE9FF4FA9
:102D300006460F469246DDF834B0B8462DE03446DC
:102D400023E04FF000091BF8015BDDB116E015F040
:102D5000010F07D008EB0900C1B2134802782046E2
:102D6000FFF745F94FEA650525B109F1010000F0CB
:102D7000FF0903E004F10100C4B202E0B9F1080F59
:102D8000E5DB02E004F10100C4B206EB0A00A04258
:102D9000D7DC08F1080000F0FF08039838444045EC
:102DA000CDDCBDE8FF8F00005C0000207CB506464E
:102DB0004FF000044FF00101FE4803F073FA0121C7
:102DC000FC4803F0A7FA09E00120FEF77FFC04F1BC
:102DD0000104B4F5FA7F01DD00207CBDF649F54819
:102DE00003F06AFA0028EFD00022D021F14803F066
:102DF0000EFB4FF0000409E00120FEF767FC04F130
:102E00000104B4F5FA7F01DD0020E6E7EB49E9486B
:102E100003F052FA0028EFD00021E64803F0FFFA51
:102E20004FF0000409E00120FEF750FC04F101041A
:102E3000B4F5FA7F01DD0020CFE7E049891CDD48C9
:102E400003F03AFA0028EED00121DA4803F062FAE2
:102E50004FF0000409E00120FEF738FC04F1010402
:102E6000B4F5FA7F01DD0020B7E7D349D14803F07C
:102E700023FA0028EFD00122D021CE4803F0C7FA70
:102E80004FF0000409E00120FEF720FC04F10104EA
:102E9000B4F5FA7F01DD00209FE7C749491CC5480A
:102EA00003F00AFA0028EED04FF000051AE04FF0C8
:102EB000000409E00120FEF71CFC04F10104B4F554
:102EC000FA7F01DD002088E7BB493F31B94803F0B4
:102ED000F3F90028EED0B74803F096FA0DF8050094
:102EE00005F10105062DE2D30021B24803F0DAF91D
:102EF0000121B04803F018FA4FF0000409E0012066
:102F0000FEF7F7FB04F10104B4F5FA7F01DD0020C0
:102F100063E7A9493F31A74803F0CEF90028EED076
:102F2000A44803F071FA0DF8050000983060BDF870
:102F30000400B0809DF80600B07101204DE77CB51B
:102F400006464FF0000430680090B088ADF80400E9
:102F5000B0798DF806004FF00101964803F0A2F910
:102F60000121944803F0D6F900BF09E00120FEF7E3
:102F7000ADFB04F10104B4F5FA7F01DD00207CBD56
:102F80008D498C4803F098F90028EFD00022D02119
:102F9000884803F03CFA4FF0000409E00120FEF7F6
:102FA00095FB04F10104B4F5FA7F01DD0020E6E7AA
:102FB0008249804803F080F90028EFD000217D4845
:102FC00003F02DFA4FF0000409E00120FEF77EFB2C
:102FD00004F10104B4F5FA7F01DD0020CFE7774961
:102FE000891C744803F068F90028EED04FF0000502
:102FF0001AE01DF805106F4803F011FA4FF00004B5
:1030000009E00120FEF762FB04F10104B4F5FA7F48
:1030100001DD0020B3E76949891C664803F04CF9DB
:103020000028EED005F10105072DE2D3012161480A
:1030300003F07AF90120A2E77CB504466846FFF761
:10304000B5FE05469DF8000000F00F009DF8001049
:103050004FEA211101EB810100EB410020709DF846
:10306000010000F00F009DF801104FEA211101EB63
:10307000810100EB410060709DF8020000F00F003C
:103080009DF802104FEA211101EB810100EB410094
:10309000A0709DF8040000F00F009DF804104FEAA6
:1030A000211101EB810100EB4100E0709DF805006A
:1030B00000F00F009DF805104FEA211101EB81018E
:1030C00000EB410020719DF8060000F00F009DF814
:1030D00006104FEA211101EB810100EB410000F5E0
:1030E000FA60E0809DF80300207228467CBD01460E
:1030F0004FF00A0091FBF0F200FB121291FBF0F08E
:1031000002EB0010C0B270471CB504462078FFF7F0
:10311000EEFF8DF800006078FFF7E9FF8DF8010001
:10312000A078FFF7E4FF8DF80200E078FFF7DFFFFB
:103130008DF804002079FFF7DAFF8DF80500E188AB
:10314000C8B2FFF7D4FF8DF80600207AFFF7CFFF53
:103150008DF803006846FFF7F2FE1CBD82784FF041
:10316000300303EB221201F8012B827802F00F02E8
:1031700002F1300201F8012B4FF03A0201F8012B65
:10318000427803EB221201F8012B427802F00F0281
:1031900002F1300201F8012B4FF03A0201F8012B45
:1031A000027803EB221201F8012B027802F00F02E1
:1031B00006E0000000540040010003008200070008
:1031C00002F1300201F8012B4FF0000201F8012B4F
:1031D000704702794FF0300303EB221201F8012B04
:1031E000027902F00F0202F1300201F8012B4FF0D8
:1031F0002E0201F8012B427903EB221201F8012B78
:10320000427902F00F0202F1300201F8012B4FF077
:103210002E0201F8012B4FF0320201F8012B4FF082
:10322000300201F8012B827903EB221201F8012B05
:10323000827902F00F0202F1300201F8012B4FF007
:10324000000201F8012B704770B54FF000044FF0F9
:103250000101F94803F026F80121F74803F05AF874
:1032600000BF09E00120FEF744FA04F10104B4F5BF
:10327000FA7F01DD002070BDF049EF4803F01CF833
:103280000028EFD00022D021EB4803F0C0F84FF027
:10329000000409E00120FEF72CFA04F10104B4F562
:1032A000FA7F01DD0020E6E7E549E34803F004F892
:1032B0000028EFD01121E04803F0B1F84FF00004EE
:1032C00009E00120FEF715FA04F10104B4F5FA7FD4
:1032D00001DD0020CFE7DA49891CD74802F0ECFF76
:1032E0000028EED00121D44803F014F84FF0000478
:1032F00009E00120FEF7FDF904F10104B4F5FA7FBD
:1033000001DD0020B7E7CD49CB4802F0D5FF00280A
:10331000EFD00122D021C84803F079F84FF0000423
:1033200009E00120FEF7E5F904F10104B4F5FA7FA4
:1033300001DD00209FE7C149491CBF4802F0BCFFE6
:103340000028EED04FF0000409E00120FEF7D1F98B
:1033500004F10104B4F5FA7F01DD00208BE7B749E1
:103360003F31B54802F0A8FF0028EED0B24803F084
:103370004BF805464FF00001AF4802F093FF0121E2
:10338000AD4802F0D1FF4FF0000409E00120FEF744
:10339000B0F904F10104B4F5FA7F01DD00206AE719
:1033A000A6493F31A44802F087FF0028EED0284606
:1033B00061E700B585B04FF0C000ADF800004FF0F8
:1033C00003008DF802004FF01C008DF803006946E1
:1033D0009C4802F017FF0121480503F067F84FF001
:1033E0000000ADF804004BF6FF70ADF806004FF09A
:1033F0000000ADF808004FF48060ADF80A004FF40B
:103400008040ADF80C00904804904FF001018A48CC
:1034100002F05EFF01A9884802F09CFF012005B080
:1034200000BD10B586B04FF000044FF001014FF021
:10343000080003F053F84FF0C000ADF814004FF04F
:103440001C008DF817004FF003008DF8160005A939
:103450007C4802F0D7FE0121480503F027F801213E
:10346000084603F03BF8744802F03CFF2046ADF8F4
:1034700004004BF6FF70ADF806004FF00100ADF808
:1034800008004FF48060ADF80A004FF48040ADF8BA
:103490000C006E4804904FF00101674802F018FFDD
:1034A00001A9654802F056FF00BF0AE00120FEF7BF
:1034B0000DF904F10104B4F5FA7F02DD002006B035
:1034C00010BD4FF400315C4802F038FF0028EDD108
:1034D0000121594802F01EFF4FF0000409E00120CD
:1034E000FEF7F4F804F10104B4F5FA7F01DD0020E1
:1034F000E5E75249504802F0DFFE0028EFD00022F5
:10350000D0214D4802F083FF4FF0000409E0012074
:10351000FEF7DCF804F10104B4F5FA7F01DD0020C8
:10352000CDE74749444802F0C7FE0028EFD001210B
:10353000414802F0F9FE4FF49670FEF7C7F80121FA
:103540003D4802F0E7FE4FF0000409E00120FEF7DD
:10355000BDF804F10104B4F5FA7F01DD0020AEE707
:103560003649354802F0A8FE0028EFD00022D021CD
:10357000314802F04CFF4FF0000409E00120FEF753
:10358000A5F804F10104B4F5FA7F01DD002096E707
:103590002B49294802F090FE0028EFD00E21264842
:1035A00002F03DFF4FF0000409E00120FEF78EF825
:1035B00004F10104B4F5FA7F01DD00207FE7204922
:1035C000891C1D4802F078FE0028EED000211A4820
:1035D00002F025FF4FF0000409E00120FEF776F825
:1035E00004F10104B4F5FA7F01DD002067E7144916
:1035F000891C114802F060FE0028EED000210E4820
:1036000002F00DFF4FF0000409E00120FEF75EF824
:1036100004F10104B4F5FA7F01DD00204FE7084909
:10362000891C054802F048FE0028EED0012102481E
:1036300002F07AFE012042E700540040010003003E
:1036400082000700000C0140A0860100801A0600DD
:1036500000B585B00121480502F028FF01210920AD
:1036600002F03CFF4FF0C000ADF800004FF0030047
:103670008DF802004FF01C008DF803006946BC482D
:1036800002F0C0FDBB4802F02DFE4FF00000ADF887
:1036900004004BF6FF70ADF806004FF48060ADF803
:1036A0000A004FF48040ADF80C00B34804904FF08E
:1036B0000101B04802F00CFE01A9AE4802F04AFE3A
:1036C0000121AC4802F0EEFD05B000BD70B5064624
:1036D0000D464FF000044FF00101A64802F01AFE1B
:1036E00000BF09E00120FDF7F1FF04F10104B4F58A
:1036F000FA7F01DD002070BDA0499E4802F0DCFD8C
:103700000028EFD00022AE219A4802F080FE4FF050
:10371000000409E00120FDF7D9FF04F10104B4F52C
:10372000FA7F01DD0020E6E79549924802F0C4FDEA
:103730000028EFD0290A8F4802F071FE4FF00004F4
:1037400009E00120FDF7C2FF04F10104B4F5FA7F9E
:1037500001DD0020CFE78A49891C864802F0ACFDD4
:103760000028EED0E9B2834802F059FE4FF0000481
:1037700009E00120FDF7AAFF04F10104B4F5FA7F86
:1037800001DD0020B7E77E49891C7A4802F094FDEC
:103790000028EED03146774802F041FE4FF0000499
:1037A00009E00120FDF792FF04F10104B4F5FA7F6E
:1037B00001DD00209FE77249891C6E4802F07CFD04
:1037C0000028EED001216B4802F0AEFD0520FDF788
:1037D0007DFF01208FE72DE9F04106460F46154693
:1037E0004FF000044FF00101624802F093FD0AE03F
:1037F0000120FDF77EFF04F10104B4F5FA7F02DD3C
:103800000020BDE8F0815D495A4802F055FD0028CE
:10381000EED00022AE21574802F0F9FD4FF000042F
:1038200009E00120FDF765FF04F10104B4F5FA7F1A
:1038300001DD0020E5E752494E4802F03DFD002839
:10384000EFD001214B4802F043FD390A494802F00C
:10385000E6FD4FF0000409E00120FDF74AFF04F106
:103860000104B4F5FA7F01DD0020CAE74449891C50
:10387000404802F021FD0028EED0F9B23D4802F0A8
:10388000CEFD4FF0000409E00120FDF732FF04F106
:103890000104B4F5FA7F01DD0020B2E73849891C44
:1038A000344802F009FD0028EED00121314802F031
:1038B00031FD4FF0000409E00120FDF71AFF04F18B
:1038C0000104B4F5FA7F01DD00209AE72B4929486D
:1038D00002F0F2FC0028EFD00122AE21254802F0D0
:1038E00096FD4FF0000409E00120FDF702FF04F10E
:1038F0000104B4F5FA7F01DD002082E71F49491C6D
:103900001C4802F0D9FC0028EED018E0012D07D1A8
:103910000021184802F0C6FC0121164802F004FDFF
:1039200016493F31134802F0C7FC40B1114802F07C
:103930006BFD307006F10106A5F1010085B2002D86
:10394000E4D101210B4802F0ADFC0220FDF7BEFEE0
:10395000012056E770B505460C464FF0FF00207079
:103960004FF0010229462046FFF735FF70BD0000E9
:10397000000C014000540040801A060001000300C2
:10398000820007002DE9F04106460D464FF0000782
:10399000B846284600F091FC0746444607E0305DF3
:1039A000295D884201D108F1010804F10104BC42FB
:1039B000F5DBB84502D10020BDE8F0814FF0FF30C3
:1039C000FAE770B59AB005464FF032010DA8FDF741
:1039D0004BFE32216846FDF747FE4FF000001C49C0
:1039E00008604FF010066B460DAA1AA1284600F099
:1039F000FBFA6946284600F02AFC1549086008468B
:103A00000168684600F035FC4FF0000413E004EB59
:103A1000C400124A02EB80010DA8FFF7B3FF40B9C2
:103A200004EBC4000D4A02EB8000016A6846884737
:103A300003E004F10104B442E9DB00BF08A0007810
:103A40008DF8340006A000788DF800001AB070BD23
:103A5000600000202573202573000000387D0008D9
:103A6000000000000FB49DF80000BDF8121088425D
:103A700002DD012004B070479DF80000BDF812106F
:103A8000884202DA4FF0FF30F4E79DF801009DF81C
:103A90001010884201DD0120ECE79DF801009DF83F
:103AA0001010884202DA4FF0FF30E3E79DF8020081
:103AB0009DF80F10884201DD0120DBE79DF8020030
:103AC0009DF80F10884202DA4FF0FF30D2E79DF8E0
:103AD00002009DF80E10884201DD0120CAE79DF822
:103AE00002009DF80E10884202DA4FF0FF30C1E765
:103AF0009DF802009DF80D10884201DD0120B9E714
:103B00009DF802009DF80D10884202DA4FF0FF3058
:103B1000B0E70020AEE72DE9F04105460E4600BFB4
:103B20004FF6FF7800BF05EB45004FEA80053746AA
:103B30004FF0000416E0291988B23946FFF70AFF52
:103B400028B96FA0FDF7DAFC0020BDE8F0810A2C4F
:103B500004D239784046FDF75FFE804607F1010741
:103B600004F101040C2CE6D37089404501D10120F9
:103B7000EBE70020E9E770B598B04FF00006354656
:103B80002846ADF81A004FF001008DF818008DF8A6
:103B900017004FF000008DF816008DF815004FF457
:103BA0002F70FDF793FD2C462DE008A92046FFF766
:103BB000B2FF054605B924E006980090BDF81C0048
:103BC000ADF80400059B08A807C8FFF74BFF0028C5
:103BD00000DA16E04D4804609DF82000ADF81A00A8
:103BE0009DF821008DF818009DF822008DF817002F
:103BF0009DF823008DF816009DF824008DF815001F
:103C000000BF04F10104B4F5A87FCED33F48036898
:103C10009DF815009DF816109DF81720CDE90203B8
:103C2000CDE900219DF81830BDF81A2038A10BA865
:103C300000F094F80BA8FDF761FC18B070BD2DE9F9
:103C4000FF4104464FF6FF7504EB44004FEA800441
:103C5000B4F57C6F03DD002004B0BDE8F08101AE57
:103C60004FF0000713E0E21991B23078FFF72EFD14
:103C700020B92EA0FDF742FC0020EDE73178284660
:103C8000FDF7CAFD054606F1010607F101070A2FF7
:103C9000E9D304F10A0291B2E8B2FFF717FD20B9A7
:103CA00026A0FDF72BFC0020D6E74FEA252504F1DE
:103CB0000B0291B22846FFF709FD20B923A0FDF7BA
:103CC0001DFC0020C8E70120C6E737B54FF000040F
:103CD0000E48006800F101000C4908600B489DE89F
:103CE0000E000068FFF7ABFF04460CB120463EBD56
:103CF00006480068A0F10100044908602046F6E784
:103D0000526561644572726F720A0000640000209F
:103D10000A2564202564202564202564202564204C
:103D2000696E6465783D25640A00000077726974E5
:103D300065204572726F720A000000007772697424
:103D400065204572726F72320A00000077726974E2
:103D500065204572726F72330A0000000FB41CB503
:103D6000074B06AA7B4469460090059800F083FD46
:103D70000020694600F092FD1CBC5DF814FB0000B9
:103D8000350B000070B5044685690068C10601D591
:103D9000302600E02026C00708D070BDD4E90121FC
:103DA00030469047206A00F1010020626D1EF5D573
:103DB00070BD70B5044685690068C00708D170BD44
:103DC000D4E9012120209047206A00F101002062FF
:103DD0006D1EF5D570BD00002DE9F04107460025A8
:103DE00010687529394616A411D0AFF30080002859
:103DF00003DAC0F1000013A407E039688A0701D58F
:103E000011A402E0490704D510A4012501E0AFF395
:103E1000008000210A2307F1240607E0B0FBF3F23B
:103E200003FB1200303070541046491C0028F5D1B5
:103E30002B4622463846BDE8F04100F0ACBA0000FF
:103E4000000000002D0000002B00000020000000FA
:103E500070B504460D4621461068AFF30080216816
:103E6000090502D5104A7A4402E00F4A7A440E321C
:103E7000002104F1240307E000F00F064FEA1010C0
:103E8000965D5E5401F101010028F5D12068002300
:103E9000000704D5702D02D009B11132022320464B
:103EA000BDE8704000F077BA224100002DE9F05FD4
:103EB000044689464FF0000ADFF828B1FB44C0F8F9
:103EC00020A02046E168884700287CD0252806D01D
:103ED000D4E901219047206A401C2062F1E70025C7
:103EE0005F462046E16888472028064608DB312ED9
:103EF00006D207EB060010F8200C08B10543F0E7E6
:103F0000A80701D525F00405C4F81CA00027C4F8B3
:103F100018A02A2E09D0304602F037FD38B304EB42
:103F20008708303EC8F8186019E059F8041B20468D
:103F300004EB87029161E1688847012F064618D19A
:103F4000E069002820DA25F020051DE0D8F81800E7
:103F500000EB800006EB40003038C8F8180020461F
:103F6000E1688847064602F010FD0028EED1012FD7
:103F70000AD02E2E08D12046E16888477F1C0646CD
:103F8000022F45F02005C4DBA069002803DA404277
:103F900045F00105A061E80701D025F0100596B1B4
:103FA000A6F14100192802D8203645F400654A469A
:103FB0003146204625604D46FCF7D2F860B1012815
:103FC00007D0ED1D00E009E025F0070000F1080929
:103FD00077E705F1040974E7304679E7206ABDE820
:103FE000F09F0000F44000000FB400B58DB010A9A0
:103FF000099000910B904FF0FF300A9000200C9038
:10400000064878440690064878446A4607900F9917
:1040100009A800F0B1FE0DB05DF814FB970D00008B
:10402000AF0D00002DE9FF5F1D464FF0FF3B9146AD
:104030004FF000085F46D5E90146A96901987F1C49
:104040008847296A824688470028F6D11AF101007C
:104050000CD0002E24F4C06419DD600614D5BAF12A
:104060002B0F09D0BAF12D0F0ED103E0584604B042
:10407000BDE8F09F44F48064A96901987F1C8847DB
:10408000761E8246002E02DDBAF1300F03D0B9F160
:10409000000F26D032E0A969761E01987F1C44F4F7
:1040A00000748847002E824605DDBAF1780F06D0ED
:1040B000BAF1580F03D0B9F1000F10D01EE0B9F1DA
:1040C000000F02D0B9F1100F18D1A969761E01981E
:1040D0007F1C24F4007488478246102002E00820E8
:1040E00000E00A20814609E0A96908FB0908761E5C
:1040F00001987F1C44F4007488478246002E05DD39
:104100004946504600F0CFFB0028EDDAE9690198F6
:104110008847A00502D46FF00100A8E7E00727D187
:10412000600614D5600502D5C8F1000000E04046E5
:10413000296801F104022A600968220501D5087086
:1041400016E0220701D5088012E0086010E0286818
:1041500000F1040129600068210502D580F8008083
:1041600006E0210702D5A0F8008001E0C0F8008039
:1041700038467CE72DE9FF5F1446994600273E4606
:104180009169D2E901B8DDF838A001988847054661
:1041900059EA0A0005D009E0A1690198761C884710
:1041A0000546216A284688470028F5D1681C03D0B7
:1041B0005FEACB7005D015E04FF0FF3004B0BDE8EA
:1041C000F09F2068011D216007680BE05FEACB705B
:1041D00001D107F8015BA1690198761CA8F10108DB
:1041E00088470546B8F1000F1ADD681C18D0B9F1F0
:1041F000000F0DD0E81705EBD060421120F01F0032
:1042000059F822102A1A012090400142DED107E01D
:10421000BAF1000FDAD12846216A88470028D5D0A4
:10422000E169019888470BF0010050EA0A0000D1CB
:104230003870A168414505DDBAF1000F05D0B8F12D
:10424000000F02D06FF00100B8E73046B6E730B596
:1042500005460B462A4613F8014B12F8010B08B12C
:10426000A042F8D01CB1002802D06D1CF1E728460E
:1042700030BD40EA0103024630B59B0710D14FF034
:10428000013400E008C208C91D1B9D4315EAC41F84
:10429000F8D013F0FF0102F8011B0DD01B0AF8E75C
:1042A00011F8013B002B02F8013B05D011F8013B4E
:1042B000002B02F8013BF3D130BD10B5431C02E0E6
:1042C00010F8011B71B18107FAD14FF0013202C819
:1042D0008C1A8C4314EAC211F9D0C01A0A0603D012
:1042E000C01E10BDC01A10BD0A0401D0801E10BD32
:1042F0000902FCD0401E10BD421E12F8013F002BE7
:10430000FBD111F8013B002B02F8013BF9D17047BA
:104310004FF0013C50F8042B51F8043B9A4221D154
:10432000A2EB0C03934313EACC1317D150F8042BE0
:1043300051F8043B9A4215D1A2EB0C03934313EAC4
:10434000CC130BD150F8042B51F8043B9A4209D1FD
:10435000A2EB0C03934313EACC13DBD04FF0000025
:10436000704700BFD01A01BAB1FA81F101F018010B
:1043700022FA01F0CB40C1F12001DBB2C0B2C01A79
:104380002CFA01F3D11A914311EAC311E6D1704717
:104390007047704770472DE9F0470D460446924636
:1043A000994600F124080168880604D5E06921F0E7
:1043B0001001216000E00120A84202DDA0EB05070A
:1043C00000E00027A16907EB050202EB0300A1EB67
:1043D0000000A0612068C00602D42046FFF7D2FC8E
:1043E000002608E0D4E901211AF806009047206A67
:1043F000401C761C20624E45F4DB2068C0060AD5BE
:104400002046FFF7BFFC06E0D4E9012130209047A9
:10441000206A401C2062381EA7F10107F4DC07E087
:10442000D4E9012118F805009047206A401C206259
:10443000281EA5F10105F3DC2046FFF7BAFC206831
:10444000000602D50220BDE8F0870120FBE7704797
:104450002DE9FF4F0C461E464FF0FF378BB0D2E9D7
:104460000001DDF860800A908A46C1F30A5505B95B
:104470003D46002108464FF00000BAF1000F00F45D
:10448000400005DA00EB80004FF4400101EA5000E3
:104490004FEA9059B9F1010F00DDB9460A9850EA88
:1044A0004A000ED044F61050A5F2FF3545432F14B4
:1044B000B8F1000F1ED07542291E1EDDC9F10002A1
:1044C0001CE0B8F1010F4FF0000001D1F24307E00A
:1044D000302101E02154401CB042FBDB3046002279
:1044E000002121540B99C1F80880C1E900200FB0C8
:1044F000BDE8F08FBD1B6D1CDEE74A4600DA69425D
:1045000006A800F0BDFE06AB07CB03AB07C35046C1
:104510000A9901F0B6F98DE80700A0F500501F38A0
:1045200000900398002D09DD42F21F014A4608441D
:1045300003A90390684601F040FC08E0A0F5005094
:104540004A461F3803A90390684601F05EFC8DE8D7
:1045500007000004000C03D04FF0FF30410800E0DA
:104560001046B8F1000F03D00022009215461FE05C
:10457000751E06D400F03AFC02F1300262556D1E41
:10458000F8D5B3460122084302D000227F1C04E084
:104590002078302801D100227F1E002A099787D079
:1045A0001DE0112D07DA00F021FC303262556D1C40
:1045B00050EA0102F5D108430FD10021681E05E041
:1045C000235C625C6354491C2254401E8142F7DB29
:1045D000AB46A81B401E099001E0009848B100209E
:1045E00004F80B000B98099AC0F80880C0E9002B6A
:1045F0007DE711264FF000085AE72DE9F04F884675
:104600000446D21D22F0070191B0D1E90001CDE9A5
:104610000A0102F047F902460B98C00F01D02D2085
:1046200007E02068810701D52B2002E0202101EA64
:10463000C000032A099001D0072A05DB0346414642
:10464000204600F021FC0EE12068800601D5E069DB
:1046500000E00620B8F1650F814606D0B8F1660F7C
:1046600018D0B8F1670F72D132E00020B9F1110F04
:104670000090484601DB112300E0431C0AAA01A96F
:104680000CA8FFF7E5FEDDE90C70002609F1010535
:10469000834648E001204B4600904FF000470AAAAD
:1046A00001A90CA8FFF7D4FEDDE90C050E99002640
:1046B000AB4619B909F1010100EB0105B9EB0500A1
:1046C00003D4C0F1FF3609F10105A5EB09002BE089
:1046D000B9F1010F01DA4FF001090020B9F1110F12
:1046E0000090484601DD112300E003460AAA01A913
:1046F0000CA8FFF7ADFEDDE90C704D4600268346A1
:10470000206800070AD4AB4500DA5D4601A8012DF8
:1047100004DD411911F8011C302907D04F4502DA98
:1047200017F1040F04DA0120824610E06D1EEEE757
:10473000002F02DCED1B3E4403E0781CA84200DDA4
:104740000546A7EB060000F1010A4FF0004720687C
:10475000000703D4AA4501DB4FF0FF3A0021B7F16F
:10476000004F0DF143088DF8431022D002202B2377
:10477000002F01DA7F422D230A22011EA0F1010041
:1047800000DC4FB197FBF2F102FB117C0F460CF1FC
:10479000300C08F801CDF0E7A8F1010003702168A2
:1047A000090501D5452100E06521A0F1010800F8C7
:1047B000011C09980FA9A1EB080707F1070700B131
:1047C000012000EB050101EBEA70A1693844A1EB7F
:1047D0000000A0F10100A0612068C00602D42046BC
:1047E000FFF7D0FA099830B1D4E901219047206A47
:1047F00000F1010020622068C00620D52046FFF7A6
:10480000C1FA1CE0002E04DBB34502DD01A8805D87
:1048100000E03020D4E901219047206A761C401C3A
:10482000BAF1010A20620AD100F0D8FAC068016822
:10483000405CD4E901219047206A401C2062281E78
:10484000A5F10105DEDC07E0D4E9012118F8010B30
:104850009047206A401C2062381EA7F10107F3DC54
:104860002046FFF7A6FA022011B041E601694A1C72
:1048700002610878704700B58FB0CDE901310021A1
:10488000059105497944CDE9031011466846FFF7C3
:104890000DFB0FB000BD0000E5FFFFFF0A6802F846
:1048A000010B0A6070473A2800D2303820F020020D
:1048B000412A01D3A2F13700884201D34FF0FF30E3
:1048C000704700002DE9F04F80469B4689B008787C
:1048D000FF2806D0491C2D2805D000244FF00009E0
:1048E00008E000200CE00124F8E709EB8903491CEB
:1048F00000EB43090878FF28F7D114B1C9F1000093
:104900008146107800242646A2462D2801D02B2867
:1049100013D1521C2D2802D0002082460DE0012028
:10492000FBE70A200025A4FB007C521C06FB00C00C
:1049300004FB0500CC1945EB00061178FF29F0D1E6
:10494000002108464FF00000BAF1000F02D000EB42
:1049500080004008C0F38157012F01DD4FF0FF3781
:1049600054EA060009EB0B054FF0000906D14FEAA7
:10497000CA71C8E9009109B0BDE8F08F15F5FA7F5A
:104980004FF0020B04DA4FEACA71C8E900910AE05D
:10499000B5F5FA7F0CDDF2487844D0E9002141EA10
:1049A000CA71C8E9002100F01DFAC0F800B0E2E7C2
:1049B000291E02DAC7F1000200E03A4600DA694235
:1049C00006A800F05DFC06AB07CB03AB07C344F2BF
:1049D0003E0059EA06010090484604D144F21E0107
:1049E00026464C460091310C0904014306D100993A
:1049F000360446EA144624041039009106F07F413B
:104A0000014306D10099360246EA146624020839A9
:104A1000009106F07041014306D10099360146EA43
:104A200014762401091F009106F04041014306D18C
:104A30000099B60046EA9476A400891E009106F01B
:104A40000041084304D1009824197641401E00908B
:104A50003A466846CDE90164002D03A902DD01F064
:104A6000E8F901E001F0BDF9BAF1000F04460D4686
:104A700001D084F0004440F2FF7624F00040284347
:104A800003D0C4F30A50B04214D100F0ABF9C0F81F
:104A900000B0C4F30A50B0420CD1B2487844D0E917
:104AA0000012C8F8001004F0004142EA0100C8F802
:104AB000040060E7C8E900545DE72DE9FF4F1F4699
:104AC0004FF0000A4FF0FF38454691B0D7E9014654
:104AD000CDF83CA000F082F9C0680168405C1090FD
:104AE000B96912986D1C8847396A81468847002841
:104AF000F6D119F101000AD0002E24F4D06412DDA1
:104B0000B9F12B0F08D0B9F12D0F0CD102E04046BE
:104B100015B031E744F48064B96912986D1C884778
:104B20008146A6F10106600504A901D52D2000E00B
:104B30002B20002E01F1010B0DF130088DF8100033
:104B40003FDDB9F1690F08D0B9F1490F05D0B9F1CE
:104B50006E0F02D0B9F14E0F1CD13B4601A8009553
:104B6000A0E85002DDE912126FF0020002F0DDFE53
:104B7000C11CCDD10EE0B96912986D1C88478146E1
:104B80001398761E44F4007405600F98401C002EA4
:104B90000F9016DDB9F1300FEDD0B9F1780F02D0DA
:104BA000B9F1580F0DD10F9801280AD13B46CDE934
:104BB0000054DDE91212001F029602F0B4FEC11C7F
:104BC000A6D1109989453ED144F0800406E013999E
:104BD000681CAAF1010A44F400740860B969761EE1
:104BE00012986D1C884730288146F0D02BE0109930
:104BF000894505D1200603D4761E44F0800418E0D0
:104C0000484601F0C2FE08B3761E0DF123018B4524
:104C100044F4007408D2A9F130000BF8010B20060F
:104C200007D5AAF1010003E0200602D40AF1010031
:104C30008246A00502D51399681C0860B9691298CC
:104C40006D1C88478146002ED1DC56E0002E54DDD5
:104C5000B9F1650F02D0B9F1450F4ED1A0054CD581
:104C6000B969761E12986D1C24F440748847002E92
:104C700081460DDD2B2804D0B9F12D0F08D144F465
:104C80008074B96912986D1C88478146A6F10106A7
:104C9000E00501D52D2100E02B2108F8011BCDF8FE
:104CA000008023E0761E0DF13901884544F400743C
:104CB0000ED24146A9F1300010F0FF0088F8000044
:104CC00003D108460099884209D908F1010806E095
:104CD000E00501D5244801E042F20F708246B9692F
:104CE00012986D1C8847814613980560002E04DDDC
:104CF000484601F04AFE0028D4D1F9691298884745
:104D0000FF2053468BF8000088F8000000200A902E
:104D10000B9004AA0CA90AA8FFF7D4FDA00502D4A1
:104D20006FF00100F4E614F0240F0AD0E00714D16C
:104D30003868DDE90A12031D3B600068C0E9001213
:104D40000BE00AA9684601F0C9FDE00705D1386803
:104D5000009A011D3960006802602846D8E600000C
:104D6000E0360000DC350000F1D8FFFF0268114496
:104D700013780160184670470B461146054A7A447D
:104D80004A61054A7A440A620022C1E9033200F00E
:104D9000BBB80000EBFFFFFFEF000000426842B12C
:104DA000016811F8013B23B1521EC0E900121846F8
:104DB00070470121C160881E7047416859B1C368BE
:104DC000026843B98368934205D0521E491CC0E96A
:104DD0000021002070474FF0FF30704700487047B7
:104DE00020110020004870470011002030B5B0F1BC
:104DF0000A024FEA900E71F100034EEA817EB0EB99
:104E00000E0061EB91014FEA101E4EEA017E10EB9D
:104E10000E0041EB11114FEA102E4EEA016E10EB1D
:104E20000E0041EB11214FEA104E4EEA014E10EBFD
:104E30000E0041EB1141401841F100014FEAD00052
:104E400040EA41704FEAD10110EB80054FEA81043E
:104E500044EA907444EB01046D1944EB0404521BC2
:104E6000A3414FF0000348BF0A3200D530BD401CBB
:104E700041F1000130BD10B5044600F09DFA006814
:104E8000005D00F0010010BD2DE9F04104461F4611
:104E900003260168072A01F4006004DB08B116A5A7
:104EA00005E016A503E008B115A500E015A521F061
:104EB00010002060A069C01EA0610FB1401EA0615B
:104EC0002046FEF75FFF4FB1D4E9012138469047F5
:104ED000206A401C2062C01C206206E0206AFAE7BB
:104EE000D4E9012115F8010B9047761EF8D220462F
:104EF000FEF75FFFBDE8F0814E414E006E616E002F
:104F0000494E4600696E66002DE9F34F4FF0000AE6
:104F10000C4656468FB001200DF1100B0D9001F19B
:104F20000C000390626903980121904705002DD081
:104F3000252D2CD0216A8847C0B1626903980121D0
:104F40009047216A88470028F7D16269411E03987B
:104F5000904700E0761CA1690F988847216A88472E
:104F60000028F7D1E1690F988847DBE7A1690F981E
:104F70008847A842074601D1761CD3E7E1690F981C
:104F800088477F1C02D1BAF1000F6FD06BE16269D4
:104F9000039800273D46394690472A2804D1626984
:104FA0000398012190470125DFF8D08262690398B8
:104FB00001219047A0F130010A290AD24745E5DCDA
:104FC00007EB870100EB4107303FDFD445F01005C8
:104FD000ECE7E90601D46FF000476C280AD04C28B2
:104FE00014D0682815D06A280DD074281CD07A28CF
:104FF0001AD01DE062690398012190476C2802D005
:1050000045F0040514E045F002050DE045F02005EB
:105010000AE06269039801219047682802D045F0B0
:10502000080505E045F40065626903980121904791
:10503000C4E9015765283DD019DC582879D00CDC2B
:10504000452837D004DC252826D041289ED131E0E0
:1050500046282FD0472899D12CE05B287FD06128A3
:1050600028D063287BD0642823D159E0F6E06F284C
:1050700047D008DC66281DD067281BD0692821D0BE
:105080006E2816D127E0702844D0732867D0752881
:1050900046D078280DD14CE0A1690F988847252883
:1050A00005463FF469AFE1690F9888476D1C3FF4EE
:1050B0006AAFD8E00F9923466A466FF0010002F00C
:1050C00030FCC5E045F0400023464FF00002606030
:1050D000A80735D43DE0206800F104012160006894
:1050E000290501D506701DE7290701D5068019E7B6
:1050F000A90704D54FEAE671C0E9006112E706602E
:1051000010E745F0400023464FF008026060A80712
:1051100016D41EE040F60E0125EA0100606016E09C
:1051200045F0400023464FF00A026060A80707D40C
:105130000FE045F040006060A80708D52346102224
:105140000F996FF00100AFF3008081E007E01022BB
:1051500023460F996FF00100FEF764FF78E04FF0EF
:10516000000963284F46C8464B46CDF8309002D020
:105170005B2806D02FE0E80601D40120A0600127BB
:1051800029E062690398012190475E2805D14FF01C
:1051900001094946626903989047216979B3E1683A
:1051A000891E0C9160B3216959B308F10108626945
:1051B0000398012190475D28F4D1B9F1000F09D07F
:1051C0005946002051F82020D24341F82020401CAD
:1051D0000828F7DB04AB2069002860684FEA4070BC
:1051E00027D02246CDF80080CDE901970C9B0F997E
:1051F00000286FF0010029DAAFF3008028E001E019
:1052000031E007E000235A4642F82130491C0829C2
:10521000FADBC7E7C11700EBD1635A1123F01F0374
:105220000BEB8201C31A0A680120984002430A600E
:10523000BDE7009722460F9900286FF0010002DABF
:10524000AFF3008004E0FEF795FF01E0AFF30080CC
:1052500000280ADA401C06D10D9820B14FF0FF302B
:1052600011B0BDE8F08F5046FAE7E90701D10AF125
:10527000010A064400200D9054E60000CCCCCC0C72
:105280002DE9F047814616468AB035487844D0E982
:10529000002380680092CDE90130314878440C3811
:1052A000D0E90223006903924FF03702CDE90430C0
:1052B00041F69B30014491FBF2F0A0F1800502FB26
:1052C00010141B3C02D56442012000E00020DFF8EE
:1052D00090A080460027FA44AAF1C60A0DE0E00734
:1052E00009D03246684607EB47010AEB810100F01E
:1052F0008CFD8DE8070064107F1C002CEFD1184F47
:105300007F44B43F17E0E80713D007EB04100DF11A
:10531000180A90E80E00AAE80E00C068F04201D119
:1053200098190890324606A903A800F06EFD03AB59
:1053300007C36D10641C002DE5D132466946B8F1F3
:10534000000F03A802D000F038FD01E000F05DFD81
:10535000C9E90001C9F808200AB0BDE8F0870000DB
:10536000B42D000000487047001100207546FFF77B
:10537000F9FFAE4605006946534620F00700854612
:1053800018B020B5FBF78EF8BDE820404FF00006BE
:105390004FF000074FF000084FF0000B21F007011D
:1053A000AC46ACE8C009ACE8C009ACE8C009ACE860
:1053B000C0098D467047000010B5FFF70FFD001DB6
:1053C00010BD00BFD916000010B5FFF70BFD006837
:1053D00010BD10B50446FFF705FD046010BD0000C8
:1053E0002DE9FF4F1F464FF03C0987B04FF00042B8
:1053F000DDE9141001F10108DDF858A002EA40507F
:105400000390002005908346054604460490B96940
:10541000461E08988847AAF1010A0290BAF1000FC7
:1054200037DD02982E2815D01021FFF73CFA00280E
:105430002ADB4FF0010B0599014316D0B9F1000F9B
:105440000BDB4A46C11700F0FDF905430C43A9F1F7
:10545000040905E00120049007E008B145F00105CA
:1054600001200590049800B9361DB969089808F123
:1054700001088847BBF1000FAAF1010A0290CDD0C4
:105480000999C1F80080C9E70298702808D050280F
:1054900006D0F96908988847BBF1000F14D04FE097
:1054A000002002900120BBF1000F049009D0B969DF
:1054B000089808F101088847AAF10109B9F1000F1D
:1054C00007DCF969089888476FF001000BB0BDE868
:1054D000F08F2B2804D02D280CD14FF0FF300490F2
:1054E000B969089808F101088847A9F10109B9F1DB
:1054F000000FE6DD411CE4D00A21FFF7D4F90028B3
:10550000DFDB029908F1010801EB810100EB4100AA
:105510000290B969089888470A21FFF7C4F9099AE7
:10552000A9F10109B9F1000FC2F8008001DD0028DE
:10553000E7DAF969089888470499029800FB016640
:1055400055EA040001D103989FE004F040410900AE
:1055500004D1A40044EA9574AD00B61E04F00041E5
:10556000080002D16D196441761E159810F0240FC1
:1055700003D04FF00B095E4803E04FF028096FF0AD
:105580007D008246564507DAAAEB06018944B9F147
:10559000410F01DD4FF0410901200021A9F1010275
:1055A00000F050F9024628400B462140084301D044
:1055B000012000E000200290501E43F1FF312840FE
:1055C0002140084301D0012000E0002002998346D9
:1055D00051EA0B0152D0002108464FF00000039918
:1055E00000F4400039B100EB80004FF4400100EBC3
:1055F000D07001EA60008015012802DD4FF0FF3015
:1056000000E013D0401C39D0029860B3BBF1000F0A
:105610000CD14A460120002100F014F92840214015
:10562000084301D0012000E00020E0B101204A46FB
:10563000002100F007F9844640190A4661412B1AFF
:105640008C4111D3B9F1400F09DD159810F0240FEA
:1056500002D0AAF1340603E0AAF1170600E0761C96
:1056600000254FF0004409E04FF0FF331CEB03032B
:1056700042F1FF3220EA030521EA0204CAF10100E7
:10568000B04206DA1B4903980843019000200090BD
:105690000EE0039AC4F3D321E80A0A43164940EA0C
:1056A00044500A433146CDE90002684601F062F9F0
:1056B000159810F0240F0BD01598C00715D1386835
:1056C000DDE90012031D3B600068C0E900120CE038
:1056D00002A8694601F002F91598C00705D138689B
:1056E000029A011D3960006802604046EEE6000043
:1056F00002FCFFFF0000F07F0000F03F2DE9FF4FAC
:1057000091461D4685B04FF00042DDE9124BDDE9C0
:1057100014717F1E02EA4B50434A40F0FF4A40EAB0
:105720000208002221F020004928049202D04E28CD
:105730002BD04FE03DA00126D0E9001280680091F7
:10574000CDE90120A9690698641C88477F1E01469F
:1057500006D41DF8060018B121F0200181420BD0BB
:10576000E96906988847032E34D0082E32D06FF0AE
:10577000010009B0BDE8F08F761C032E01D0082E81
:10578000E0D1601CC9F80000DCE7A9690698641C38
:1057900088477F1E2AD420F02000412826D1A969FD
:1057A0000698641C88477F1E20D420F020004E28D5
:1057B0001CD1A9690698641C88477F1E48F40028FC
:1057C0004AF4800AC9F8004001D4282806D0E969C3
:1057D000069888475FEACB7012D022E0A969069844
:1057E000641C88477F1E01D4002803DAE969069803
:1057F0008847BCE72928F1D1641CC9F80040E9E7D3
:105800001BF0240F07D028680499031D2B60006843
:10581000C0E9001805E02868021D2A600068C0F889
:1058200000A02046A5E700000000F07F494E464951
:105830004E495459000000000446AFF30080204652
:10584000FAF7B6FCB2F120030AD5C2F1200301FA3F
:1058500002F120FA03F300FA02F041EA0301704773
:1058600000FA03F14FF00000704700000048704755
:105870000411002001491820ABBEFEE726000200FB
:1058800070475FEA400C08BF91F0000F4FEA8C238D
:105890004FEAC12243EA51514FEA1C5018BF00F5AC
:1058A000F0404FEA300018BF41F000415FEA6C5C05
:1058B00000F02980BCF1FF3F08BF40F080407047F6
:1058C000130C06BF12044FF0100C4FF0000C130E17
:1058D00004BF12020CF1080C130F04BF12010CF1EB
:1058E000040C930F04BF92000CF1020CD30F04BF01
:1058F00052000CF1010C11464FF00002A0F11F0004
:10590000A0EB0C00704711F0004F08BF704731F05A
:1059100000413FF4D5AF0B0C06BF09044FF0100C4B
:105920004FF0000C0B0E04BF09020CF1080C0B0F1A
:1059300004BF09010CF1040C8B0F04BF89000CF1AA
:10594000020CCB0F04BF49000CF1010CCCF1200379
:10595000A0EB0C0022FA03F302FA0CF241EA030175
:1059600000F10100704720F07F4C80EA030023F033
:105970007F47ACEB070303F57C5300F0004003F1D5
:10598000FF032DE980494FEA154B09B44FEA144350
:1059900025EA0B4E24EA03480FF2042606EB1327F0
:1059A00049083E785FEA320203FB0667C7F5000745
:1059B00007FB06F64FEA54374FEAD64606F10206D1
:1059C00007FB066CCCF1005C4FEA1C472CEA074C45
:1059D00007FB06F40CFB06F504EB15464FEA96169A
:1059E00034BF00204FF000404FEAD13706FB07FCE0
:1059F0004FEA1C4C0CFB0BF7D21B03FB0CF761EBC3
:105A000007010CFB0EF7B0EB074072EB17420CFBE3
:105A100008F734BFA2EB0742B2EB074261EB174134
:105A20004FEA0C444FEA910706FB07FC4FEA1C4C77
:105A30000CFB0BF7B0EBC74072EB573203FB0CF7D4
:105A400034BFA2EBC742B2EBC74261EB57310CFB4C
:105A50000EF7B0EBC70072EB57720CFB08F734BFC0
:105A6000A2EBC702B2EBC70261EB5771039F4FEA8B
:105A7000816141EA921104EBCC044FEAD1374FEA3D
:105A8000826206FB07FC42EA90124FEA80604FEA0E
:105A90001C4C0CFB0BF7D21B03FB0CF761EB070153
:105AA0000CFB0EF7B0EB074072EB17420CFB08F74C
:105AB00034BFA2EB0742B2EB074261EB17414FEA5A
:105AC0008C554FEA910704EB9C2406FB07FC4FEA38
:105AD0001C4C0CFB0BF7B0EBC74072EB573203FBCF
